{
  "abi": [
    {
      "inputs": [],
      "stateMutability": "nonpayable",
      "type": "constructor"
    },
    {
      "inputs": [
        {
          "internalType": "address",
          "name": "router",
          "type": "address"
        },
        {
          "internalType": "address",
          "name": "pool1",
          "type": "address"
        },
        {
          "internalType": "address",
          "name": "pool2",
          "type": "address"
        },
        {
          "internalType": "address",
          "name": "pool3",
          "type": "address"
        },
        {
          "internalType": "uint256",
          "name": "amount1_maxIn",
          "type": "uint256"
        },
        {
          "internalType": "uint256",
          "name": "amount1_out",
          "type": "uint256"
        },
        {
          "internalType": "uint256",
          "name": "amount2_maxIn",
          "type": "uint256"
        },
        {
          "internalType": "uint256",
          "name": "amount2_out",
          "type": "uint256"
        }
      ],
      "name": "encodeUserData",
      "outputs": [
        {
          "internalType": "bytes",
          "name": "",
          "type": "bytes"
        }
      ],
      "stateMutability": "pure",
      "type": "function"
    },
    {
      "inputs": [
        {
          "internalType": "contract IERC20[]",
          "name": "tokens",
          "type": "address[]"
        },
        {
          "internalType": "uint256[]",
          "name": "amounts",
          "type": "uint256[]"
        },
        {
          "internalType": "bytes",
          "name": "userData",
          "type": "bytes"
        }
      ],
      "name": "makeFlashLoan",
      "outputs": [],
      "stateMutability": "nonpayable",
      "type": "function"
    },
    {
      "inputs": [],
      "name": "poolFee",
      "outputs": [
        {
          "internalType": "uint24",
          "name": "",
          "type": "uint24"
        }
      ],
      "stateMutability": "view",
      "type": "function"
    },
    {
      "inputs": [],
      "name": "quickRouter",
      "outputs": [
        {
          "internalType": "contract ISwapRouter",
          "name": "",
          "type": "address"
        }
      ],
      "stateMutability": "view",
      "type": "function"
    },
    {
      "inputs": [
        {
          "internalType": "contract IERC20[]",
          "name": "tokens",
          "type": "address[]"
        },
        {
          "internalType": "uint256[]",
          "name": "amounts",
          "type": "uint256[]"
        },
        {
          "internalType": "uint256[]",
          "name": "feeAmounts",
          "type": "uint256[]"
        },
        {
          "internalType": "bytes",
          "name": "userData",
          "type": "bytes"
        }
      ],
      "name": "receiveFlashLoan",
      "outputs": [],
      "stateMutability": "nonpayable",
      "type": "function"
    },
    {
      "inputs": [
        {
          "internalType": "address",
          "name": "tokenIn",
          "type": "address"
        },
        {
          "internalType": "address",
          "name": "tokenOut",
          "type": "address"
        },
        {
          "internalType": "uint256",
          "name": "amountIn",
          "type": "uint256"
        },
        {
          "internalType": "uint256",
          "name": "amountOutMin",
          "type": "uint256"
        },
        {
          "internalType": "address",
          "name": "router",
          "type": "address"
        }
      ],
      "name": "swapExactInputSingle",
      "outputs": [
        {
          "internalType": "uint256",
          "name": "amountOut",
          "type": "uint256"
        }
      ],
      "stateMutability": "nonpayable",
      "type": "function"
    },
    {
      "inputs": [
        {
          "internalType": "address",
          "name": "tokenIn",
          "type": "address"
        },
        {
          "internalType": "address",
          "name": "tokenOut",
          "type": "address"
        },
        {
          "internalType": "uint256",
          "name": "amountOut",
          "type": "uint256"
        },
        {
          "internalType": "uint256",
          "name": "amountInMaximum",
          "type": "uint256"
        },
        {
          "internalType": "address",
          "name": "router",
          "type": "address"
        }
      ],
      "name": "swapExactOutputSingle",
      "outputs": [
        {
          "internalType": "uint256",
          "name": "amountIn",
          "type": "uint256"
        }
      ],
      "stateMutability": "nonpayable",
      "type": "function"
    },
    {
      "inputs": [],
      "name": "uniRouter",
      "outputs": [
        {
          "internalType": "contract ISwapRouter",
          "name": "",
          "type": "address"
        }
      ],
      "stateMutability": "view",
      "type": "function"
    }
  ],
  "bytecode": {
    "object": "0x6080604052600180546001600160a01b031990811673f5b509bb0909a69b1c207e495f687a596c168e12179091556002805490911673e592427a0aece92de3edee1f18e0157c0586156417905534801561005857600080fd5b50600080546001600160a01b03191673ba12222222228d8ba445958a75a0704d566bf2c8179055610eb18061008e6000396000f3fe608060405234801561001057600080fd5b50600436106100885760003560e01c8063ae0ef2c71161005b578063ae0ef2c71461010e578063c9a6956214610121578063eef4548714610136578063f04f2707146101b157600080fd5b8063089fe6aa1461008d57806359953f16146100af5780638d252c62146100d0578063a0e47bf6146100fb575b600080fd5b610096610bb881565b60405162ffffff90911681526020015b60405180910390f35b6100c26100bd36600461085f565b6101c4565b6040519081526020016100a6565b6001546100e3906001600160a01b031681565b6040516001600160a01b0390911681526020016100a6565b6002546100e3906001600160a01b031681565b6100c261011c36600461085f565b6102bc565b61013461012f366004610a68565b61037e565b005b6101a4610144366004610af0565b604080516001600160a01b03998a16602082015297891688820152958816606088015293909616608086015260a085019190915260c084015260e08301939093526101008083019390935280518083039093018352610120909101905290565b6040516100a69190610bc0565b6101346101bf366004610bda565b6103eb565b60006101d18683866105fc565b6040805160e0810182526001600160a01b03888116825287811660208301908152308385019081524260608501908152608085018a815261d3e060a08701908152600060c08801908152975163178ca23160e31b8152875187166004820152945186166024860152925185166044850152905160648401525160848301525160a48201529251811660c484015290919084169063bc6511889060e4015b6020604051808303816000875af115801561028d573d6000803e3d6000fd5b505050506040513d601f19601f820116820180604052508101906102b19190610c87565b979650505050505050565b60006102c98683856105fc565b60408051610100810182526001600160a01b03888116825287811660208301908152610bb88385019081523060608501908152426080860190815260a086018b815260c087018b8152600060e089019081529851631b67c43360e31b8152885188166004820152955187166024870152935162ffffff1660448601529151851660648501525160848401525160a48301525160c48201529251811660e484015290919084169063db3e2198906101040161026e565b600054604051632e1c224f60e11b81526001600160a01b0390911690635c38449e906103b4903090879087908790600401610ca0565b600060405180830381600087803b1580156103ce57600080fd5b505af11580156103e2573d6000803e3d6000fd5b50505050505050565b6000546001600160a01b0316331461040257600080fd5b60008060008060008060008061041789610700565b975097509750975097509750975097506000876001600160a01b0316630dfe16816040518163ffffffff1660e01b8152600401602060405180830381865afa158015610467573d6000803e3d6000fd5b505050506040513d601f19601f8201168201806040525081019061048b9190610d3c565b90506000886001600160a01b031663d21220a76040518163ffffffff1660e01b8152600401602060405180830381865afa1580156104cd573d6000803e3d6000fd5b505050506040513d601f19601f820116820180604052508101906104f19190610d3c565b90506000886001600160a01b0316630dfe16816040518163ffffffff1660e01b8152600401602060405180830381865afa158015610533573d6000803e3d6000fd5b505050506040513d601f19601f820116820180604052508101906105579190610d3c565b90506105668383888a8f6102bc565b506040516370a0823160e01b81523060048201526105df90839083906001600160a01b038316906370a0823190602401602060405180830381865afa1580156105b3573d6000803e3d6000fd5b505050506040513d601f19601f820116820180604052508101906105d79190610c87565b60008f6101c4565b506105eb8f8f8f61073b565b505050505050505050505050505050565b604080516001600160a01b038481166024830152604480830185905283518084039091018152606490920183526020820180516001600160e01b031663095ea7b360e01b17905291516000928392908716916106589190610d59565b6000604051808303816000865af19150503d8060008114610695576040519150601f19603f3d011682016040523d82523d6000602084013e61069a565b606091505b50915091508180156106c45750805115806106c45750808060200190518101906106c49190610d75565b6106f95760405162461bcd60e51b8152602060048201526002602482015261534160f01b604482015260640160405180910390fd5b5050505050565b600080600080600080600080888060200190518101906107209190610d97565b97509750975097509750975097509750919395975091939597565b60005b83518110156108415783818151811061075957610759610e1d565b60200260200101516001600160a01b031663a9059cbb60008054906101000a90046001600160a01b031684848151811061079557610795610e1d565b60200260200101518685815181106107af576107af610e1d565b60200260200101516107c19190610e49565b6040516001600160e01b031960e085901b1681526001600160a01b03909216600483015260248201526044016020604051808303816000875af115801561080c573d6000803e3d6000fd5b505050506040513d601f19601f820116820180604052508101906108309190610d75565b5061083a81610e62565b905061073e565b50505050565b6001600160a01b038116811461085c57600080fd5b50565b600080600080600060a0868803121561087757600080fd5b853561088281610847565b9450602086013561089281610847565b9350604086013592506060860135915060808601356108b081610847565b809150509295509295909350565b634e487b7160e01b600052604160045260246000fd5b604051601f8201601f1916810167ffffffffffffffff811182821017156108fd576108fd6108be565b604052919050565b600067ffffffffffffffff82111561091f5761091f6108be565b5060051b60200190565b600082601f83011261093a57600080fd5b8135602061094f61094a83610905565b6108d4565b82815260059290921b8401810191818101908684111561096e57600080fd5b8286015b8481101561099257803561098581610847565b8352918301918301610972565b509695505050505050565b600082601f8301126109ae57600080fd5b813560206109be61094a83610905565b82815260059290921b840181019181810190868411156109dd57600080fd5b8286015b8481101561099257803583529183019183016109e1565b600082601f830112610a0957600080fd5b813567ffffffffffffffff811115610a2357610a236108be565b610a36601f8201601f19166020016108d4565b818152846020838601011115610a4b57600080fd5b816020850160208301376000918101602001919091529392505050565b600080600060608486031215610a7d57600080fd5b833567ffffffffffffffff80821115610a9557600080fd5b610aa187838801610929565b94506020860135915080821115610ab757600080fd5b610ac38783880161099d565b93506040860135915080821115610ad957600080fd5b50610ae6868287016109f8565b9150509250925092565b600080600080600080600080610100898b031215610b0d57600080fd5b8835610b1881610847565b97506020890135610b2881610847565b96506040890135610b3881610847565b95506060890135610b4881610847565b979a969950949760808101359660a0820135965060c0820135955060e0909101359350915050565b60005b83811015610b8b578181015183820152602001610b73565b50506000910152565b60008151808452610bac816020860160208601610b70565b601f01601f19169290920160200192915050565b602081526000610bd36020830184610b94565b9392505050565b60008060008060808587031215610bf057600080fd5b843567ffffffffffffffff80821115610c0857600080fd5b610c1488838901610929565b95506020870135915080821115610c2a57600080fd5b610c368883890161099d565b94506040870135915080821115610c4c57600080fd5b610c588883890161099d565b93506060870135915080821115610c6e57600080fd5b50610c7b878288016109f8565b91505092959194509250565b600060208284031215610c9957600080fd5b5051919050565b6001600160a01b0385811682526080602080840182905286519184018290526000928782019290919060a0860190855b81811015610cee578551851683529483019491830191600101610cd0565b5050858103604087015287518082529082019350915080870160005b83811015610d2657815185529382019390820190600101610d0a565b5050505082810360608401526102b18185610b94565b600060208284031215610d4e57600080fd5b8151610bd381610847565b60008251610d6b818460208701610b70565b9190910192915050565b600060208284031215610d8757600080fd5b81518015158114610bd357600080fd5b600080600080600080600080610100898b031215610db457600080fd5b8851610dbf81610847565b60208a0151909850610dd081610847565b60408a0151909750610de181610847565b60608a0151909650610df281610847565b60808a015160a08b015160c08c015160e0909c01519a9d999c50979a91999098919650945092505050565b634e487b7160e01b600052603260045260246000fd5b634e487b7160e01b600052601160045260246000fd5b80820180821115610e5c57610e5c610e33565b92915050565b600060018201610e7457610e74610e33565b506001019056fea26469706673582212200655168570c5a3ed1cec9a33405307a85ef4919d3319a9fe832f3b6ab02dd24e64736f6c63430008150033",
    "linkReferences": {}
  },
  "methodIdentifiers": {
    "encodeUserData(address,address,address,address,uint256,uint256,uint256,uint256)": "eef45487",
    "makeFlashLoan(address[],uint256[],bytes)": "c9a69562",
    "poolFee()": "089fe6aa",
    "quickRouter()": "8d252c62",
    "receiveFlashLoan(address[],uint256[],uint256[],bytes)": "f04f2707",
    "swapExactInputSingle(address,address,uint256,uint256,address)": "59953f16",
    "swapExactOutputSingle(address,address,uint256,uint256,address)": "ae0ef2c7",
    "uniRouter()": "a0e47bf6"
  },
  "id": 29
}