{
  "abi": [
    {
      "inputs": [],
      "stateMutability": "nonpayable",
      "type": "constructor"
    },
    {
      "inputs": [],
      "name": "LINK",
      "outputs": [
        {
          "internalType": "contract IERC20",
          "name": "",
          "type": "address"
        }
      ],
      "stateMutability": "view",
      "type": "function"
    },
    {
      "inputs": [],
      "name": "QUICK",
      "outputs": [
        {
          "internalType": "contract IERC20",
          "name": "",
          "type": "address"
        }
      ],
      "stateMutability": "view",
      "type": "function"
    },
    {
      "inputs": [],
      "name": "TEL",
      "outputs": [
        {
          "internalType": "contract IERC20",
          "name": "",
          "type": "address"
        }
      ],
      "stateMutability": "view",
      "type": "function"
    },
    {
      "inputs": [],
      "name": "USDC",
      "outputs": [
        {
          "internalType": "contract IERC20",
          "name": "",
          "type": "address"
        }
      ],
      "stateMutability": "view",
      "type": "function"
    },
    {
      "inputs": [],
      "name": "WETH",
      "outputs": [
        {
          "internalType": "contract IERC20",
          "name": "",
          "type": "address"
        }
      ],
      "stateMutability": "view",
      "type": "function"
    },
    {
      "inputs": [],
      "name": "WMATIC",
      "outputs": [
        {
          "internalType": "contract IERC20",
          "name": "",
          "type": "address"
        }
      ],
      "stateMutability": "view",
      "type": "function"
    },
    {
      "inputs": [
        {
          "internalType": "address",
          "name": "router1",
          "type": "address"
        },
        {
          "internalType": "address",
          "name": "router2",
          "type": "address"
        },
        {
          "internalType": "uint256",
          "name": "amount1_maxIn",
          "type": "uint256"
        },
        {
          "internalType": "uint256",
          "name": "amount1_out",
          "type": "uint256"
        },
        {
          "internalType": "uint256",
          "name": "amount2_maxIn",
          "type": "uint256"
        },
        {
          "internalType": "uint256",
          "name": "amount2_out",
          "type": "uint256"
        }
      ],
      "name": "encodeUserData",
      "outputs": [
        {
          "internalType": "bytes",
          "name": "",
          "type": "bytes"
        }
      ],
      "stateMutability": "pure",
      "type": "function"
    },
    {
      "inputs": [
        {
          "internalType": "contract IERC20[]",
          "name": "tokens",
          "type": "address[]"
        },
        {
          "internalType": "uint256[]",
          "name": "amounts",
          "type": "uint256[]"
        },
        {
          "internalType": "bytes",
          "name": "userData",
          "type": "bytes"
        }
      ],
      "name": "makeFlashLoan",
      "outputs": [],
      "stateMutability": "nonpayable",
      "type": "function"
    },
    {
      "inputs": [],
      "name": "poolFee",
      "outputs": [
        {
          "internalType": "uint24",
          "name": "",
          "type": "uint24"
        }
      ],
      "stateMutability": "view",
      "type": "function"
    },
    {
      "inputs": [],
      "name": "quickRouter",
      "outputs": [
        {
          "internalType": "contract ISwapRouterQuick",
          "name": "",
          "type": "address"
        }
      ],
      "stateMutability": "view",
      "type": "function"
    },
    {
      "inputs": [
        {
          "internalType": "address",
          "name": "tokenIn",
          "type": "address"
        },
        {
          "internalType": "address",
          "name": "tokenOut",
          "type": "address"
        },
        {
          "internalType": "uint256",
          "name": "amountIn",
          "type": "uint256"
        },
        {
          "internalType": "uint256",
          "name": "amountOutMin",
          "type": "uint256"
        }
      ],
      "name": "quick_swapExactInputSingle",
      "outputs": [
        {
          "internalType": "uint256",
          "name": "amountOut",
          "type": "uint256"
        }
      ],
      "stateMutability": "nonpayable",
      "type": "function"
    },
    {
      "inputs": [
        {
          "internalType": "contract IERC20[]",
          "name": "tokens",
          "type": "address[]"
        },
        {
          "internalType": "uint256[]",
          "name": "amounts",
          "type": "uint256[]"
        },
        {
          "internalType": "uint256[]",
          "name": "feeAmounts",
          "type": "uint256[]"
        },
        {
          "internalType": "bytes",
          "name": "userData",
          "type": "bytes"
        }
      ],
      "name": "receiveFlashLoan",
      "outputs": [],
      "stateMutability": "nonpayable",
      "type": "function"
    },
    {
      "inputs": [
        {
          "internalType": "address",
          "name": "tokenIn",
          "type": "address"
        },
        {
          "internalType": "address",
          "name": "tokenOut",
          "type": "address"
        },
        {
          "internalType": "uint256",
          "name": "amountOut",
          "type": "uint256"
        },
        {
          "internalType": "uint256",
          "name": "amountInMaximum",
          "type": "uint256"
        },
        {
          "internalType": "address",
          "name": "router",
          "type": "address"
        },
        {
          "internalType": "uint24",
          "name": "fee",
          "type": "uint24"
        }
      ],
      "name": "swapExactOutputSingle",
      "outputs": [
        {
          "internalType": "uint256",
          "name": "amountIn",
          "type": "uint256"
        }
      ],
      "stateMutability": "nonpayable",
      "type": "function"
    },
    {
      "inputs": [],
      "name": "uniRouter",
      "outputs": [
        {
          "internalType": "contract ISwapRouter",
          "name": "",
          "type": "address"
        }
      ],
      "stateMutability": "view",
      "type": "function"
    },
    {
      "inputs": [
        {
          "internalType": "address",
          "name": "tokenIn",
          "type": "address"
        },
        {
          "internalType": "address",
          "name": "tokenOut",
          "type": "address"
        },
        {
          "internalType": "uint256",
          "name": "amountIn",
          "type": "uint256"
        },
        {
          "internalType": "uint256",
          "name": "amountOutMin",
          "type": "uint256"
        },
        {
          "internalType": "uint24",
          "name": "fee",
          "type": "uint24"
        }
      ],
      "name": "uniswap_swapExactInputSingle",
      "outputs": [
        {
          "internalType": "uint256",
          "name": "amountOut",
          "type": "uint256"
        }
      ],
      "stateMutability": "nonpayable",
      "type": "function"
    }
  ],
  "bytecode": {
    "object": "0x6080604052600180546001600160a01b031990811673f5b509bb0909a69b1c207e495f687a596c168e12179091556002805490911673e592427a0aece92de3edee1f18e0157c0586156417905534801561005857600080fd5b50600080546001600160a01b031990811673ba12222222228d8ba445958a75a0704d566bf2c817909155600480548216730d500b1d8e8ef31e21c99d1db9a6444d3adf12701790556005805482167353e0bca35ec356bd5dddfebbd1fc0fd03fabad39179055600680548216732791bca1f2de4661ed88a30c99a7a9449aa8417417905560078054821673b5c064f955d8e7f38fe0460c556a72987494ee17179055600380548216737ceb23fd6bc0add59e62ac25578270cff1b9f6191790556008805490911673df7837de1f2fa4631d716cf2502f8b230f1dcc32179055611175806101466000396000f3fe608060405234801561001057600080fd5b50600436106100f55760003560e01c80638d252c6211610097578063c9a6956211610066578063c9a6956214610200578063d365d35214610215578063ee93a5451461027f578063f04f27071461029257600080fd5b80638d252c62146101b4578063a0e47bf6146101c7578063a884103c146101da578063ad5c4648146101ed57600080fd5b80632ba3cec3116100d35780632ba3cec31461015a5780633dbb6bee1461017b5780634d95cad91461018e57806389a30271146101a157600080fd5b8063089fe6aa146100fa578063188672a01461011c5780631b6b6d2314610147575b600080fd5b6101036101f481565b60405162ffffff90911681526020015b60405180910390f35b60075461012f906001600160a01b031681565b6040516001600160a01b039091168152602001610113565b60055461012f906001600160a01b031681565b61016d610168366004610999565b6102a5565b604051908152602001610113565b61016d6101893660046109f7565b6103a6565b60045461012f906001600160a01b031681565b60065461012f906001600160a01b031681565b60015461012f906001600160a01b031681565b60025461012f906001600160a01b031681565b61016d6101e8366004610a52565b610481565b60035461012f906001600160a01b031681565b61021361020e366004610c70565b61054a565b005b610272610223366004610cf8565b604080516001600160a01b03978816602082015295909616858701526060850193909352608084019190915260a083015260c0808301919091528251808303909101815260e090910190915290565b6040516101139190610da1565b60085461012f906001600160a01b031681565b6102136102a0366004610dbb565b6105b7565b6001546000906102c09086906001600160a01b0316856106cd565b6040805160e0810182526001600160a01b038781168252868116602083019081523083850190815242606085019081526080850189815260a08601898152600060c08801908152600154985163178ca23160e31b8152885188166004820152955187166024870152935186166044860152915160648501525160848401525160a483015251821660c48201529192169063bc6511889060e4016020604051808303816000875af1158015610378573d6000803e3d6000fd5b505050506040513d601f19601f8201168201806040525081019061039c9190610e68565b9695505050505050565b6002546000906103c19087906001600160a01b0316866106cd565b60408051610100810182526001600160a01b038089168252878116602083015262ffffff85168284015230606083015242608083015260a0820187905260c08201869052600060e0830152600254925163414bf38960e01b81529192169063414bf38990610433908490600401610e81565b6020604051808303816000875af1158015610452573d6000803e3d6000fd5b505050506040513d601f19601f820116820180604052508101906104769190610e68565b979650505050505050565b600061048e8784866106cd565b60408051610100810182526001600160a01b03808a16825288811660208301526101f48284015230606083015242608083015260a0820188905260c08201879052600060e08301529151631b67c43360e31b8152909185169063db3e2198906104fb908490600401610e81565b6020604051808303816000875af115801561051a573d6000803e3d6000fd5b505050506040513d601f19601f8201168201806040525081019061053e9190610e68565b98975050505050505050565b600054604051632e1c224f60e11b81526001600160a01b0390911690635c38449e90610580903090879087908790600401610ef1565b600060405180830381600087803b15801561059a57600080fd5b505af11580156105ae573d6000803e3d6000fd5b50505050505050565b6000546001600160a01b031633146105ce57600080fd5b6000806000806000806105e0876107d1565b600454600654969c50949a5092985090965094509250610630916001600160a01b03918216911685878a61062773ae81fac689a1b4b1e06e7ef4a2ab4cd8ac0a087d610802565b61ffff16610481565b50600654600480546040516370a0823160e01b815230928101929092526106b5926001600160a01b039081169291169082906370a0823190602401602060405180830381865afa158015610688573d6000803e3d6000fd5b505050506040513d601f19601f820116820180604052508101906106ac9190610e68565b846101f46103a6565b506106c18a8a8a610875565b50505050505050505050565b604080516001600160a01b038481166024830152604480830185905283518084039091018152606490920183526020820180516001600160e01b031663095ea7b360e01b17905291516000928392908716916107299190610f8d565b6000604051808303816000865af19150503d8060008114610766576040519150601f19603f3d011682016040523d82523d6000602084013e61076b565b606091505b50915091508180156107955750805115806107955750808060200190518101906107959190610fb9565b6107ca5760405162461bcd60e51b8152602060048201526002602482015261534160f01b604482015260640160405180910390fd5b5050505050565b600080600080600080868060200190518101906107ee9190610fd4565b949c939b5091995097509550909350915050565b600080826001600160a01b031663e76c01e46040518163ffffffff1660e01b815260040160e060405180830381865afa158015610843573d6000803e3d6000fd5b505050506040513d601f19601f820116820180604052508101906108679190611055565b509298975050505050505050565b60005b835181101561097b57838181518110610893576108936110e7565b60200260200101516001600160a01b031663a9059cbb60008054906101000a90046001600160a01b03168484815181106108cf576108cf6110e7565b60200260200101518685815181106108e9576108e96110e7565b60200260200101516108fb9190611113565b6040516001600160e01b031960e085901b1681526001600160a01b03909216600483015260248201526044016020604051808303816000875af1158015610946573d6000803e3d6000fd5b505050506040513d601f19601f8201168201806040525081019061096a9190610fb9565b5061097481611126565b9050610878565b50505050565b6001600160a01b038116811461099657600080fd5b50565b600080600080608085870312156109af57600080fd5b84356109ba81610981565b935060208501356109ca81610981565b93969395505050506040820135916060013590565b803562ffffff811681146109f257600080fd5b919050565b600080600080600060a08688031215610a0f57600080fd5b8535610a1a81610981565b94506020860135610a2a81610981565b93506040860135925060608601359150610a46608087016109df565b90509295509295909350565b60008060008060008060c08789031215610a6b57600080fd5b8635610a7681610981565b95506020870135610a8681610981565b945060408701359350606087013592506080870135610aa481610981565b9150610ab260a088016109df565b90509295509295509295565b634e487b7160e01b600052604160045260246000fd5b604051601f8201601f1916810167ffffffffffffffff81118282101715610afd57610afd610abe565b604052919050565b600067ffffffffffffffff821115610b1f57610b1f610abe565b5060051b60200190565b600082601f830112610b3a57600080fd5b81356020610b4f610b4a83610b05565b610ad4565b8083825260208201915060208460051b870101935086841115610b7157600080fd5b602086015b84811015610b96578035610b8981610981565b8352918301918301610b76565b509695505050505050565b600082601f830112610bb257600080fd5b81356020610bc2610b4a83610b05565b8083825260208201915060208460051b870101935086841115610be457600080fd5b602086015b84811015610b965780358352918301918301610be9565b600082601f830112610c1157600080fd5b813567ffffffffffffffff811115610c2b57610c2b610abe565b610c3e601f8201601f1916602001610ad4565b818152846020838601011115610c5357600080fd5b816020850160208301376000918101602001919091529392505050565b600080600060608486031215610c8557600080fd5b833567ffffffffffffffff80821115610c9d57600080fd5b610ca987838801610b29565b94506020860135915080821115610cbf57600080fd5b610ccb87838801610ba1565b93506040860135915080821115610ce157600080fd5b50610cee86828701610c00565b9150509250925092565b60008060008060008060c08789031215610d1157600080fd5b8635610d1c81610981565b95506020870135610d2c81610981565b95989597505050506040840135936060810135936080820135935060a0909101359150565b60005b83811015610d6c578181015183820152602001610d54565b50506000910152565b60008151808452610d8d816020860160208601610d51565b601f01601f19169290920160200192915050565b602081526000610db46020830184610d75565b9392505050565b60008060008060808587031215610dd157600080fd5b843567ffffffffffffffff80821115610de957600080fd5b610df588838901610b29565b95506020870135915080821115610e0b57600080fd5b610e1788838901610ba1565b94506040870135915080821115610e2d57600080fd5b610e3988838901610ba1565b93506060870135915080821115610e4f57600080fd5b50610e5c87828801610c00565b91505092959194509250565b600060208284031215610e7a57600080fd5b5051919050565b6101008101610eeb828480516001600160a01b03908116835260208083015182169084015260408083015162ffffff16908401526060808301518216908401526080808301519084015260a0828101519084015260c0808301519084015260e09182015116910152565b92915050565b6001600160a01b0385811682526080602080840182905286519184018290526000928782019290919060a0860190855b81811015610f3f578551851683529483019491830191600101610f21565b5050858103604087015287518082529082019350915080870160005b83811015610f7757815185529382019390820190600101610f5b565b5050505082810360608401526104768185610d75565b60008251610f9f818460208701610d51565b9190910192915050565b805180151581146109f257600080fd5b600060208284031215610fcb57600080fd5b610db482610fa9565b60008060008060008060c08789031215610fed57600080fd5b8651610ff881610981565b602088015190965061100981610981565b6040880151606089015160808a015160a0909a0151989b929a5090989097909650945092505050565b805161ffff811681146109f257600080fd5b805160ff811681146109f257600080fd5b600080600080600080600060e0888a03121561107057600080fd5b875161107b81610981565b8097505060208801518060020b811461109357600080fd5b95506110a160408901611032565b94506110af60608901611032565b93506110bd60808901611044565b92506110cb60a08901611044565b91506110d960c08901610fa9565b905092959891949750929550565b634e487b7160e01b600052603260045260246000fd5b634e487b7160e01b600052601160045260246000fd5b80820180821115610eeb57610eeb6110fd565b600060018201611138576111386110fd565b506001019056fea26469706673582212202dc1504f19a8bede712887fdf317ca338ba4837fc6cd680d0258b9b6202af8bf64736f6c63430008170033",
    "linkReferences": {}
  },
  "methodIdentifiers": {
    "LINK()": "1b6b6d23",
    "QUICK()": "188672a0",
    "TEL()": "ee93a545",
    "USDC()": "89a30271",
    "WETH()": "ad5c4648",
    "WMATIC()": "4d95cad9",
    "encodeUserData(address,address,uint256,uint256,uint256,uint256)": "d365d352",
    "makeFlashLoan(address[],uint256[],bytes)": "c9a69562",
    "poolFee()": "089fe6aa",
    "quickRouter()": "8d252c62",
    "quick_swapExactInputSingle(address,address,uint256,uint256)": "2ba3cec3",
    "receiveFlashLoan(address[],uint256[],uint256[],bytes)": "f04f2707",
    "swapExactOutputSingle(address,address,uint256,uint256,address,uint24)": "a884103c",
    "uniRouter()": "a0e47bf6",
    "uniswap_swapExactInputSingle(address,address,uint256,uint256,uint24)": "3dbb6bee"
  },
  "id": 32
}