{
  "abi": [
    {
      "inputs": [],
      "stateMutability": "nonpayable",
      "type": "constructor"
    },
    {
      "anonymous": false,
      "inputs": [
        {
          "indexed": true,
          "internalType": "address",
          "name": "owner",
          "type": "address"
        },
        {
          "indexed": true,
          "internalType": "address",
          "name": "approved",
          "type": "address"
        },
        {
          "indexed": true,
          "internalType": "uint256",
          "name": "tokenId",
          "type": "uint256"
        }
      ],
      "name": "Approval",
      "type": "event"
    },
    {
      "anonymous": false,
      "inputs": [
        {
          "indexed": true,
          "internalType": "address",
          "name": "owner",
          "type": "address"
        },
        {
          "indexed": true,
          "internalType": "address",
          "name": "operator",
          "type": "address"
        },
        {
          "indexed": false,
          "internalType": "bool",
          "name": "approved",
          "type": "bool"
        }
      ],
      "name": "ApprovalForAll",
      "type": "event"
    },
    {
      "anonymous": false,
      "inputs": [
        {
          "indexed": true,
          "internalType": "address",
          "name": "from",
          "type": "address"
        },
        {
          "indexed": true,
          "internalType": "address",
          "name": "to",
          "type": "address"
        },
        {
          "indexed": true,
          "internalType": "uint256",
          "name": "tokenId",
          "type": "uint256"
        }
      ],
      "name": "Transfer",
      "type": "event"
    },
    {
      "inputs": [
        {
          "internalType": "address",
          "name": "to",
          "type": "address"
        },
        {
          "internalType": "uint256",
          "name": "tokenId",
          "type": "uint256"
        }
      ],
      "name": "approve",
      "outputs": [],
      "stateMutability": "nonpayable",
      "type": "function"
    },
    {
      "inputs": [
        {
          "internalType": "address",
          "name": "owner",
          "type": "address"
        }
      ],
      "name": "balanceOf",
      "outputs": [
        {
          "internalType": "uint256",
          "name": "",
          "type": "uint256"
        }
      ],
      "stateMutability": "view",
      "type": "function"
    },
    {
      "inputs": [
        {
          "internalType": "uint256",
          "name": "tokenId",
          "type": "uint256"
        }
      ],
      "name": "getApproved",
      "outputs": [
        {
          "internalType": "address",
          "name": "",
          "type": "address"
        }
      ],
      "stateMutability": "view",
      "type": "function"
    },
    {
      "inputs": [
        {
          "internalType": "address",
          "name": "owner",
          "type": "address"
        },
        {
          "internalType": "address",
          "name": "operator",
          "type": "address"
        }
      ],
      "name": "isApprovedForAll",
      "outputs": [
        {
          "internalType": "bool",
          "name": "",
          "type": "bool"
        }
      ],
      "stateMutability": "view",
      "type": "function"
    },
    {
      "inputs": [],
      "name": "mint",
      "outputs": [],
      "stateMutability": "nonpayable",
      "type": "function"
    },
    {
      "inputs": [],
      "name": "name",
      "outputs": [
        {
          "internalType": "string",
          "name": "",
          "type": "string"
        }
      ],
      "stateMutability": "view",
      "type": "function"
    },
    {
      "inputs": [
        {
          "internalType": "uint256",
          "name": "tokenId",
          "type": "uint256"
        }
      ],
      "name": "ownerOf",
      "outputs": [
        {
          "internalType": "address",
          "name": "",
          "type": "address"
        }
      ],
      "stateMutability": "view",
      "type": "function"
    },
    {
      "inputs": [
        {
          "internalType": "address",
          "name": "from",
          "type": "address"
        },
        {
          "internalType": "address",
          "name": "to",
          "type": "address"
        },
        {
          "internalType": "uint256",
          "name": "tokenId",
          "type": "uint256"
        }
      ],
      "name": "safeTransferFrom",
      "outputs": [],
      "stateMutability": "nonpayable",
      "type": "function"
    },
    {
      "inputs": [
        {
          "internalType": "address",
          "name": "from",
          "type": "address"
        },
        {
          "internalType": "address",
          "name": "to",
          "type": "address"
        },
        {
          "internalType": "uint256",
          "name": "tokenId",
          "type": "uint256"
        },
        {
          "internalType": "bytes",
          "name": "data",
          "type": "bytes"
        }
      ],
      "name": "safeTransferFrom",
      "outputs": [],
      "stateMutability": "nonpayable",
      "type": "function"
    },
    {
      "inputs": [
        {
          "internalType": "address",
          "name": "operator",
          "type": "address"
        },
        {
          "internalType": "bool",
          "name": "approved",
          "type": "bool"
        }
      ],
      "name": "setApprovalForAll",
      "outputs": [],
      "stateMutability": "nonpayable",
      "type": "function"
    },
    {
      "inputs": [
        {
          "internalType": "bytes4",
          "name": "interfaceId",
          "type": "bytes4"
        }
      ],
      "name": "supportsInterface",
      "outputs": [
        {
          "internalType": "bool",
          "name": "",
          "type": "bool"
        }
      ],
      "stateMutability": "view",
      "type": "function"
    },
    {
      "inputs": [],
      "name": "symbol",
      "outputs": [
        {
          "internalType": "string",
          "name": "",
          "type": "string"
        }
      ],
      "stateMutability": "view",
      "type": "function"
    },
    {
      "inputs": [
        {
          "internalType": "uint256",
          "name": "tokenId",
          "type": "uint256"
        }
      ],
      "name": "tokenURI",
      "outputs": [
        {
          "internalType": "string",
          "name": "",
          "type": "string"
        }
      ],
      "stateMutability": "view",
      "type": "function"
    },
    {
      "inputs": [
        {
          "internalType": "address",
          "name": "from",
          "type": "address"
        },
        {
          "internalType": "address",
          "name": "to",
          "type": "address"
        },
        {
          "internalType": "uint256",
          "name": "tokenId",
          "type": "uint256"
        }
      ],
      "name": "transferFrom",
      "outputs": [],
      "stateMutability": "nonpayable",
      "type": "function"
    }
  ],
  "bytecode": {
    "object": "0x60806040523480156200001157600080fd5b5060408051602080820183526000808352835191820190935282815290916200003b83826200056d565b5060016200004a82826200056d565b50620000589150506200005e565b62000743565b6006805490600062000070836200064f565b919050555062000089336006546200008b60201b60201c565b565b620000ad828260405180602001604052806000815250620000b160201b60201c565b5050565b620000bd83836200012d565b620000cc6000848484620002ce565b620001285760405162461bcd60e51b8152602060048201526032602482015260008051602062001b5083398151915260448201527131b2b4bb32b91034b6b83632b6b2b73a32b960711b60648201526084015b60405180910390fd5b505050565b6001600160a01b038216620001855760405162461bcd60e51b815260206004820181905260248201527f4552433732313a206d696e7420746f20746865207a65726f206164647265737360448201526064016200011f565b6000818152600260205260409020546001600160a01b031615620001ec5760405162461bcd60e51b815260206004820152601c60248201527f4552433732313a20746f6b656e20616c7265616479206d696e7465640000000060448201526064016200011f565b620001fc6000838360016200042a565b6000818152600260205260409020546001600160a01b031615620002635760405162461bcd60e51b815260206004820152601c60248201527f4552433732313a20746f6b656e20616c7265616479206d696e7465640000000060448201526064016200011f565b6001600160a01b038216600081815260036020908152604080832080546001019055848352600290915280822080546001600160a01b0319168417905551839291907fddf252ad1be2c89b69c2b068fc378daa952ba7f163c4a11628f55a4df523b3ef908290a45050565b6000620002ef846001600160a01b0316620004ba60201b620006941760201c565b156200041e57604051630a85bd0160e11b81526001600160a01b0385169063150b7a0290620003299033908990889088906004016200066b565b6020604051808303816000875af192505050801562000367575060408051601f3d908101601f191682019092526200036491810190620006de565b60015b62000403573d80801562000398576040519150601f19603f3d011682016040523d82523d6000602084013e6200039d565b606091505b508051600003620003fb5760405162461bcd60e51b8152602060048201526032602482015260008051602062001b5083398151915260448201527131b2b4bb32b91034b6b83632b6b2b73a32b960711b60648201526084016200011f565b805181602001fd5b6001600160e01b031916630a85bd0160e11b14905062000422565b5060015b949350505050565b6001811115620004b4576001600160a01b0384161562000474576001600160a01b038416600090815260036020526040812080548392906200046e90849062000711565b90915550505b6001600160a01b03831615620004b4576001600160a01b03831660009081526003602052604081208054839290620004ae9084906200072d565b90915550505b50505050565b6001600160a01b03163b151590565b634e487b7160e01b600052604160045260246000fd5b600181811c90821680620004f457607f821691505b6020821081036200051557634e487b7160e01b600052602260045260246000fd5b50919050565b601f8211156200012857600081815260208120601f850160051c81016020861015620005445750805b601f850160051c820191505b81811015620005655782815560010162000550565b505050505050565b81516001600160401b03811115620005895762000589620004c9565b620005a1816200059a8454620004df565b846200051b565b602080601f831160018114620005d95760008415620005c05750858301515b600019600386901b1c1916600185901b17855562000565565b600085815260208120601f198616915b828110156200060a57888601518255948401946001909101908401620005e9565b5085821015620006295787850151600019600388901b60f8161c191681555b5050505050600190811b01905550565b634e487b7160e01b600052601160045260246000fd5b60006001820162000664576200066462000639565b5060010190565b600060018060a01b038087168352602081871681850152856040850152608060608501528451915081608085015260005b82811015620006ba5785810182015185820160a0015281016200069c565b5050600060a0828501015260a0601f19601f83011684010191505095945050505050565b600060208284031215620006f157600080fd5b81516001600160e01b0319811681146200070a57600080fd5b9392505050565b8181038181111562000727576200072762000639565b92915050565b8082018082111562000727576200072762000639565b6113fd80620007536000396000f3fe608060405234801561001057600080fd5b50600436106100ea5760003560e01c80636352211e1161008c578063a22cb46511610066578063a22cb465146101d6578063b88d4fde146101e9578063c87b56dd146101fc578063e985e9c51461020f57600080fd5b80636352211e1461019a57806370a08231146101ad57806395d89b41146101ce57600080fd5b8063095ea7b3116100c8578063095ea7b3146101575780631249c58b1461016c57806323b872dd1461017457806342842e0e1461018757600080fd5b806301ffc9a7146100ef57806306fdde0314610117578063081812fc1461012c575b600080fd5b6101026100fd366004610f34565b610222565b60405190151581526020015b60405180910390f35b61011f610274565b60405161010e9190610fa1565b61013f61013a366004610fb4565b610306565b6040516001600160a01b03909116815260200161010e565b61016a610165366004610fe9565b61032d565b005b61016a610447565b61016a610182366004611013565b61046a565b61016a610195366004611013565b61049b565b61013f6101a8366004610fb4565b6104b6565b6101c06101bb36600461104f565b610516565b60405190815260200161010e565b61011f61059c565b61016a6101e436600461106a565b6105ab565b61016a6101f73660046110bc565b6105ba565b61011f61020a366004610fb4565b6105f2565b61010261021d366004611198565b610666565b60006001600160e01b031982166380ac58cd60e01b148061025357506001600160e01b03198216635b5e139f60e01b145b8061026e57506301ffc9a760e01b6001600160e01b03198316145b92915050565b606060008054610283906111cb565b80601f01602080910402602001604051908101604052809291908181526020018280546102af906111cb565b80156102fc5780601f106102d1576101008083540402835291602001916102fc565b820191906000526020600020905b8154815290600101906020018083116102df57829003601f168201915b5050505050905090565b6000610311826106a3565b506000908152600460205260409020546001600160a01b031690565b6000610338826104b6565b9050806001600160a01b0316836001600160a01b0316036103aa5760405162461bcd60e51b815260206004820152602160248201527f4552433732313a20617070726f76616c20746f2063757272656e74206f776e656044820152603960f91b60648201526084015b60405180910390fd5b336001600160a01b03821614806103c657506103c68133610666565b6104385760405162461bcd60e51b815260206004820152603d60248201527f4552433732313a20617070726f76652063616c6c6572206973206e6f7420746f60448201527f6b656e206f776e6572206f7220617070726f76656420666f7220616c6c00000060648201526084016103a1565b6104428383610705565b505050565b600680549060006104578361121b565b919050555061046833600654610773565b565b610474338261078d565b6104905760405162461bcd60e51b81526004016103a190611234565b6104428383836107ec565b610442838383604051806020016040528060008152506105ba565b6000818152600260205260408120546001600160a01b03168061026e5760405162461bcd60e51b8152602060048201526018602482015277115490cdcc8c4e881a5b9d985b1a59081d1bdad95b88125160421b60448201526064016103a1565b60006001600160a01b0382166105805760405162461bcd60e51b815260206004820152602960248201527f4552433732313a2061646472657373207a65726f206973206e6f7420612076616044820152683634b21037bbb732b960b91b60648201526084016103a1565b506001600160a01b031660009081526003602052604090205490565b606060018054610283906111cb565b6105b633838361095d565b5050565b6105c4338361078d565b6105e05760405162461bcd60e51b81526004016103a190611234565b6105ec84848484610a2b565b50505050565b60606105fd826106a3565b600061061460408051602081019091526000815290565b90506000815111610634576040518060200160405280600081525061065f565b8061063e84610a5e565b60405160200161064f929190611281565b6040516020818303038152906040525b9392505050565b6001600160a01b03918216600090815260056020908152604080832093909416825291909152205460ff1690565b6001600160a01b03163b151590565b6000818152600260205260409020546001600160a01b03166107025760405162461bcd60e51b8152602060048201526018602482015277115490cdcc8c4e881a5b9d985b1a59081d1bdad95b88125160421b60448201526064016103a1565b50565b600081815260046020526040902080546001600160a01b0319166001600160a01b038416908117909155819061073a826104b6565b6001600160a01b03167f8c5be1e5ebec7d5bd14f71427d1e84f3dd0314c0f7b2291e5b200ac8c7c3b92560405160405180910390a45050565b6105b6828260405180602001604052806000815250610af1565b600080610799836104b6565b9050806001600160a01b0316846001600160a01b031614806107c057506107c08185610666565b806107e45750836001600160a01b03166107d984610306565b6001600160a01b0316145b949350505050565b826001600160a01b03166107ff826104b6565b6001600160a01b0316146108255760405162461bcd60e51b81526004016103a1906112b0565b6001600160a01b0382166108875760405162461bcd60e51b8152602060048201526024808201527f4552433732313a207472616e7366657220746f20746865207a65726f206164646044820152637265737360e01b60648201526084016103a1565b6108948383836001610b24565b826001600160a01b03166108a7826104b6565b6001600160a01b0316146108cd5760405162461bcd60e51b81526004016103a1906112b0565b600081815260046020908152604080832080546001600160a01b03199081169091556001600160a01b0387811680865260038552838620805460001901905590871680865283862080546001019055868652600290945282852080549092168417909155905184937fddf252ad1be2c89b69c2b068fc378daa952ba7f163c4a11628f55a4df523b3ef91a4505050565b816001600160a01b0316836001600160a01b0316036109be5760405162461bcd60e51b815260206004820152601960248201527f4552433732313a20617070726f766520746f2063616c6c65720000000000000060448201526064016103a1565b6001600160a01b03838116600081815260056020908152604080832094871680845294825291829020805460ff191686151590811790915591519182527f17307eab39ab6107e8899845ad3d59bd9653f200f220920489ca2b5937696c31910160405180910390a3505050565b610a368484846107ec565b610a4284848484610bac565b6105ec5760405162461bcd60e51b81526004016103a1906112f5565b60606000610a6b83610cad565b600101905060008167ffffffffffffffff811115610a8b57610a8b6110a6565b6040519080825280601f01601f191660200182016040528015610ab5576020820181803683370190505b5090508181016020015b600019016f181899199a1a9b1b9c1cb0b131b232b360811b600a86061a8153600a8504945084610abf57509392505050565b610afb8383610d85565b610b086000848484610bac565b6104425760405162461bcd60e51b81526004016103a1906112f5565b60018111156105ec576001600160a01b03841615610b6a576001600160a01b03841660009081526003602052604081208054839290610b64908490611347565b90915550505b6001600160a01b038316156105ec576001600160a01b03831660009081526003602052604081208054839290610ba190849061135a565b909155505050505050565b60006001600160a01b0384163b15610ca257604051630a85bd0160e11b81526001600160a01b0385169063150b7a0290610bf090339089908890889060040161136d565b6020604051808303816000875af1925050508015610c2b575060408051601f3d908101601f19168201909252610c28918101906113aa565b60015b610c88573d808015610c59576040519150601f19603f3d011682016040523d82523d6000602084013e610c5e565b606091505b508051600003610c805760405162461bcd60e51b81526004016103a1906112f5565b805181602001fd5b6001600160e01b031916630a85bd0160e11b1490506107e4565b506001949350505050565b60008072184f03e93ff9f4daa797ed6e38ed64bf6a1f0160401b8310610cec5772184f03e93ff9f4daa797ed6e38ed64bf6a1f0160401b830492506040015b6d04ee2d6d415b85acef81000000008310610d18576d04ee2d6d415b85acef8100000000830492506020015b662386f26fc100008310610d3657662386f26fc10000830492506010015b6305f5e1008310610d4e576305f5e100830492506008015b6127108310610d6257612710830492506004015b60648310610d74576064830492506002015b600a831061026e5760010192915050565b6001600160a01b038216610ddb5760405162461bcd60e51b815260206004820181905260248201527f4552433732313a206d696e7420746f20746865207a65726f206164647265737360448201526064016103a1565b6000818152600260205260409020546001600160a01b031615610e405760405162461bcd60e51b815260206004820152601c60248201527f4552433732313a20746f6b656e20616c7265616479206d696e7465640000000060448201526064016103a1565b610e4e600083836001610b24565b6000818152600260205260409020546001600160a01b031615610eb35760405162461bcd60e51b815260206004820152601c60248201527f4552433732313a20746f6b656e20616c7265616479206d696e7465640000000060448201526064016103a1565b6001600160a01b038216600081815260036020908152604080832080546001019055848352600290915280822080546001600160a01b0319168417905551839291907fddf252ad1be2c89b69c2b068fc378daa952ba7f163c4a11628f55a4df523b3ef908290a45050565b6001600160e01b03198116811461070257600080fd5b600060208284031215610f4657600080fd5b813561065f81610f1e565b60005b83811015610f6c578181015183820152602001610f54565b50506000910152565b60008151808452610f8d816020860160208601610f51565b601f01601f19169290920160200192915050565b60208152600061065f6020830184610f75565b600060208284031215610fc657600080fd5b5035919050565b80356001600160a01b0381168114610fe457600080fd5b919050565b60008060408385031215610ffc57600080fd5b61100583610fcd565b946020939093013593505050565b60008060006060848603121561102857600080fd5b61103184610fcd565b925061103f60208501610fcd565b9150604084013590509250925092565b60006020828403121561106157600080fd5b61065f82610fcd565b6000806040838503121561107d57600080fd5b61108683610fcd565b91506020830135801515811461109b57600080fd5b809150509250929050565b634e487b7160e01b600052604160045260246000fd5b600080600080608085870312156110d257600080fd5b6110db85610fcd565b93506110e960208601610fcd565b925060408501359150606085013567ffffffffffffffff8082111561110d57600080fd5b818701915087601f83011261112157600080fd5b813581811115611133576111336110a6565b604051601f8201601f19908116603f0116810190838211818310171561115b5761115b6110a6565b816040528281528a602084870101111561117457600080fd5b82602086016020830137600060208483010152809550505050505092959194509250565b600080604083850312156111ab57600080fd5b6111b483610fcd565b91506111c260208401610fcd565b90509250929050565b600181811c908216806111df57607f821691505b6020821081036111ff57634e487b7160e01b600052602260045260246000fd5b50919050565b634e487b7160e01b600052601160045260246000fd5b60006001820161122d5761122d611205565b5060010190565b6020808252602d908201527f4552433732313a2063616c6c6572206973206e6f7420746f6b656e206f776e6560408201526c1c881bdc88185c1c1c9bdd9959609a1b606082015260800190565b60008351611293818460208801610f51565b8351908301906112a7818360208801610f51565b01949350505050565b60208082526025908201527f4552433732313a207472616e736665722066726f6d20696e636f72726563742060408201526437bbb732b960d91b606082015260800190565b60208082526032908201527f4552433732313a207472616e7366657220746f206e6f6e20455243373231526560408201527131b2b4bb32b91034b6b83632b6b2b73a32b960711b606082015260800190565b8181038181111561026e5761026e611205565b8082018082111561026e5761026e611205565b6001600160a01b03858116825284166020820152604081018390526080606082018190526000906113a090830184610f75565b9695505050505050565b6000602082840312156113bc57600080fd5b815161065f81610f1e56fea2646970667358221220456ede94fb8939e0dc2a1fc176c1a4dd312f8ef7acec0d6150418e1f04793e1c64736f6c634300081200334552433732313a207472616e7366657220746f206e6f6e204552433732315265",
    "linkReferences": {}
  },
  "methodIdentifiers": {
    "approve(address,uint256)": "095ea7b3",
    "balanceOf(address)": "70a08231",
    "getApproved(uint256)": "081812fc",
    "isApprovedForAll(address,address)": "e985e9c5",
    "mint()": "1249c58b",
    "name()": "06fdde03",
    "ownerOf(uint256)": "6352211e",
    "safeTransferFrom(address,address,uint256)": "42842e0e",
    "safeTransferFrom(address,address,uint256,bytes)": "b88d4fde",
    "setApprovalForAll(address,bool)": "a22cb465",
    "supportsInterface(bytes4)": "01ffc9a7",
    "symbol()": "95d89b41",
    "tokenURI(uint256)": "c87b56dd",
    "transferFrom(address,address,uint256)": "23b872dd"
  },
  "id": 31
}