{
  "abi": [
    {
      "inputs": [],
      "stateMutability": "nonpayable",
      "type": "constructor"
    },
    {
      "inputs": [
        {
          "internalType": "address",
          "name": "router",
          "type": "address"
        },
        {
          "internalType": "address",
          "name": "pool1",
          "type": "address"
        },
        {
          "internalType": "address",
          "name": "pool2",
          "type": "address"
        },
        {
          "internalType": "address",
          "name": "pool3",
          "type": "address"
        },
        {
          "internalType": "uint256",
          "name": "amount1_maxIn",
          "type": "uint256"
        },
        {
          "internalType": "uint256",
          "name": "amount1_out",
          "type": "uint256"
        },
        {
          "internalType": "uint256",
          "name": "amount2_maxIn",
          "type": "uint256"
        },
        {
          "internalType": "uint256",
          "name": "amount2_out",
          "type": "uint256"
        }
      ],
      "name": "encodeUserData",
      "outputs": [
        {
          "internalType": "bytes",
          "name": "",
          "type": "bytes"
        }
      ],
      "stateMutability": "pure",
      "type": "function"
    },
    {
      "inputs": [
        {
          "internalType": "contract IERC20[]",
          "name": "tokens",
          "type": "address[]"
        },
        {
          "internalType": "uint256[]",
          "name": "amounts",
          "type": "uint256[]"
        },
        {
          "internalType": "bytes",
          "name": "userData",
          "type": "bytes"
        }
      ],
      "name": "makeFlashLoan",
      "outputs": [],
      "stateMutability": "nonpayable",
      "type": "function"
    },
    {
      "inputs": [],
      "name": "poolFee",
      "outputs": [
        {
          "internalType": "uint24",
          "name": "",
          "type": "uint24"
        }
      ],
      "stateMutability": "view",
      "type": "function"
    },
    {
      "inputs": [],
      "name": "quickRouter",
      "outputs": [
        {
          "internalType": "contract ISwapRouter",
          "name": "",
          "type": "address"
        }
      ],
      "stateMutability": "view",
      "type": "function"
    },
    {
      "inputs": [
        {
          "internalType": "contract IERC20[]",
          "name": "tokens",
          "type": "address[]"
        },
        {
          "internalType": "uint256[]",
          "name": "amounts",
          "type": "uint256[]"
        },
        {
          "internalType": "uint256[]",
          "name": "feeAmounts",
          "type": "uint256[]"
        },
        {
          "internalType": "bytes",
          "name": "userData",
          "type": "bytes"
        }
      ],
      "name": "receiveFlashLoan",
      "outputs": [],
      "stateMutability": "nonpayable",
      "type": "function"
    },
    {
      "inputs": [
        {
          "internalType": "address",
          "name": "tokenIn",
          "type": "address"
        },
        {
          "internalType": "address",
          "name": "tokenOut",
          "type": "address"
        },
        {
          "internalType": "uint256",
          "name": "amountIn",
          "type": "uint256"
        },
        {
          "internalType": "uint256",
          "name": "amountOutMin",
          "type": "uint256"
        },
        {
          "internalType": "address",
          "name": "router",
          "type": "address"
        }
      ],
      "name": "swapExactInputSingle",
      "outputs": [
        {
          "internalType": "uint256",
          "name": "amountOut",
          "type": "uint256"
        }
      ],
      "stateMutability": "nonpayable",
      "type": "function"
    },
    {
      "inputs": [
        {
          "internalType": "address",
          "name": "tokenIn",
          "type": "address"
        },
        {
          "internalType": "address",
          "name": "tokenOut",
          "type": "address"
        },
        {
          "internalType": "uint256",
          "name": "amountOut",
          "type": "uint256"
        },
        {
          "internalType": "uint256",
          "name": "amountInMaximum",
          "type": "uint256"
        },
        {
          "internalType": "address",
          "name": "router",
          "type": "address"
        }
      ],
      "name": "swapExactOutputSingle",
      "outputs": [
        {
          "internalType": "uint256",
          "name": "amountIn",
          "type": "uint256"
        }
      ],
      "stateMutability": "nonpayable",
      "type": "function"
    },
    {
      "inputs": [],
      "name": "uniRouter",
      "outputs": [
        {
          "internalType": "contract ISwapRouter",
          "name": "",
          "type": "address"
        }
      ],
      "stateMutability": "view",
      "type": "function"
    }
  ],
  "bytecode": {
    "object": "0x6080604052600180546001600160a01b031990811673f5b509bb0909a69b1c207e495f687a596c168e12179091556002805490911673e592427a0aece92de3edee1f18e0157c0586156417905534801561005857600080fd5b50600080546001600160a01b03191673ba12222222228d8ba445958a75a0704d566bf2c8179055610eb58061008e6000396000f3fe608060405234801561001057600080fd5b50600436106100885760003560e01c8063ae0ef2c71161005b578063ae0ef2c71461010e578063c9a6956214610121578063eef4548714610136578063f04f2707146101b157600080fd5b8063089fe6aa1461008d57806359953f16146100af5780638d252c62146100d0578063a0e47bf6146100fb575b600080fd5b610096610bb881565b60405162ffffff90911681526020015b60405180910390f35b6100c26100bd3660046107f9565b6101c4565b6040519081526020016100a6565b6001546100e3906001600160a01b031681565b6040516001600160a01b0390911681526020016100a6565b6002546100e3906001600160a01b031681565b6100c261011c3660046107f9565b610295565b61013461012f366004610a02565b61030f565b005b6101a4610144366004610a8a565b604080516001600160a01b03998a16602082015297891688820152958816606088015293909616608086015260a085019190915260c084015260e08301939093526101008083019390935280518083039093018352610120909101905290565b6040516100a69190610b5a565b6101346101bf366004610b74565b61037c565b60006101d1868386610596565b60408051610100810182526001600160a01b0380891682528781166020830152610bb88284015230606083015242608083015260a08201879052690126091efe6a96c0000060c0830152600060e0830152915163414bf38960e01b8152909184169063414bf38990610247908490600401610c21565b6020604051808303816000875af1158015610266573d6000803e3d6000fd5b505050506040513d601f19601f8201168201806040525081019061028a9190610c91565b979650505050505050565b60006102a2868385610596565b60408051610100810182526001600160a01b0380891682528781166020830152610bb88284015230606083015242608083015260a0820187905260c08201869052600060e08301529151631b67c43360e31b8152909184169063db3e219890610247908490600401610c21565b600054604051632e1c224f60e11b81526001600160a01b0390911690635c38449e90610345903090879087908790600401610caa565b600060405180830381600087803b15801561035f57600080fd5b505af1158015610373573d6000803e3d6000fd5b50505050505050565b6000546001600160a01b0316331461039357600080fd5b6000806000806000806000806103a88961069a565b975097509750975097509750975097506000876001600160a01b0316630dfe16816040518163ffffffff1660e01b8152600401602060405180830381865afa1580156103f8573d6000803e3d6000fd5b505050506040513d601f19601f8201168201806040525081019061041c9190610d46565b90506000886001600160a01b031663d21220a76040518163ffffffff1660e01b8152600401602060405180830381865afa15801561045e573d6000803e3d6000fd5b505050506040513d601f19601f820116820180604052508101906104829190610d46565b90506000886001600160a01b0316630dfe16816040518163ffffffff1660e01b8152600401602060405180830381865afa1580156104c4573d6000803e3d6000fd5b505050506040513d601f19601f820116820180604052508101906104e89190610d46565b90506104f78383888a8f610295565b506040516370a0823160e01b815230600482015261057990839083906001600160a01b038316906370a0823190602401602060405180830381865afa158015610544573d6000803e3d6000fd5b505050506040513d601f19601f820116820180604052508101906105689190610c91565b6901209d57a03d33b000008f6101c4565b506105858f8f8f6106d5565b505050505050505050505050505050565b604080516001600160a01b038481166024830152604480830185905283518084039091018152606490920183526020820180516001600160e01b031663095ea7b360e01b17905291516000928392908716916105f29190610d63565b6000604051808303816000865af19150503d806000811461062f576040519150601f19603f3d011682016040523d82523d6000602084013e610634565b606091505b509150915081801561065e57508051158061065e57508080602001905181019061065e9190610d7f565b6106935760405162461bcd60e51b8152602060048201526002602482015261534160f01b604482015260640160405180910390fd5b5050505050565b600080600080600080600080888060200190518101906106ba9190610da1565b97509750975097509750975097509750919395975091939597565b60005b83518110156107db578381815181106106f3576106f3610e27565b60200260200101516001600160a01b031663a9059cbb60008054906101000a90046001600160a01b031684848151811061072f5761072f610e27565b602002602001015186858151811061074957610749610e27565b602002602001015161075b9190610e53565b6040516001600160e01b031960e085901b1681526001600160a01b03909216600483015260248201526044016020604051808303816000875af11580156107a6573d6000803e3d6000fd5b505050506040513d601f19601f820116820180604052508101906107ca9190610d7f565b506107d481610e66565b90506106d8565b50505050565b6001600160a01b03811681146107f657600080fd5b50565b600080600080600060a0868803121561081157600080fd5b853561081c816107e1565b9450602086013561082c816107e1565b93506040860135925060608601359150608086013561084a816107e1565b809150509295509295909350565b634e487b7160e01b600052604160045260246000fd5b604051601f8201601f1916810167ffffffffffffffff8111828210171561089757610897610858565b604052919050565b600067ffffffffffffffff8211156108b9576108b9610858565b5060051b60200190565b600082601f8301126108d457600080fd5b813560206108e96108e48361089f565b61086e565b82815260059290921b8401810191818101908684111561090857600080fd5b8286015b8481101561092c57803561091f816107e1565b835291830191830161090c565b509695505050505050565b600082601f83011261094857600080fd5b813560206109586108e48361089f565b82815260059290921b8401810191818101908684111561097757600080fd5b8286015b8481101561092c578035835291830191830161097b565b600082601f8301126109a357600080fd5b813567ffffffffffffffff8111156109bd576109bd610858565b6109d0601f8201601f191660200161086e565b8181528460208386010111156109e557600080fd5b816020850160208301376000918101602001919091529392505050565b600080600060608486031215610a1757600080fd5b833567ffffffffffffffff80821115610a2f57600080fd5b610a3b878388016108c3565b94506020860135915080821115610a5157600080fd5b610a5d87838801610937565b93506040860135915080821115610a7357600080fd5b50610a8086828701610992565b9150509250925092565b600080600080600080600080610100898b031215610aa757600080fd5b8835610ab2816107e1565b97506020890135610ac2816107e1565b96506040890135610ad2816107e1565b95506060890135610ae2816107e1565b979a969950949760808101359660a0820135965060c0820135955060e0909101359350915050565b60005b83811015610b25578181015183820152602001610b0d565b50506000910152565b60008151808452610b46816020860160208601610b0a565b601f01601f19169290920160200192915050565b602081526000610b6d6020830184610b2e565b9392505050565b60008060008060808587031215610b8a57600080fd5b843567ffffffffffffffff80821115610ba257600080fd5b610bae888389016108c3565b95506020870135915080821115610bc457600080fd5b610bd088838901610937565b94506040870135915080821115610be657600080fd5b610bf288838901610937565b93506060870135915080821115610c0857600080fd5b50610c1587828801610992565b91505092959194509250565b6101008101610c8b828480516001600160a01b03908116835260208083015182169084015260408083015162ffffff16908401526060808301518216908401526080808301519084015260a0828101519084015260c0808301519084015260e09182015116910152565b92915050565b600060208284031215610ca357600080fd5b5051919050565b6001600160a01b0385811682526080602080840182905286519184018290526000928782019290919060a0860190855b81811015610cf8578551851683529483019491830191600101610cda565b5050858103604087015287518082529082019350915080870160005b83811015610d3057815185529382019390820190600101610d14565b50505050828103606084015261028a8185610b2e565b600060208284031215610d5857600080fd5b8151610b6d816107e1565b60008251610d75818460208701610b0a565b9190910192915050565b600060208284031215610d9157600080fd5b81518015158114610b6d57600080fd5b600080600080600080600080610100898b031215610dbe57600080fd5b8851610dc9816107e1565b60208a0151909850610dda816107e1565b60408a0151909750610deb816107e1565b60608a0151909650610dfc816107e1565b60808a015160a08b015160c08c015160e0909c01519a9d999c50979a91999098919650945092505050565b634e487b7160e01b600052603260045260246000fd5b634e487b7160e01b600052601160045260246000fd5b80820180821115610c8b57610c8b610e3d565b600060018201610e7857610e78610e3d565b506001019056fea26469706673582212202f10620d94b3f9efd66a0f31150e2686673584ce4d43878dd60400ff71d9d87a64736f6c63430008150033",
    "linkReferences": {}
  },
  "methodIdentifiers": {
    "encodeUserData(address,address,address,address,uint256,uint256,uint256,uint256)": "eef45487",
    "makeFlashLoan(address[],uint256[],bytes)": "c9a69562",
    "poolFee()": "089fe6aa",
    "quickRouter()": "8d252c62",
    "receiveFlashLoan(address[],uint256[],uint256[],bytes)": "f04f2707",
    "swapExactInputSingle(address,address,uint256,uint256,address)": "59953f16",
    "swapExactOutputSingle(address,address,uint256,uint256,address)": "ae0ef2c7",
    "uniRouter()": "a0e47bf6"
  },
  "id": 29
}