{
  "abi": [
    {
      "inputs": [],
      "stateMutability": "nonpayable",
      "type": "constructor"
    },
    {
      "anonymous": false,
      "inputs": [
        {
          "indexed": true,
          "internalType": "uint256",
          "name": "dealId",
          "type": "uint256"
        },
        {
          "indexed": true,
          "internalType": "address",
          "name": "lender",
          "type": "address"
        }
      ],
      "name": "CollateralRedeemed",
      "type": "event"
    },
    {
      "anonymous": false,
      "inputs": [
        {
          "indexed": true,
          "internalType": "uint256",
          "name": "dealId",
          "type": "uint256"
        },
        {
          "indexed": true,
          "internalType": "address",
          "name": "lender",
          "type": "address"
        },
        {
          "indexed": true,
          "internalType": "address",
          "name": "borrower",
          "type": "address"
        }
      ],
      "name": "DealAccepted",
      "type": "event"
    },
    {
      "anonymous": false,
      "inputs": [
        {
          "indexed": true,
          "internalType": "uint256",
          "name": "dealId",
          "type": "uint256"
        },
        {
          "indexed": true,
          "internalType": "address",
          "name": "lender",
          "type": "address"
        },
        {
          "indexed": true,
          "internalType": "address",
          "name": "borrower",
          "type": "address"
        }
      ],
      "name": "DealExtended",
      "type": "event"
    },
    {
      "anonymous": false,
      "inputs": [
        {
          "indexed": true,
          "internalType": "uint256",
          "name": "dealId",
          "type": "uint256"
        },
        {
          "indexed": true,
          "internalType": "address",
          "name": "lender",
          "type": "address"
        },
        {
          "indexed": true,
          "internalType": "address",
          "name": "borrower",
          "type": "address"
        }
      ],
      "name": "DealRepaid",
      "type": "event"
    },
    {
      "anonymous": false,
      "inputs": [
        {
          "indexed": true,
          "internalType": "address",
          "name": "lender",
          "type": "address"
        },
        {
          "indexed": false,
          "internalType": "uint256",
          "name": "amount",
          "type": "uint256"
        }
      ],
      "name": "FundDeposit",
      "type": "event"
    },
    {
      "anonymous": false,
      "inputs": [
        {
          "indexed": true,
          "internalType": "address",
          "name": "lender",
          "type": "address"
        },
        {
          "indexed": false,
          "internalType": "uint256",
          "name": "amount",
          "type": "uint256"
        }
      ],
      "name": "FundWithdraw",
      "type": "event"
    },
    {
      "anonymous": false,
      "inputs": [
        {
          "indexed": true,
          "internalType": "address",
          "name": "collection",
          "type": "address"
        },
        {
          "indexed": true,
          "internalType": "address",
          "name": "lender",
          "type": "address"
        },
        {
          "indexed": false,
          "internalType": "uint256",
          "name": "amount",
          "type": "uint256"
        },
        {
          "indexed": false,
          "internalType": "uint256",
          "name": "fee",
          "type": "uint256"
        }
      ],
      "name": "OfferCreated",
      "type": "event"
    },
    {
      "anonymous": false,
      "inputs": [
        {
          "indexed": true,
          "internalType": "address",
          "name": "collection",
          "type": "address"
        },
        {
          "indexed": true,
          "internalType": "address",
          "name": "lender",
          "type": "address"
        }
      ],
      "name": "OfferDeleted",
      "type": "event"
    },
    {
      "anonymous": false,
      "inputs": [
        {
          "indexed": true,
          "internalType": "address",
          "name": "collection",
          "type": "address"
        },
        {
          "indexed": true,
          "internalType": "address",
          "name": "lender",
          "type": "address"
        },
        {
          "indexed": false,
          "internalType": "uint256",
          "name": "amount",
          "type": "uint256"
        },
        {
          "indexed": false,
          "internalType": "uint256",
          "name": "fee",
          "type": "uint256"
        }
      ],
      "name": "OfferEdited",
      "type": "event"
    },
    {
      "inputs": [
        {
          "internalType": "address",
          "name": "collection",
          "type": "address"
        },
        {
          "internalType": "uint256",
          "name": "amount",
          "type": "uint256"
        },
        {
          "internalType": "uint256",
          "name": "fee",
          "type": "uint256"
        }
      ],
      "name": "_createOffer",
      "outputs": [],
      "stateMutability": "nonpayable",
      "type": "function"
    },
    {
      "inputs": [
        {
          "internalType": "address",
          "name": "collection",
          "type": "address"
        },
        {
          "internalType": "uint256",
          "name": "amount",
          "type": "uint256"
        },
        {
          "internalType": "uint256",
          "name": "fee",
          "type": "uint256"
        }
      ],
      "name": "_editOffer",
      "outputs": [],
      "stateMutability": "nonpayable",
      "type": "function"
    },
    {
      "inputs": [
        {
          "internalType": "address",
          "name": "lender",
          "type": "address"
        },
        {
          "internalType": "address",
          "name": "collection",
          "type": "address"
        },
        {
          "internalType": "uint256",
          "name": "tokenId",
          "type": "uint256"
        }
      ],
      "name": "acceptLoan",
      "outputs": [],
      "stateMutability": "payable",
      "type": "function"
    },
    {
      "inputs": [
        {
          "internalType": "uint256",
          "name": "dealId",
          "type": "uint256"
        }
      ],
      "name": "claimCollateral",
      "outputs": [],
      "stateMutability": "nonpayable",
      "type": "function"
    },
    {
      "inputs": [
        {
          "components": [
            {
              "internalType": "address",
              "name": "collection",
              "type": "address"
            },
            {
              "internalType": "uint256",
              "name": "amount",
              "type": "uint256"
            },
            {
              "internalType": "uint256",
              "name": "fee",
              "type": "uint256"
            }
          ],
          "internalType": "struct LendingProtocolMock.OfferBatchObject[]",
          "name": "offers",
          "type": "tuple[]"
        }
      ],
      "name": "createOffers",
      "outputs": [],
      "stateMutability": "payable",
      "type": "function"
    },
    {
      "inputs": [],
      "name": "dealCounter",
      "outputs": [
        {
          "internalType": "uint256",
          "name": "",
          "type": "uint256"
        }
      ],
      "stateMutability": "view",
      "type": "function"
    },
    {
      "inputs": [
        {
          "internalType": "address[]",
          "name": "collections",
          "type": "address[]"
        }
      ],
      "name": "deleteOffers",
      "outputs": [],
      "stateMutability": "nonpayable",
      "type": "function"
    },
    {
      "inputs": [],
      "name": "depositFunds",
      "outputs": [],
      "stateMutability": "payable",
      "type": "function"
    },
    {
      "inputs": [
        {
          "components": [
            {
              "internalType": "address",
              "name": "collection",
              "type": "address"
            },
            {
              "internalType": "uint256",
              "name": "amount",
              "type": "uint256"
            },
            {
              "internalType": "uint256",
              "name": "fee",
              "type": "uint256"
            }
          ],
          "internalType": "struct LendingProtocolMock.OfferBatchObject[]",
          "name": "offers",
          "type": "tuple[]"
        }
      ],
      "name": "editOffers",
      "outputs": [],
      "stateMutability": "nonpayable",
      "type": "function"
    },
    {
      "inputs": [
        {
          "internalType": "uint256",
          "name": "dealId",
          "type": "uint256"
        }
      ],
      "name": "extendLoan",
      "outputs": [],
      "stateMutability": "payable",
      "type": "function"
    },
    {
      "inputs": [
        {
          "internalType": "address",
          "name": "lender",
          "type": "address"
        }
      ],
      "name": "getAdditionalCollaterals",
      "outputs": [
        {
          "internalType": "uint256",
          "name": "additionalCollateral",
          "type": "uint256"
        }
      ],
      "stateMutability": "view",
      "type": "function"
    },
    {
      "inputs": [
        {
          "internalType": "uint256",
          "name": "dealId",
          "type": "uint256"
        }
      ],
      "name": "getDeal",
      "outputs": [
        {
          "components": [
            {
              "internalType": "address",
              "name": "collection",
              "type": "address"
            },
            {
              "internalType": "address",
              "name": "lender",
              "type": "address"
            },
            {
              "internalType": "address",
              "name": "borrower",
              "type": "address"
            },
            {
              "internalType": "uint256",
              "name": "amount",
              "type": "uint256"
            },
            {
              "internalType": "uint256",
              "name": "fee",
              "type": "uint256"
            },
            {
              "internalType": "uint256",
              "name": "expirationDate",
              "type": "uint256"
            },
            {
              "internalType": "uint256",
              "name": "tokenId",
              "type": "uint256"
            },
            {
              "internalType": "uint256",
              "name": "additionalCollateral",
              "type": "uint256"
            },
            {
              "internalType": "bool",
              "name": "extended",
              "type": "bool"
            },
            {
              "internalType": "bool",
              "name": "repaid",
              "type": "bool"
            }
          ],
          "internalType": "struct LendingProtocolMock.Deal",
          "name": "deal",
          "type": "tuple"
        }
      ],
      "stateMutability": "view",
      "type": "function"
    },
    {
      "inputs": [
        {
          "internalType": "address",
          "name": "lender",
          "type": "address"
        }
      ],
      "name": "getFunds",
      "outputs": [
        {
          "internalType": "uint256",
          "name": "funds",
          "type": "uint256"
        }
      ],
      "stateMutability": "view",
      "type": "function"
    },
    {
      "inputs": [
        {
          "internalType": "address",
          "name": "lender",
          "type": "address"
        },
        {
          "internalType": "address",
          "name": "collection",
          "type": "address"
        }
      ],
      "name": "getOffer",
      "outputs": [
        {
          "components": [
            {
              "internalType": "uint256",
              "name": "amount",
              "type": "uint256"
            },
            {
              "internalType": "uint256",
              "name": "fee",
              "type": "uint256"
            }
          ],
          "internalType": "struct LendingProtocolMock.OfferInfo",
          "name": "offer",
          "type": "tuple"
        }
      ],
      "stateMutability": "view",
      "type": "function"
    },
    {
      "inputs": [],
      "name": "increaseCounter",
      "outputs": [],
      "stateMutability": "nonpayable",
      "type": "function"
    },
    {
      "inputs": [
        {
          "internalType": "address",
          "name": "lender",
          "type": "address"
        },
        {
          "internalType": "address",
          "name": "collection",
          "type": "address"
        }
      ],
      "name": "isOfferAvailable",
      "outputs": [
        {
          "internalType": "bool",
          "name": "",
          "type": "bool"
        }
      ],
      "stateMutability": "view",
      "type": "function"
    },
    {
      "inputs": [
        {
          "internalType": "address",
          "name": "",
          "type": "address"
        },
        {
          "internalType": "address",
          "name": "",
          "type": "address"
        },
        {
          "internalType": "uint256",
          "name": "",
          "type": "uint256"
        },
        {
          "internalType": "bytes",
          "name": "",
          "type": "bytes"
        }
      ],
      "name": "onERC721Received",
      "outputs": [
        {
          "internalType": "bytes4",
          "name": "",
          "type": "bytes4"
        }
      ],
      "stateMutability": "pure",
      "type": "function"
    },
    {
      "inputs": [],
      "name": "protocolBalance",
      "outputs": [
        {
          "internalType": "uint256",
          "name": "",
          "type": "uint256"
        }
      ],
      "stateMutability": "view",
      "type": "function"
    },
    {
      "inputs": [],
      "name": "protocolFee",
      "outputs": [
        {
          "internalType": "uint256",
          "name": "",
          "type": "uint256"
        }
      ],
      "stateMutability": "view",
      "type": "function"
    },
    {
      "inputs": [
        {
          "internalType": "uint256",
          "name": "dealId",
          "type": "uint256"
        }
      ],
      "name": "repayLoan",
      "outputs": [],
      "stateMutability": "payable",
      "type": "function"
    },
    {
      "inputs": [
        {
          "internalType": "address",
          "name": "",
          "type": "address"
        }
      ],
      "name": "s_additions",
      "outputs": [
        {
          "internalType": "uint256",
          "name": "",
          "type": "uint256"
        }
      ],
      "stateMutability": "view",
      "type": "function"
    },
    {
      "inputs": [
        {
          "internalType": "uint256",
          "name": "",
          "type": "uint256"
        }
      ],
      "name": "s_deals",
      "outputs": [
        {
          "internalType": "address",
          "name": "collection",
          "type": "address"
        },
        {
          "internalType": "address",
          "name": "lender",
          "type": "address"
        },
        {
          "internalType": "address",
          "name": "borrower",
          "type": "address"
        },
        {
          "internalType": "uint256",
          "name": "amount",
          "type": "uint256"
        },
        {
          "internalType": "uint256",
          "name": "fee",
          "type": "uint256"
        },
        {
          "internalType": "uint256",
          "name": "expirationDate",
          "type": "uint256"
        },
        {
          "internalType": "uint256",
          "name": "tokenId",
          "type": "uint256"
        },
        {
          "internalType": "uint256",
          "name": "additionalCollateral",
          "type": "uint256"
        },
        {
          "internalType": "bool",
          "name": "extended",
          "type": "bool"
        },
        {
          "internalType": "bool",
          "name": "repaid",
          "type": "bool"
        }
      ],
      "stateMutability": "view",
      "type": "function"
    },
    {
      "inputs": [
        {
          "internalType": "address",
          "name": "",
          "type": "address"
        }
      ],
      "name": "s_funds",
      "outputs": [
        {
          "internalType": "uint256",
          "name": "",
          "type": "uint256"
        }
      ],
      "stateMutability": "view",
      "type": "function"
    },
    {
      "inputs": [
        {
          "internalType": "address",
          "name": "",
          "type": "address"
        },
        {
          "internalType": "address",
          "name": "",
          "type": "address"
        }
      ],
      "name": "s_offers",
      "outputs": [
        {
          "internalType": "uint256",
          "name": "amount",
          "type": "uint256"
        },
        {
          "internalType": "uint256",
          "name": "fee",
          "type": "uint256"
        }
      ],
      "stateMutability": "view",
      "type": "function"
    },
    {
      "inputs": [
        {
          "internalType": "uint256",
          "name": "amount",
          "type": "uint256"
        }
      ],
      "name": "withdrawFunds",
      "outputs": [],
      "stateMutability": "nonpayable",
      "type": "function"
    }
  ],
  "bytecode": {
    "object": "0x608060405234801561001057600080fd5b506001600055600a600255611eb48061002a6000396000f3fe6080604052600436106101665760003560e01c8063859c5bf8116100d1578063b49004e91161008a578063cf58aa7b11610064578063cf58aa7b1461055c578063decebbce1461058c578063e2c41dbc146105c2578063eb269031146105ca57600080fd5b8063b49004e9146104f5578063ba6547191461050f578063c49785b41461053c57600080fd5b8063859c5bf8146104245780639416ca78146104445780639466e0ba14610464578063a4b4882814610491578063ab7b1c89146104cc578063b0e21e8a146104df57600080fd5b80635c411784116101235780635c411784146102be57806361e98db81461039b57806365ec4607146103b15780637ace2ac9146103c457806382fd5bac146103d7578063842ba8dd1461040457600080fd5b8063150b7a021461016b578063155dd5ee146101ce578063217328b6146101f0578063230104b8146102145780632b286fcf146102345780635974930e14610288575b600080fd5b34801561017757600080fd5b506101b0610186366004611a5b565b7f150b7a023d4804d13e8c85fb27262cb750cf6ba9f9dd3bb30d90f482ceeb4b1f95945050505050565b6040516001600160e01b031990911681526020015b60405180910390f35b3480156101da57600080fd5b506101ee6101e9366004611af6565b6105dd565b005b3480156101fc57600080fd5b5061020660015481565b6040519081526020016101c5565b34801561022057600080fd5b506101ee61022f366004611b0f565b61070b565b34801561024057600080fd5b5061027361024f366004611b42565b60076020908152600092835260408084209091529082529020805460019091015482565b604080519283526020830191909152016101c5565b34801561029457600080fd5b506102066102a3366004611b75565b6001600160a01b031660009081526006602052604090205490565b3480156102ca57600080fd5b5061033e6102d9366004611af6565b60046020819052600091825260409091208054600182015460028301546003840154948401546005850154600686015460078701546008909701546001600160a01b039687169895871697969094169592939192909160ff808216916101009004168a565b604080516001600160a01b039b8c168152998b1660208b015297909916968801969096526060870194909452608086019290925260a085015260c084015260e08301521515610100820152901515610120820152610140016101c5565b3480156103a757600080fd5b5061020660035481565b6101ee6103bf366004611b97565b610776565b6101ee6103d2366004611af6565b6109e6565b3480156103e357600080fd5b506103f76103f2366004611af6565b610cbc565b6040516101c59190611c0c565b34801561041057600080fd5b506101ee61041f366004611b0f565b610d63565b34801561043057600080fd5b506101ee61043f366004611cc3565b610dc5565b34801561045057600080fd5b506101ee61045f366004611b97565b610e7e565b34801561047057600080fd5b5061020661047f366004611b75565b60066020526000908152604090205481565b34801561049d57600080fd5b506104b16104ac366004611b42565b610f72565b604080518251815260209283015192810192909252016101c5565b6101ee6104da366004611af6565b610fc1565b3480156104eb57600080fd5b5061020660025481565b34801561050157600080fd5b506101ee6001805481019055565b34801561051b57600080fd5b5061020661052a366004611b75565b60056020526000908152604090205481565b34801561054857600080fd5b506101ee610557366004611af6565b6112c4565b34801561056857600080fd5b5061057c610577366004611b42565b61151c565b60405190151581526020016101c5565b34801561059857600080fd5b506102066105a7366004611b75565b6001600160a01b031660009081526005602052604090205490565b6101ee611598565b6101ee6105d8366004611d88565b611643565b6105e5611974565b3360009081526005602052604090205481111561063c5760405162461bcd60e51b815260206004820152601060248201526f4e6f7420656e6f7567682066756e647360801b60448201526064015b60405180910390fd5b604051600090339083908381818185875af1925050503d806000811461067e576040519150601f19603f3d011682016040523d82523d6000602084013e610683565b606091505b50509050806106a45760405162461bcd60e51b815260040161063390611dc4565b33600090815260056020526040812080548492906106c3908490611e09565b909155505060405182815233907fdcbc04a15249e560179846f4ed762c63956382a0d6e4972fa2b4939a184613ca9060200160405180910390a2506107086001600055565b50565b3360008181526007602090815260408083206001600160a01b0388168085529083529281902086815560010185905580518681529182018590527f2bc1483a7748cac8bb414160818fdaea81fa9e8ac6b1948f33fc49286cfff71b91015b60405180910390a3505050565b61077e611974565b60005b818110156109b45782828281811061079b5761079b611e1c565b9050606002016020013560056000336001600160a01b03166001600160a01b0316815260200190815260200160002054346107d69190611e32565b10156107e157600080fd5b8282828181106107f3576107f3611e1c565b9050606002016040013583838381811061080f5761080f611e1c565b905060600201602001351161082357600080fd5b66038d7ea4c6800083838381811061083d5761083d611e1c565b9050606002016020013510158015610877575066038d7ea4c6800083838381811061086a5761086a611e1c565b9050606002016040013510155b61088057600080fd5b336000908152600760205260408120908484848181106108a2576108a2611e1c565b6108b89260206060909202019081019150611b75565b6001600160a01b03168152602081019190915260400160002054156109445761093f8383838181106108ec576108ec611e1c565b6109029260206060909202019081019150611b75565b84848481811061091457610914611e1c565b9050606002016020013585858581811061093057610930611e1c565b9050606002016040013561070b565b6109ac565b6109ac83838381811061095957610959611e1c565b61096f9260206060909202019081019150611b75565b84848481811061098157610981611e1c565b9050606002016020013585858581811061099d5761099d611e1c565b90506060020160400135610d63565b600101610781565b5033600090815260056020526040812080543492906109d4908490611e32565b909155505060016000555050565b5050565b6109ee611974565b600081815260046020818152604080842081516101408101835281546001600160a01b03908116825260018301548116828601526002830154169281019290925260038101546060830152808401546080830152600581015460a0830152600681015460c0830152600781015460e08301526008015460ff808216158015610100808601919091529092041615156101208301529385905291905290610ac95760405162461bcd60e51b815260206004820152601060248201526f105b1c9958591e48195e1d195b99195960821b6044820152606401610633565b6020808201516001600160a01b03908116600090815260078352604080822085519093168252919092528120546060830151811015610b6e57808360600151610b129190611e09565b91506000836080015183610b269190611e32565b9050803414610b685760405162461bcd60e51b815260206004820152600e60248201526d0acc2d8eaca40dad2e6dac2e8c6d60931b6044820152606401610633565b50610bb2565b82608001513414610bb25760405162461bcd60e51b815260206004820152600e60248201526d0acc2d8eaca40dad2e6dac2e8c6d60931b6044820152606401610633565b6020808401516001600160a01b031660009081526006909152604081208054849290610bdf908490611e32565b9091555050600084815260046020526040812060078101849055600501805462093a809290610c0f908490611e32565b909155505060808301516000858152600460209081526040808320600101546001600160a01b03168352600590915281208054909190610c50908490611e32565b90915550506000848152600460209081526040808320600801805460ff1916600117905590850151905133926001600160a01b03929092169187917f55c7b6fe27bc27b1d637ebd2098a739505d9347612a2b78cbf1acdbb253ce3419190a45050506107086001600055565b610cc46119cd565b5060009081526004602081815260409283902083516101408101855281546001600160a01b039081168252600183015481169382019390935260028201549092169382019390935260038301546060820152908201546080820152600582015460a0820152600682015460c0820152600782015460e082015260089091015460ff80821615156101008085019190915290910416151561012082015290565b3360008181526007602090815260408083206001600160a01b0388168085529083529281902086815560010185905580518681529182018590527f1e1a944902b7d587d9352b556127d1316831a4c829cfc46cc2fcb10c8ab538229101610769565b60005b81518110156109e2573360009081526007602052604081208351909190849084908110610df757610df7611e1c565b6020908102919091018101516001600160a01b0316825281019190915260400160009081208181556001015581513390839083908110610e3957610e39611e1c565b60200260200101516001600160a01b03167fc08c2e8fac10182348f806297befd43911057a2caa83ab5fc7668168c6073d5960405160405180910390a3600101610dc8565b60005b81811015610f6d57828282818110610e9b57610e9b611e1c565b90506060020160200135600003610eb157600080fd5b828282818110610ec357610ec3611e1c565b90506060020160400135838383818110610edf57610edf611e1c565b9050606002016020013511610ef357600080fd5b66038d7ea4c68000838383818110610f0d57610f0d611e1c565b9050606002016020013510158015610f47575066038d7ea4c68000838383818110610f3a57610f3a611e1c565b9050606002016040013510155b610f5057600080fd5b610f658383838181106108ec576108ec611e1c565b600101610e81565b505050565b604080518082018252600080825260209182018190526001600160a01b038581168252600783528382209085168252825282902082518084019093528054835260010154908201525b92915050565b610fc9611974565b60008181526004602081815260409283902083516101408101855281546001600160a01b0390811682526001830154811693820193909352600282015490921693820193909352600383015460608201819052918301546080820152600583015460a0820152600683015460c0820152600783015460e082015260089092015460ff808216151561010080860191909152909104161580156101208401526110a45760405162461bcd60e51b815260206004820152600e60248201526d105b1c9958591e481c995c185a5960921b6044820152606401610633565b81604001516001600160a01b0316336001600160a01b0316146110f85760405162461bcd60e51b815260206004820152600c60248201526b2737ba103137b93937bbb2b960a11b6044820152606401610633565b8160a001514211156111365760405162461bcd60e51b8152602060048201526007602482015266115e1c1a5c995960ca1b6044820152606401610633565b80341461117b5760405162461bcd60e51b81526020600482015260136024820152724e6f7420656e6f75676820746f20726570617960681b6044820152606401610633565b6000838152600460209081526040808320600801805461ff00191661010017905560e0850151858301516001600160a01b03168452600690925282208054919290916111c8908490611e09565b909155505060608201516020808401516001600160a01b0316600090815260059091526040812080549091906111ff908490611e32565b9091555050815160c0830151604051632142170760e11b815230600482015233602482015260448101919091526001600160a01b03909116906342842e0e90606401600060405180830381600087803b15801561125b57600080fd5b505af115801561126f573d6000803e3d6000fd5b50505050336001600160a01b031682602001516001600160a01b0316847f8c67bcb9eac6b813ce2c9a97c80deb615914f75d0b488200d90c1f8193cc2b0d60405160405180910390a450506107086001600055565b6112cc611974565b60008181526004602081815260409283902083516101408101855281546001600160a01b039081168252600183015481169382018490526002830154169481019490945260038101546060850152918201546080840152600582015460a0840152600682015460c0840152600782015460e084015260089091015460ff808216151561010080860191909152909104161515610120830152331461139f5760405162461bcd60e51b815260206004820152600a6024820152692737ba103632b73232b960b11b6044820152606401610633565b8060a0015142116113e05760405162461bcd60e51b815260206004820152600b60248201526a139bdd08195e1c1a5c995960aa1b6044820152606401610633565b60e08101513360009081526006602052604081208054909190611404908490611e09565b909155505060e081015160405160009133918381818185875af1925050503d806000811461144e576040519150601f19603f3d011682016040523d82523d6000602084013e611453565b606091505b50509050806114745760405162461bcd60e51b815260040161063390611dc4565b815160c0830151604051632142170760e11b815230600482015233602482015260448101919091526001600160a01b03909116906342842e0e90606401600060405180830381600087803b1580156114cb57600080fd5b505af11580156114df573d6000803e3d6000fd5b50506040513392508591507fa27c52000e35876d2c7b83fcb768cd1330690b917b7ab3b94895b8dab866728a90600090a350506107086001600055565b6001600160a01b0380831660009081526007602090815260408083209385168352928152828220835180850190945280548085526001909101549184018290529192916115699190611e09565b6001600160a01b038516600090815260056020526040902054108015906115905750805115155b949350505050565b600034116115e85760405162461bcd60e51b815260206004820152601e60248201527f56616c75652068617320746f2062652067726561746572207468616e203000006044820152606401610633565b3360009081526005602052604081208054349290611607908490611e32565b909155505060405134815233907f04d1e3db499c88d526b5839da3d76fbdda6fd7310b9aa71a624f2002ef73f95f9060200160405180910390a2565b61164b611974565b6001600160a01b03808416600090815260076020908152604080832093861683529281529082902082518084019093528054808452600190910154918301919091526002546103e89161169e9190611e45565b6116a89190611e5c565b34146116b357600080fd5b6116bd848461151c565b6116ff5760405162461bcd60e51b81526020600482015260136024820152724f66666572206e6f7420617661696c61626c6560681b6044820152606401610633565b61170c6001805481019055565b6117146119cd565b60408101516001600160a01b0316156117655760405162461bcd60e51b815260206004820152601360248201527227b33332b91030b63932b0b23c903a30b5b2b760691b6044820152606401610633565b6001600160a01b038085168252336040830152851660208083019190915282516060830152820151608082015261179f4262093a80611e32565b60a0820190815260c08201848152600180546000908152600460208181526040808420885181546001600160a01b03199081166001600160a01b03928316178355848b015197830180548216988316989098179097559189015160028201805490971692169190911790945560608701516003850155608087015191840191909155935160058301559151600682015560e08401516007820155610100808501516008909201805461012087015161ffff1990911693151561ff0019169390931792151590910291909117905590830151835161187c9190611e09565b604051909150600090339083908381818185875af1925050503d80600081146118c1576040519150601f19603f3d011682016040523d82523d6000602084013e6118c6565b606091505b50509050806118e75760405162461bcd60e51b815260040161063390611dc4565b6001600160a01b0387166000908152600560205260408120805484929061190f908490611e09565b9250508190555034600360008282546119289190611e32565b909155505060015460405133916001600160a01b038a16917fc396021e8ed80b78876c14f5696c767ff229eb9689369af47444c8f10525fbca90600090a450505050610f6d6001600055565b6002600054036119c65760405162461bcd60e51b815260206004820152601f60248201527f5265656e7472616e637947756172643a207265656e7472616e742063616c6c006044820152606401610633565b6002600055565b60405180610140016040528060006001600160a01b0316815260200160006001600160a01b0316815260200160006001600160a01b0316815260200160008152602001600081526020016000815260200160008152602001600081526020016000151581526020016000151581525090565b80356001600160a01b0381168114611a5657600080fd5b919050565b600080600080600060808688031215611a7357600080fd5b611a7c86611a3f565b9450611a8a60208701611a3f565b935060408601359250606086013567ffffffffffffffff80821115611aae57600080fd5b818801915088601f830112611ac257600080fd5b813581811115611ad157600080fd5b896020828501011115611ae357600080fd5b9699959850939650602001949392505050565b600060208284031215611b0857600080fd5b5035919050565b600080600060608486031215611b2457600080fd5b611b2d84611a3f565b95602085013595506040909401359392505050565b60008060408385031215611b5557600080fd5b611b5e83611a3f565b9150611b6c60208401611a3f565b90509250929050565b600060208284031215611b8757600080fd5b611b9082611a3f565b9392505050565b60008060208385031215611baa57600080fd5b823567ffffffffffffffff80821115611bc257600080fd5b818501915085601f830112611bd657600080fd5b813581811115611be557600080fd5b866020606083028501011115611bfa57600080fd5b60209290920196919550909350505050565b81516001600160a01b0316815261014081016020830151611c3860208401826001600160a01b03169052565b506040830151611c5360408401826001600160a01b03169052565b50606083015160608301526080830151608083015260a083015160a083015260c083015160c083015260e083015160e083015261010080840151611c9a8285018215159052565b5050610120928301511515919092015290565b634e487b7160e01b600052604160045260246000fd5b60006020808385031215611cd657600080fd5b823567ffffffffffffffff80821115611cee57600080fd5b818501915085601f830112611d0257600080fd5b813581811115611d1457611d14611cad565b8060051b604051601f19603f83011681018181108582111715611d3957611d39611cad565b604052918252848201925083810185019188831115611d5757600080fd5b938501935b82851015611d7c57611d6d85611a3f565b84529385019392850192611d5c565b98975050505050505050565b600080600060608486031215611d9d57600080fd5b611da684611a3f565b9250611db460208501611a3f565b9150604084013590509250925092565b6020808252601590820152744661696c656420746f2073656e642065746865722160581b604082015260600190565b634e487b7160e01b600052601160045260246000fd5b81810381811115610fbb57610fbb611df3565b634e487b7160e01b600052603260045260246000fd5b80820180821115610fbb57610fbb611df3565b8082028115828204841417610fbb57610fbb611df3565b600082611e7957634e487b7160e01b600052601260045260246000fd5b50049056fea26469706673582212202bb6ae18e896469d90c5a3a0a9bcdd051e5332c720333e83bb6b397c1081f57e64736f6c63430008120033",
    "linkReferences": {}
  },
  "methodIdentifiers": {
    "_createOffer(address,uint256,uint256)": "842ba8dd",
    "_editOffer(address,uint256,uint256)": "230104b8",
    "acceptLoan(address,address,uint256)": "eb269031",
    "claimCollateral(uint256)": "c49785b4",
    "createOffers((address,uint256,uint256)[])": "65ec4607",
    "dealCounter()": "217328b6",
    "deleteOffers(address[])": "859c5bf8",
    "depositFunds()": "e2c41dbc",
    "editOffers((address,uint256,uint256)[])": "9416ca78",
    "extendLoan(uint256)": "7ace2ac9",
    "getAdditionalCollaterals(address)": "5974930e",
    "getDeal(uint256)": "82fd5bac",
    "getFunds(address)": "decebbce",
    "getOffer(address,address)": "a4b48828",
    "increaseCounter()": "b49004e9",
    "isOfferAvailable(address,address)": "cf58aa7b",
    "onERC721Received(address,address,uint256,bytes)": "150b7a02",
    "protocolBalance()": "61e98db8",
    "protocolFee()": "b0e21e8a",
    "repayLoan(uint256)": "ab7b1c89",
    "s_additions(address)": "9466e0ba",
    "s_deals(uint256)": "5c411784",
    "s_funds(address)": "ba654719",
    "s_offers(address,address)": "2b286fcf",
    "withdrawFunds(uint256)": "155dd5ee"
  },
  "id": 32
}