{
  "abi": [
    {
      "inputs": [
        {
          "internalType": "string",
          "name": "name",
          "type": "string"
        },
        {
          "internalType": "string",
          "name": "symbol",
          "type": "string"
        }
      ],
      "stateMutability": "nonpayable",
      "type": "constructor"
    },
    {
      "anonymous": false,
      "inputs": [
        {
          "indexed": true,
          "internalType": "address",
          "name": "owner",
          "type": "address"
        },
        {
          "indexed": true,
          "internalType": "address",
          "name": "approved",
          "type": "address"
        },
        {
          "indexed": true,
          "internalType": "uint256",
          "name": "tokenId",
          "type": "uint256"
        }
      ],
      "name": "Approval",
      "type": "event"
    },
    {
      "anonymous": false,
      "inputs": [
        {
          "indexed": true,
          "internalType": "address",
          "name": "owner",
          "type": "address"
        },
        {
          "indexed": true,
          "internalType": "address",
          "name": "operator",
          "type": "address"
        },
        {
          "indexed": false,
          "internalType": "bool",
          "name": "approved",
          "type": "bool"
        }
      ],
      "name": "ApprovalForAll",
      "type": "event"
    },
    {
      "anonymous": false,
      "inputs": [
        {
          "indexed": true,
          "internalType": "address",
          "name": "holder",
          "type": "address"
        },
        {
          "indexed": true,
          "internalType": "uint256",
          "name": "amountClaimed",
          "type": "uint256"
        },
        {
          "indexed": true,
          "internalType": "uint256",
          "name": "tokenId",
          "type": "uint256"
        }
      ],
      "name": "AutoClaimOnTransfer",
      "type": "event"
    },
    {
      "anonymous": false,
      "inputs": [
        {
          "indexed": true,
          "internalType": "address",
          "name": "holder",
          "type": "address"
        },
        {
          "indexed": true,
          "internalType": "uint256",
          "name": "amountClaimed",
          "type": "uint256"
        }
      ],
      "name": "Claimed",
      "type": "event"
    },
    {
      "anonymous": false,
      "inputs": [
        {
          "indexed": true,
          "internalType": "address",
          "name": "from",
          "type": "address"
        },
        {
          "indexed": true,
          "internalType": "address",
          "name": "to",
          "type": "address"
        },
        {
          "indexed": true,
          "internalType": "uint256",
          "name": "tokenId",
          "type": "uint256"
        }
      ],
      "name": "Transfer",
      "type": "event"
    },
    {
      "inputs": [
        {
          "internalType": "address",
          "name": "to",
          "type": "address"
        },
        {
          "internalType": "uint256",
          "name": "tokenId",
          "type": "uint256"
        }
      ],
      "name": "approve",
      "outputs": [],
      "stateMutability": "nonpayable",
      "type": "function"
    },
    {
      "inputs": [
        {
          "internalType": "address",
          "name": "owner",
          "type": "address"
        }
      ],
      "name": "balanceOf",
      "outputs": [
        {
          "internalType": "uint256",
          "name": "",
          "type": "uint256"
        }
      ],
      "stateMutability": "view",
      "type": "function"
    },
    {
      "inputs": [],
      "name": "claim",
      "outputs": [],
      "stateMutability": "nonpayable",
      "type": "function"
    },
    {
      "inputs": [
        {
          "internalType": "uint256",
          "name": "startingIndex",
          "type": "uint256"
        },
        {
          "internalType": "uint256",
          "name": "endingIndex",
          "type": "uint256"
        }
      ],
      "name": "claimInARange",
      "outputs": [],
      "stateMutability": "nonpayable",
      "type": "function"
    },
    {
      "inputs": [],
      "name": "dev",
      "outputs": [
        {
          "internalType": "address",
          "name": "",
          "type": "address"
        }
      ],
      "stateMutability": "view",
      "type": "function"
    },
    {
      "inputs": [],
      "name": "endMintPeriod",
      "outputs": [],
      "stateMutability": "nonpayable",
      "type": "function"
    },
    {
      "inputs": [
        {
          "internalType": "uint256",
          "name": "tokenId",
          "type": "uint256"
        }
      ],
      "name": "getApproved",
      "outputs": [
        {
          "internalType": "address",
          "name": "",
          "type": "address"
        }
      ],
      "stateMutability": "view",
      "type": "function"
    },
    {
      "inputs": [
        {
          "internalType": "address",
          "name": "holder",
          "type": "address"
        }
      ],
      "name": "getRevenueAvailablePerUser",
      "outputs": [
        {
          "internalType": "uint256",
          "name": "",
          "type": "uint256"
        }
      ],
      "stateMutability": "view",
      "type": "function"
    },
    {
      "inputs": [
        {
          "internalType": "uint256",
          "name": "tokenId",
          "type": "uint256"
        }
      ],
      "name": "getRevenueAvalaiblePerToken",
      "outputs": [
        {
          "internalType": "uint256",
          "name": "",
          "type": "uint256"
        }
      ],
      "stateMutability": "view",
      "type": "function"
    },
    {
      "inputs": [
        {
          "internalType": "address",
          "name": "owner",
          "type": "address"
        },
        {
          "internalType": "address",
          "name": "operator",
          "type": "address"
        }
      ],
      "name": "isApprovedForAll",
      "outputs": [
        {
          "internalType": "bool",
          "name": "",
          "type": "bool"
        }
      ],
      "stateMutability": "view",
      "type": "function"
    },
    {
      "inputs": [],
      "name": "maxSupply",
      "outputs": [
        {
          "internalType": "uint256",
          "name": "",
          "type": "uint256"
        }
      ],
      "stateMutability": "view",
      "type": "function"
    },
    {
      "inputs": [],
      "name": "mint",
      "outputs": [],
      "stateMutability": "payable",
      "type": "function"
    },
    {
      "inputs": [],
      "name": "mintEndTime",
      "outputs": [
        {
          "internalType": "uint256",
          "name": "",
          "type": "uint256"
        }
      ],
      "stateMutability": "view",
      "type": "function"
    },
    {
      "inputs": [],
      "name": "mintOngoing",
      "outputs": [
        {
          "internalType": "bool",
          "name": "",
          "type": "bool"
        }
      ],
      "stateMutability": "view",
      "type": "function"
    },
    {
      "inputs": [],
      "name": "mintPrice",
      "outputs": [
        {
          "internalType": "uint256",
          "name": "",
          "type": "uint256"
        }
      ],
      "stateMutability": "view",
      "type": "function"
    },
    {
      "inputs": [],
      "name": "name",
      "outputs": [
        {
          "internalType": "string",
          "name": "",
          "type": "string"
        }
      ],
      "stateMutability": "view",
      "type": "function"
    },
    {
      "inputs": [
        {
          "internalType": "uint256",
          "name": "tokenId",
          "type": "uint256"
        }
      ],
      "name": "ownerOf",
      "outputs": [
        {
          "internalType": "address",
          "name": "",
          "type": "address"
        }
      ],
      "stateMutability": "view",
      "type": "function"
    },
    {
      "inputs": [
        {
          "internalType": "address",
          "name": "from",
          "type": "address"
        },
        {
          "internalType": "address",
          "name": "to",
          "type": "address"
        },
        {
          "internalType": "uint256",
          "name": "tokenId",
          "type": "uint256"
        }
      ],
      "name": "safeTransferFrom",
      "outputs": [],
      "stateMutability": "nonpayable",
      "type": "function"
    },
    {
      "inputs": [
        {
          "internalType": "address",
          "name": "from",
          "type": "address"
        },
        {
          "internalType": "address",
          "name": "to",
          "type": "address"
        },
        {
          "internalType": "uint256",
          "name": "tokenId",
          "type": "uint256"
        },
        {
          "internalType": "bytes",
          "name": "data",
          "type": "bytes"
        }
      ],
      "name": "safeTransferFrom",
      "outputs": [],
      "stateMutability": "nonpayable",
      "type": "function"
    },
    {
      "inputs": [
        {
          "internalType": "address",
          "name": "operator",
          "type": "address"
        },
        {
          "internalType": "bool",
          "name": "approved",
          "type": "bool"
        }
      ],
      "name": "setApprovalForAll",
      "outputs": [],
      "stateMutability": "nonpayable",
      "type": "function"
    },
    {
      "inputs": [],
      "name": "startMintWindow",
      "outputs": [],
      "stateMutability": "nonpayable",
      "type": "function"
    },
    {
      "inputs": [
        {
          "internalType": "bytes4",
          "name": "interfaceId",
          "type": "bytes4"
        }
      ],
      "name": "supportsInterface",
      "outputs": [
        {
          "internalType": "bool",
          "name": "",
          "type": "bool"
        }
      ],
      "stateMutability": "view",
      "type": "function"
    },
    {
      "inputs": [],
      "name": "symbol",
      "outputs": [
        {
          "internalType": "string",
          "name": "",
          "type": "string"
        }
      ],
      "stateMutability": "view",
      "type": "function"
    },
    {
      "inputs": [
        {
          "internalType": "uint256",
          "name": "index",
          "type": "uint256"
        }
      ],
      "name": "tokenByIndex",
      "outputs": [
        {
          "internalType": "uint256",
          "name": "",
          "type": "uint256"
        }
      ],
      "stateMutability": "view",
      "type": "function"
    },
    {
      "inputs": [
        {
          "internalType": "address",
          "name": "owner",
          "type": "address"
        },
        {
          "internalType": "uint256",
          "name": "index",
          "type": "uint256"
        }
      ],
      "name": "tokenOfOwnerByIndex",
      "outputs": [
        {
          "internalType": "uint256",
          "name": "",
          "type": "uint256"
        }
      ],
      "stateMutability": "view",
      "type": "function"
    },
    {
      "inputs": [
        {
          "internalType": "uint256",
          "name": "tokenId",
          "type": "uint256"
        }
      ],
      "name": "tokenURI",
      "outputs": [
        {
          "internalType": "string",
          "name": "",
          "type": "string"
        }
      ],
      "stateMutability": "pure",
      "type": "function"
    },
    {
      "inputs": [],
      "name": "totalRevenue",
      "outputs": [
        {
          "internalType": "uint256",
          "name": "",
          "type": "uint256"
        }
      ],
      "stateMutability": "view",
      "type": "function"
    },
    {
      "inputs": [],
      "name": "totalSupply",
      "outputs": [
        {
          "internalType": "uint256",
          "name": "",
          "type": "uint256"
        }
      ],
      "stateMutability": "view",
      "type": "function"
    },
    {
      "inputs": [
        {
          "internalType": "address",
          "name": "from",
          "type": "address"
        },
        {
          "internalType": "address",
          "name": "to",
          "type": "address"
        },
        {
          "internalType": "uint256",
          "name": "tokenId",
          "type": "uint256"
        }
      ],
      "name": "transferFrom",
      "outputs": [],
      "stateMutability": "nonpayable",
      "type": "function"
    },
    {
      "stateMutability": "payable",
      "type": "receive"
    }
  ],
  "bytecode": {
    "object": "0x60c06040523480156200001157600080fd5b506040516200365338038062003653833981016040819052620000349162000b12565b60016000819055829082906200004b838262000c0a565b5060026200005a828262000c0a565b5050600c80546001600160a01b03191632179055506103e8608052600a60a05260005b6064811015620000b457600c54620000ab906001600160a01b0316620000a583600162000cec565b620000bd565b6001016200007d565b50505062000df6565b60805160095410620001215760405162461bcd60e51b815260206004820152602260248201527f5377696d6368696d70733a204d6178696d756d20737570706c79207265616368604482015261195960f21b60648201526084015b60405180910390fd5b620001488282604051806020016040528060008152506200014c60201b6200117c1760201c565b5050565b620001588383620001c4565b62000167600084848462000365565b620001bf5760405162461bcd60e51b815260206004820152603260248201526000805160206200363383398151915260448201527131b2b4bb32b91034b6b83632b6b2b73a32b960711b606482015260840162000118565b505050565b6001600160a01b0382166200021c5760405162461bcd60e51b815260206004820181905260248201527f4552433732313a206d696e7420746f20746865207a65726f2061646472657373604482015260640162000118565b6000818152600360205260409020546001600160a01b031615620002835760405162461bcd60e51b815260206004820152601c60248201527f4552433732313a20746f6b656e20616c7265616479206d696e74656400000000604482015260640162000118565b62000293600083836001620004c1565b6000818152600360205260409020546001600160a01b031615620002fa5760405162461bcd60e51b815260206004820152601c60248201527f4552433732313a20746f6b656e20616c7265616479206d696e74656400000000604482015260640162000118565b6001600160a01b038216600081815260046020908152604080832080546001019055848352600390915280822080546001600160a01b0319168417905551839291907fddf252ad1be2c89b69c2b068fc378daa952ba7f163c4a11628f55a4df523b3ef908290a45050565b600062000386846001600160a01b0316620004f760201b620011af1760201c565b15620004b557604051630a85bd0160e11b81526001600160a01b0385169063150b7a0290620003c090339089908890889060040162000d08565b6020604051808303816000875af1925050508015620003fe575060408051601f3d908101601f19168201909252620003fb9181019062000d5e565b60015b6200049a573d8080156200042f576040519150601f19603f3d011682016040523d82523d6000602084013e62000434565b606091505b508051600003620004925760405162461bcd60e51b815260206004820152603260248201526000805160206200363383398151915260448201527131b2b4bb32b91034b6b83632b6b2b73a32b960711b606482015260840162000118565b805181602001fd5b6001600160e01b031916630a85bd0160e11b149050620004b9565b5060015b949350505050565b620004da848484846200050660201b620011be1760201c565b600e5460ff16620004f157620004f182856200066a565b50505050565b6001600160a01b03163b151590565b6200051f848484846200073b60201b620012fe1760201c565b6001811115620005985760405162461bcd60e51b815260206004820152603560248201527f455243373231456e756d657261626c653a20636f6e736563757469766520747260448201527f616e7366657273206e6f7420737570706f727465640000000000000000000000606482015260840162000118565b816001600160a01b038516620005f757620005f181600980546000838152600a60205260408120829055600182018355919091527f6e1540171b6c0c960b71a7020d9f60077f6af931a8bbf590da0223dacf75c7af0155565b6200061d565b836001600160a01b0316856001600160a01b0316146200061d576200061d8582620007ca565b6001600160a01b0384166200063d57620006378162000877565b62000663565b846001600160a01b0316846001600160a01b031614620006635762000663848262000931565b5050505050565b6000620006778362000982565b9050801562000707576000826001600160a01b03168260405160006040518083038185875af1925050503d8060008114620006cf576040519150601f19603f3d011682016040523d82523d6000602084013e620006d4565b606091505b50509050801562000705576000848152600f602052604081208054849290620006ff90849062000cec565b90915550505b505b6040518390829033907f475114ff2b14a1d7e3fc6dcf3e5b7505db1574cf812eaca6022fc8f951bd812690600090a4505050565b6001811115620004f1576001600160a01b0384161562000785576001600160a01b038416600090815260046020526040812080548392906200077f90849062000d91565b90915550505b6001600160a01b03831615620004f1576001600160a01b03831660009081526004602052604081208054839290620007bf90849062000cec565b909155505050505050565b60006001620007e484620009bd60201b62000e591760201c565b620007f0919062000d91565b60008381526008602052604090205490915080821462000844576001600160a01b03841660009081526007602090815260408083208584528252808320548484528184208190558352600890915290208190555b5060009182526008602090815260408084208490556001600160a01b039094168352600781528383209183525290812055565b6009546000906200088b9060019062000d91565b6000838152600a602052604081205460098054939450909284908110620008b657620008b662000da7565b906000526020600020015490508060098381548110620008da57620008da62000da7565b6000918252602080832090910192909255828152600a9091526040808220849055858252812055600980548062000915576200091562000dbd565b6001900381819060005260206000200160009055905550505050565b60006200094983620009bd60201b62000e591760201c565b6001600160a01b039093166000908152600760209081526040808320868452825280832085905593825260089052919091209190915550565b6000806200098f60095490565b600b546200099e919062000dd3565b6000848152600f602052604081205491925090620004b9908362000d91565b60006001600160a01b03821662000a295760405162461bcd60e51b815260206004820152602960248201527f4552433732313a2061646472657373207a65726f206973206e6f7420612076616044820152683634b21037bbb732b960b91b606482015260840162000118565b506001600160a01b031660009081526004602052604090205490565b634e487b7160e01b600052604160045260246000fd5b60005b8381101562000a7857818101518382015260200162000a5e565b50506000910152565b600082601f83011262000a9357600080fd5b81516001600160401b038082111562000ab05762000ab062000a45565b604051601f8301601f19908116603f0116810190828211818310171562000adb5762000adb62000a45565b8160405283815286602085880101111562000af557600080fd5b62000b0884602083016020890162000a5b565b9695505050505050565b6000806040838503121562000b2657600080fd5b82516001600160401b038082111562000b3e57600080fd5b62000b4c8683870162000a81565b9350602085015191508082111562000b6357600080fd5b5062000b728582860162000a81565b9150509250929050565b600181811c9082168062000b9157607f821691505b60208210810362000bb257634e487b7160e01b600052602260045260246000fd5b50919050565b601f821115620001bf57600081815260208120601f850160051c8101602086101562000be15750805b601f850160051c820191505b8181101562000c025782815560010162000bed565b505050505050565b81516001600160401b0381111562000c265762000c2662000a45565b62000c3e8162000c37845462000b7c565b8462000bb8565b602080601f83116001811462000c76576000841562000c5d5750858301515b600019600386901b1c1916600185901b17855562000c02565b600085815260208120601f198616915b8281101562000ca75788860151825594840194600190910190840162000c86565b508582101562000cc65787850151600019600388901b60f8161c191681555b5050505050600190811b01905550565b634e487b7160e01b600052601160045260246000fd5b8082018082111562000d025762000d0262000cd6565b92915050565b600060018060a01b03808716835280861660208401525083604083015260806060830152825180608084015262000d478160a085016020870162000a5b565b601f01601f19169190910160a00195945050505050565b60006020828403121562000d7157600080fd5b81516001600160e01b03198116811462000d8a57600080fd5b9392505050565b8181038181111562000d025762000d0262000cd6565b634e487b7160e01b600052603260045260246000fd5b634e487b7160e01b600052603160045260246000fd5b60008262000df157634e487b7160e01b600052601260045260246000fd5b500490565b60805160a0516127fb62000e38600039600081816103d301526107b50152600081816105220152818161081501528181610947015261151e01526127fb6000f3fe6080604052600436106101c65760003560e01c80636352211e116100f7578063a22cb46511610095578063c87b56dd11610064578063c87b56dd146104f0578063d5abeb0114610510578063dbdbe9e214610544578063e985e9c51461056457600080fd5b8063a22cb4651461047a578063a501a5111461049a578063b88d4fde146104ba578063bf2d9e0b146104da57600080fd5b8063717a002b116100d1578063717a002b146104155780637a4249591461042b57806391cca3db1461044557806395d89b411461046557600080fd5b80636352211e146103a15780636817c76c146103c157806370a08231146103f557600080fd5b80632f745c591161016457806342842e0e1161013e57806342842e0e1461032c5780634e2bafa41461034c5780634e71d92d1461036c5780634f6ccce71461038157600080fd5b80632f745c59146102e2578063309d52b6146103025780633dbdaa0f1461031757600080fd5b8063095ea7b3116101a0578063095ea7b3146102795780631249c58b1461029b57806318160ddd146102a357806323b872dd146102c257600080fd5b806301ffc9a7146101ea57806306fdde031461021f578063081812fc1461024157600080fd5b366101e55734600b60008282546101dd91906120c6565b925050819055005b600080fd5b3480156101f657600080fd5b5061020a6102053660046120ef565b6105ad565b60405190151581526020015b60405180910390f35b34801561022b57600080fd5b506102346105d8565b6040516102169190612163565b34801561024d57600080fd5b5061026161025c366004612176565b61066a565b6040516001600160a01b039091168152602001610216565b34801561028557600080fd5b506102996102943660046121ab565b610691565b005b6102996107ab565b3480156102af57600080fd5b506009545b604051908152602001610216565b3480156102ce57600080fd5b506102996102dd3660046121d5565b61098c565b3480156102ee57600080fd5b506102b46102fd3660046121ab565b6109bd565b34801561030e57600080fd5b50610299610a53565b34801561032357600080fd5b50610299610aa7565b34801561033857600080fd5b506102996103473660046121d5565b610b50565b34801561035857600080fd5b506102b4610367366004612211565b610b6b565b34801561037857600080fd5b50610299610bbc565b34801561038d57600080fd5b506102b461039c366004612176565b610d66565b3480156103ad57600080fd5b506102616103bc366004612176565b610df9565b3480156103cd57600080fd5b506102b47f000000000000000000000000000000000000000000000000000000000000000081565b34801561040157600080fd5b506102b4610410366004612211565b610e59565b34801561042157600080fd5b506102b4600d5481565b34801561043757600080fd5b50600e5461020a9060ff1681565b34801561045157600080fd5b50600c54610261906001600160a01b031681565b34801561047157600080fd5b50610234610edf565b34801561048657600080fd5b5061029961049536600461222c565b610eee565b3480156104a657600080fd5b506102996104b5366004612268565b610efd565b3480156104c657600080fd5b506102996104d53660046122a0565b6110db565b3480156104e657600080fd5b506102b4600b5481565b3480156104fc57600080fd5b5061023461050b366004612176565b611113565b34801561051c57600080fd5b506102b47f000000000000000000000000000000000000000000000000000000000000000081565b34801561055057600080fd5b506102b461055f366004612176565b611171565b34801561057057600080fd5b5061020a61057f36600461237c565b6001600160a01b03918216600090815260066020908152604080832093909416825291909152205460ff1690565b60006001600160e01b0319821663780e9d6360e01b14806105d257506105d282611386565b92915050565b6060600180546105e7906123af565b80601f0160208091040260200160405190810160405280929190818152602001828054610613906123af565b80156106605780601f1061063557610100808354040283529160200191610660565b820191906000526020600020905b81548152906001019060200180831161064357829003601f168201915b5050505050905090565b6000610675826113d6565b506000908152600560205260409020546001600160a01b031690565b600061069c82610df9565b9050806001600160a01b0316836001600160a01b03160361070e5760405162461bcd60e51b815260206004820152602160248201527f4552433732313a20617070726f76616c20746f2063757272656e74206f776e656044820152603960f91b60648201526084015b60405180910390fd5b336001600160a01b038216148061072a575061072a813361057f565b61079c5760405162461bcd60e51b815260206004820152603d60248201527f4552433732313a20617070726f76652063616c6c6572206973206e6f7420746f60448201527f6b656e206f776e6572206f7220617070726f76656420666f7220616c6c0000006064820152608401610705565b6107a68383611438565b505050565b6107b36114a6565b7f000000000000000000000000000000000000000000000000000000000000000034146108135760405162461bcd60e51b815260206004820152600e60248201526d125b9d985b1a5908105b5bdd5b9d60921b6044820152606401610705565b7f000000000000000000000000000000000000000000000000000000000000000061083d60095490565b106108745760405162461bcd60e51b815260206004820152600760248201526610d85c081b595d60ca1b6044820152606401610705565b61087c6114ff565b6108b55760405162461bcd60e51b815260206004820152600a602482015269135a5b9d08195b99195960b21b6044820152606401610705565b600c546040516000916001600160a01b03169034908381818185875af1925050503d8060008114610902576040519150601f19603f3d011682016040523d82523d6000602084013e610907565b606091505b50509050806109285760405162461bcd60e51b8152600401610705906123e9565b6109453361093560095490565b6109409060016120c6565b61151c565b7f000000000000000000000000000000000000000000000000000000000000000061096f60095490565b0361097f57600e805460ff191690555b5061098a6001600055565b565b61099633826115b8565b6109b25760405162461bcd60e51b815260040161070590612417565b6107a6838383611637565b60006109c883610e59565b8210610a2a5760405162461bcd60e51b815260206004820152602b60248201527f455243373231456e756d657261626c653a206f776e657220696e646578206f7560448201526a74206f6620626f756e647360a81b6064820152608401610705565b506001600160a01b03919091166000908152600760209081526040808320938352929052205490565b600c546001600160a01b03163314610a9b5760405162461bcd60e51b815260206004820152600b60248201526a139bdd08185b1b1bddd95960aa1b6044820152606401610705565b600e805460ff19169055565b600c546001600160a01b03163314610aef5760405162461bcd60e51b815260206004820152600b60248201526a139bdd08185b1b1bddd95960aa1b6044820152606401610705565b600d5415610b315760405162461bcd60e51b815260206004820152600f60248201526e105b1c9958591e481cdd185c9d1959608a1b6044820152606401610705565b610b3e42620697806120c6565b600d55600e805460ff19166001179055565b6107a6838383604051806020016040528060008152506110db565b60008060005b610b7a84610e59565b811015610bb5576000610b8d85836109bd565b90506000610b9a826117a8565b9050610ba681856120c6565b93508260010192505050610b71565b5092915050565b610bc46114a6565b600e5460ff1615610c095760405162461bcd60e51b815260206004820152600f60248201526e10d85b89dd0818db185a5b481e595d608a1b6044820152606401610705565b6000610c1433610e59565b11610c535760405162461bcd60e51b815260206004820152600f60248201526e139bc81d1bdad95b9cc81bdddb9959608a1b6044820152606401610705565b6000805b610c6033610e59565b811015610cc4576000610c7333836109bd565b90506000610c80826117a8565b9050610c8c81856120c6565b935080600f60008481526020019081526020016000206000828254610cb191906120c6565b909155505060019092019150610c579050565b50604051600090339083908381818185875af1925050503d8060008114610d07576040519150601f19603f3d011682016040523d82523d6000602084013e610d0c565b606091505b5050905080610d2d5760405162461bcd60e51b8152600401610705906123e9565b604051829033907fd8138f8a3f377c5259ca548e70e4c2de94f129f5a11036a15b69513cba2b426a90600090a3505061098a6001600055565b6000610d7160095490565b8210610dd45760405162461bcd60e51b815260206004820152602c60248201527f455243373231456e756d657261626c653a20676c6f62616c20696e646578206f60448201526b7574206f6620626f756e647360a01b6064820152608401610705565b60098281548110610de757610de7612464565b90600052602060002001549050919050565b6000818152600360205260408120546001600160a01b0316806105d25760405162461bcd60e51b8152602060048201526018602482015277115490cdcc8c4e881a5b9d985b1a59081d1bdad95b88125160421b6044820152606401610705565b60006001600160a01b038216610ec35760405162461bcd60e51b815260206004820152602960248201527f4552433732313a2061646472657373207a65726f206973206e6f7420612076616044820152683634b21037bbb732b960b91b6064820152608401610705565b506001600160a01b031660009081526004602052604090205490565b6060600280546105e7906123af565b610ef93383836117de565b5050565b610f056114a6565b600e5460ff1615610f4a5760405162461bcd60e51b815260206004820152600f60248201526e10d85b89dd0818db185a5b481e595d608a1b6044820152606401610705565b6000610f5533610e59565b11610f945760405162461bcd60e51b815260206004820152600f60248201526e139bc81d1bdad95b9cc81bdddb9959608a1b6044820152606401610705565b6000610fa18260016120c6565b610faa33610e59565b1015610fc8576001610fbb33610e59565b610fc5919061247a565b91505b825b610fd58360016120c6565b811015611039576000610fe833836109bd565b90506000610ff5826117a8565b905061100181856120c6565b935080600f6000848152602001908152602001600020600082825461102691906120c6565b909155505060019092019150610fca9050565b50604051600090339083908381818185875af1925050503d806000811461107c576040519150601f19603f3d011682016040523d82523d6000602084013e611081565b606091505b50509050806110a25760405162461bcd60e51b8152600401610705906123e9565b604051829033907fd8138f8a3f377c5259ca548e70e4c2de94f129f5a11036a15b69513cba2b426a90600090a35050610ef96001600055565b6110e533836115b8565b6111015760405162461bcd60e51b815260040161070590612417565b61110d848484846118ac565b50505050565b60606000611120836118df565b604051602001611130919061248d565b604051602081830303815290604052905061114a81611972565b60405160200161115a9190612600565b604051602081830303815290604052915050919050565b60006105d2826117a8565b6111868383611ac5565b6111936000848484611c5e565b6107a65760405162461bcd60e51b815260040161070590612645565b6001600160a01b03163b151590565b6111ca848484846112fe565b60018111156112395760405162461bcd60e51b815260206004820152603560248201527f455243373231456e756d657261626c653a20636f6e7365637574697665207472604482015274185b9cd9995c9cc81b9bdd081cdd5c1c1bdc9d1959605a1b6064820152608401610705565b816001600160a01b0385166112955761129081600980546000838152600a60205260408120829055600182018355919091527f6e1540171b6c0c960b71a7020d9f60077f6af931a8bbf590da0223dacf75c7af0155565b6112b8565b836001600160a01b0316856001600160a01b0316146112b8576112b88582611d5f565b6001600160a01b0384166112d4576112cf81611dfc565b6112f7565b846001600160a01b0316846001600160a01b0316146112f7576112f78482611eab565b5050505050565b600181111561110d576001600160a01b03841615611344576001600160a01b0384166000908152600460205260408120805483929061133e90849061247a565b90915550505b6001600160a01b0383161561110d576001600160a01b0383166000908152600460205260408120805483929061137b9084906120c6565b909155505050505050565b60006001600160e01b031982166380ac58cd60e01b14806113b757506001600160e01b03198216635b5e139f60e01b145b806105d257506301ffc9a760e01b6001600160e01b03198316146105d2565b6000818152600360205260409020546001600160a01b03166114355760405162461bcd60e51b8152602060048201526018602482015277115490cdcc8c4e881a5b9d985b1a59081d1bdad95b88125160421b6044820152606401610705565b50565b600081815260056020526040902080546001600160a01b0319166001600160a01b038416908117909155819061146d82610df9565b6001600160a01b03167f8c5be1e5ebec7d5bd14f71427d1e84f3dd0314c0f7b2291e5b200ac8c7c3b92560405160405180910390a45050565b6002600054036114f85760405162461bcd60e51b815260206004820152601f60248201527f5265656e7472616e637947756172643a207265656e7472616e742063616c6c006044820152606401610705565b6002600055565b600e5460009060ff16156115165750600d54421090565b50600090565b7f000000000000000000000000000000000000000000000000000000000000000061154660095490565b1061159e5760405162461bcd60e51b815260206004820152602260248201527f5377696d6368696d70733a204d6178696d756d20737570706c79207265616368604482015261195960f21b6064820152608401610705565b610ef982826040518060200160405280600081525061117c565b6000806115c483610df9565b9050806001600160a01b0316846001600160a01b0316148061160b57506001600160a01b0380821660009081526006602090815260408083209388168352929052205460ff165b8061162f5750836001600160a01b03166116248461066a565b6001600160a01b0316145b949350505050565b826001600160a01b031661164a82610df9565b6001600160a01b0316146116705760405162461bcd60e51b815260040161070590612697565b6001600160a01b0382166116d25760405162461bcd60e51b8152602060048201526024808201527f4552433732313a207472616e7366657220746f20746865207a65726f206164646044820152637265737360e01b6064820152608401610705565b6116df8383836001611eef565b826001600160a01b03166116f282610df9565b6001600160a01b0316146117185760405162461bcd60e51b815260040161070590612697565b600081815260056020908152604080832080546001600160a01b03199081169091556001600160a01b0387811680865260048552838620805460001901905590871680865283862080546001019055868652600390945282852080549092168417909155905184937fddf252ad1be2c89b69c2b068fc378daa952ba7f163c4a11628f55a4df523b3ef91a4505050565b6000806117b460095490565b600b546117c191906126dc565b6000848152600f60205260408120549192509061162f908361247a565b816001600160a01b0316836001600160a01b03160361183f5760405162461bcd60e51b815260206004820152601960248201527f4552433732313a20617070726f766520746f2063616c6c6572000000000000006044820152606401610705565b6001600160a01b03838116600081815260066020908152604080832094871680845294825291829020805460ff191686151590811790915591519182527f17307eab39ab6107e8899845ad3d59bd9653f200f220920489ca2b5937696c31910160405180910390a3505050565b6118b7848484611637565b6118c384848484611c5e565b61110d5760405162461bcd60e51b815260040161070590612645565b606060006118ec83611f0f565b600101905060008167ffffffffffffffff81111561190c5761190c61228a565b6040519080825280601f01601f191660200182016040528015611936576020820181803683370190505b5090508181016020015b600019016f181899199a1a9b1b9c1cb0b131b232b360811b600a86061a8153600a850494508461194057509392505050565b6060815160000361199157505060408051602081019091526000815290565b600060405180606001604052806040815260200161278660409139905060006003845160026119c091906120c6565b6119ca91906126dc565b6119d59060046126fe565b67ffffffffffffffff8111156119ed576119ed61228a565b6040519080825280601f01601f191660200182016040528015611a17576020820181803683370190505b509050600182016020820185865187015b80821015611a83576003820191508151603f8160121c168501518453600184019350603f81600c1c168501518453600184019350603f8160061c168501518453600184019350603f8116850151845350600183019250611a28565b5050600386510660018114611a9f5760028114611ab257611aba565b603d6001830353603d6002830353611aba565b603d60018303535b509195945050505050565b6001600160a01b038216611b1b5760405162461bcd60e51b815260206004820181905260248201527f4552433732313a206d696e7420746f20746865207a65726f20616464726573736044820152606401610705565b6000818152600360205260409020546001600160a01b031615611b805760405162461bcd60e51b815260206004820152601c60248201527f4552433732313a20746f6b656e20616c7265616479206d696e746564000000006044820152606401610705565b611b8e600083836001611eef565b6000818152600360205260409020546001600160a01b031615611bf35760405162461bcd60e51b815260206004820152601c60248201527f4552433732313a20746f6b656e20616c7265616479206d696e746564000000006044820152606401610705565b6001600160a01b038216600081815260046020908152604080832080546001019055848352600390915280822080546001600160a01b0319168417905551839291907fddf252ad1be2c89b69c2b068fc378daa952ba7f163c4a11628f55a4df523b3ef908290a45050565b60006001600160a01b0384163b15611d5457604051630a85bd0160e11b81526001600160a01b0385169063150b7a0290611ca2903390899088908890600401612715565b6020604051808303816000875af1925050508015611cdd575060408051601f3d908101601f19168201909252611cda91810190612752565b60015b611d3a573d808015611d0b576040519150601f19603f3d011682016040523d82523d6000602084013e611d10565b606091505b508051600003611d325760405162461bcd60e51b815260040161070590612645565b805181602001fd5b6001600160e01b031916630a85bd0160e11b14905061162f565b506001949350505050565b60006001611d6c84610e59565b611d76919061247a565b600083815260086020526040902054909150808214611dc9576001600160a01b03841660009081526007602090815260408083208584528252808320548484528184208190558352600890915290208190555b5060009182526008602090815260408084208490556001600160a01b039094168352600781528383209183525290812055565b600954600090611e0e9060019061247a565b6000838152600a602052604081205460098054939450909284908110611e3657611e36612464565b906000526020600020015490508060098381548110611e5757611e57612464565b6000918252602080832090910192909255828152600a90915260408082208490558582528120556009805480611e8f57611e8f61276f565b6001900381819060005260206000200160009055905550505050565b6000611eb683610e59565b6001600160a01b039093166000908152600760209081526040808320868452825280832085905593825260089052919091209190915550565b611efb848484846111be565b600e5460ff1661110d5761110d8285611fe7565b60008072184f03e93ff9f4daa797ed6e38ed64bf6a1f0160401b8310611f4e5772184f03e93ff9f4daa797ed6e38ed64bf6a1f0160401b830492506040015b6d04ee2d6d415b85acef81000000008310611f7a576d04ee2d6d415b85acef8100000000830492506020015b662386f26fc100008310611f9857662386f26fc10000830492506010015b6305f5e1008310611fb0576305f5e100830492506008015b6127108310611fc457612710830492506004015b60648310611fd6576064830492506002015b600a83106105d25760010192915050565b6000611ff2836117a8565b9050801561207c576000826001600160a01b03168260405160006040518083038185875af1925050503d8060008114612047576040519150601f19603f3d011682016040523d82523d6000602084013e61204c565b606091505b50509050801561207a576000848152600f6020526040812080548492906120749084906120c6565b90915550505b505b6040518390829033907f475114ff2b14a1d7e3fc6dcf3e5b7505db1574cf812eaca6022fc8f951bd812690600090a4505050565b634e487b7160e01b600052601160045260246000fd5b808201808211156105d2576105d26120b0565b6001600160e01b03198116811461143557600080fd5b60006020828403121561210157600080fd5b813561210c816120d9565b9392505050565b60005b8381101561212e578181015183820152602001612116565b50506000910152565b6000815180845261214f816020860160208601612113565b601f01601f19169290920160200192915050565b60208152600061210c6020830184612137565b60006020828403121561218857600080fd5b5035919050565b80356001600160a01b03811681146121a657600080fd5b919050565b600080604083850312156121be57600080fd5b6121c78361218f565b946020939093013593505050565b6000806000606084860312156121ea57600080fd5b6121f38461218f565b92506122016020850161218f565b9150604084013590509250925092565b60006020828403121561222357600080fd5b61210c8261218f565b6000806040838503121561223f57600080fd5b6122488361218f565b91506020830135801515811461225d57600080fd5b809150509250929050565b6000806040838503121561227b57600080fd5b50508035926020909101359150565b634e487b7160e01b600052604160045260246000fd5b600080600080608085870312156122b657600080fd5b6122bf8561218f565b93506122cd6020860161218f565b925060408501359150606085013567ffffffffffffffff808211156122f157600080fd5b818701915087601f83011261230557600080fd5b8135818111156123175761231761228a565b604051601f8201601f19908116603f0116810190838211818310171561233f5761233f61228a565b816040528281528a602084870101111561235857600080fd5b82602086016020830137600060208483010152809550505050505092959194509250565b6000806040838503121561238f57600080fd5b6123988361218f565b91506123a66020840161218f565b90509250929050565b600181811c908216806123c357607f821691505b6020821081036123e357634e487b7160e01b600052602260045260246000fd5b50919050565b6020808252601490820152732330b4b632b2103a379039b2b7321032ba3432b960611b604082015260600190565b6020808252602d908201527f4552433732313a2063616c6c6572206973206e6f7420746f6b656e206f776e6560408201526c1c881bdc88185c1c1c9bdd9959609a1b606082015260800190565b634e487b7160e01b600052603260045260246000fd5b818103818111156105d2576105d26120b0565b607b60f81b815273226e616d65223a20225377696d2050617373202360601b600182015281516000906124c7816015850160208701612113565b61088b60f21b6015918401918201527f22696d616765223a2022697066733a2f2f6261666b726569626573626b37617560178201527f62726e34616f73356a6c78673276707966776b72786e707a706d63716c35783260378201526d189c58d99d9c590dde9e9958488b60921b60578201527f22696d6167655f75726c223a2022697066733a2f2f6261666b7265696265736260658201527f6b37617562726e34616f73356a6c78673276707966776b72786e707a706d63716085820152711b0d5e0c989c58d99d9c590dde9e9958488b60721b60a58201527f226465736372697074696f6e223a2022506c756720796f75722070617373206160b78201527f742068747470733a2f2f7377696d706f6f6c2e6c6f616e20212200000000000060d782015261162f60f18201607d60f81b815260010190565b7f646174613a6170706c69636174696f6e2f6a736f6e3b6261736536342c00000081526000825161263881601d850160208701612113565b91909101601d0192915050565b60208082526032908201527f4552433732313a207472616e7366657220746f206e6f6e20455243373231526560408201527131b2b4bb32b91034b6b83632b6b2b73a32b960711b606082015260800190565b60208082526025908201527f4552433732313a207472616e736665722066726f6d20696e636f72726563742060408201526437bbb732b960d91b606082015260800190565b6000826126f957634e487b7160e01b600052601260045260246000fd5b500490565b80820281158282048414176105d2576105d26120b0565b6001600160a01b038581168252841660208201526040810183905260806060820181905260009061274890830184612137565b9695505050505050565b60006020828403121561276457600080fd5b815161210c816120d9565b634e487b7160e01b600052603160045260246000fdfe4142434445464748494a4b4c4d4e4f505152535455565758595a6162636465666768696a6b6c6d6e6f707172737475767778797a303132333435363738392b2fa26469706673582212209629df4cb9f2e4ed83870ce72de242a876a7a39e9cebf3a3c1bf194d82e6d61464736f6c634300081200334552433732313a207472616e7366657220746f206e6f6e204552433732315265",
    "linkReferences": {}
  },
  "methodIdentifiers": {
    "approve(address,uint256)": "095ea7b3",
    "balanceOf(address)": "70a08231",
    "claim()": "4e71d92d",
    "claimInARange(uint256,uint256)": "a501a511",
    "dev()": "91cca3db",
    "endMintPeriod()": "309d52b6",
    "getApproved(uint256)": "081812fc",
    "getRevenueAvailablePerUser(address)": "4e2bafa4",
    "getRevenueAvalaiblePerToken(uint256)": "dbdbe9e2",
    "isApprovedForAll(address,address)": "e985e9c5",
    "maxSupply()": "d5abeb01",
    "mint()": "1249c58b",
    "mintEndTime()": "717a002b",
    "mintOngoing()": "7a424959",
    "mintPrice()": "6817c76c",
    "name()": "06fdde03",
    "ownerOf(uint256)": "6352211e",
    "safeTransferFrom(address,address,uint256)": "42842e0e",
    "safeTransferFrom(address,address,uint256,bytes)": "b88d4fde",
    "setApprovalForAll(address,bool)": "a22cb465",
    "startMintWindow()": "3dbdaa0f",
    "supportsInterface(bytes4)": "01ffc9a7",
    "symbol()": "95d89b41",
    "tokenByIndex(uint256)": "4f6ccce7",
    "tokenOfOwnerByIndex(address,uint256)": "2f745c59",
    "tokenURI(uint256)": "c87b56dd",
    "totalRevenue()": "bf2d9e0b",
    "totalSupply()": "18160ddd",
    "transferFrom(address,address,uint256)": "23b872dd"
  },
  "id": 15
}