{
  "abi": [
    {
      "inputs": [],
      "stateMutability": "nonpayable",
      "type": "constructor"
    },
    {
      "anonymous": false,
      "inputs": [
        {
          "indexed": true,
          "internalType": "address",
          "name": "poolAddress",
          "type": "address"
        },
        {
          "indexed": true,
          "internalType": "address",
          "name": "owner",
          "type": "address"
        },
        {
          "indexed": true,
          "internalType": "address",
          "name": "collection",
          "type": "address"
        },
        {
          "indexed": false,
          "internalType": "uint256",
          "name": "poolID",
          "type": "uint256"
        }
      ],
      "name": "Pool_Creation",
      "type": "event"
    },
    {
      "inputs": [],
      "name": "_implementationPool",
      "outputs": [
        {
          "internalType": "address",
          "name": "",
          "type": "address"
        }
      ],
      "stateMutability": "view",
      "type": "function"
    },
    {
      "inputs": [],
      "name": "_poolCounter",
      "outputs": [
        {
          "internalType": "uint256",
          "name": "",
          "type": "uint256"
        }
      ],
      "stateMutability": "view",
      "type": "function"
    },
    {
      "inputs": [
        {
          "internalType": "address",
          "name": "collection",
          "type": "address"
        }
      ],
      "name": "createPool",
      "outputs": [],
      "stateMutability": "nonpayable",
      "type": "function"
    },
    {
      "inputs": [
        {
          "internalType": "uint256",
          "name": "poolID",
          "type": "uint256"
        }
      ],
      "name": "getPoolAddress",
      "outputs": [
        {
          "internalType": "address",
          "name": "",
          "type": "address"
        }
      ],
      "stateMutability": "view",
      "type": "function"
    },
    {
      "inputs": [
        {
          "internalType": "address",
          "name": "collectionAddress",
          "type": "address"
        },
        {
          "internalType": "address",
          "name": "from",
          "type": "address"
        },
        {
          "internalType": "uint256",
          "name": "tokenId",
          "type": "uint256"
        }
      ],
      "name": "handleTransfer",
      "outputs": [
        {
          "internalType": "bool",
          "name": "",
          "type": "bool"
        }
      ],
      "stateMutability": "nonpayable",
      "type": "function"
    },
    {
      "inputs": [
        {
          "internalType": "uint256",
          "name": "",
          "type": "uint256"
        }
      ],
      "name": "s_Pool_Address_By_ID",
      "outputs": [
        {
          "internalType": "address",
          "name": "",
          "type": "address"
        }
      ],
      "stateMutability": "view",
      "type": "function"
    },
    {
      "inputs": [
        {
          "internalType": "address",
          "name": "",
          "type": "address"
        }
      ],
      "name": "s_Pool_ID_By_Address",
      "outputs": [
        {
          "internalType": "uint256",
          "name": "",
          "type": "uint256"
        }
      ],
      "stateMutability": "view",
      "type": "function"
    }
  ],
  "bytecode": {
    "object": "0x60a06040526001805534801561001457600080fd5b50600160005560405161002690610054565b604051809103906000f080158015610042573d6000803e3d6000fd5b506001600160a01b0316608052610061565b6119cd806105d383390190565b6080516105516100826000396000818160f5015261026601526105516000f3fe608060405234801561001057600080fd5b506004361061007c5760003560e01c806346197c9a1161005b57806346197c9a146101175780639049f9d21461013a578063a72d34a81461014f578063e1fe16621461016657600080fd5b8062a5ae2114610081578063027ff819146100c7578063285c1321146100f0575b600080fd5b6100aa61008f36600461048d565b6000908152600260205260409020546001600160a01b031690565b6040516001600160a01b0390911681526020015b60405180910390f35b6100aa6100d536600461048d565b6002602052600090815260409020546001600160a01b031681565b6100aa7f000000000000000000000000000000000000000000000000000000000000000081565b61012a6101253660046104bd565b610186565b60405190151581526020016100be565b61014d6101483660046104f9565b610257565b005b61015860015481565b6040519081526020016100be565b6101586101743660046104f9565b60036020526000908152604090205481565b3360009081526003602052604081205481036101d75760405162461bcd60e51b815260206004820152600b60248201526a139bdd08105b1b1bddd95960aa1b60448201526064015b60405180910390fd5b604051635c46a7ef60e11b81526001600160a01b03848116600483015233602483015260448201849052608060648301526000608483015285169063b88d4fde9060a401600060405180830381600087803b15801561023557600080fd5b505af1158015610249573d6000803e3d6000fd5b506001979650505050505050565b61025f61039a565b600061028a7f00000000000000000000000000000000000000000000000000000000000000006103f3565b60018054600090815260026020908152604080832080546001600160a01b0319166001600160a01b038781169182179092559454858552600390935292819020919091555163485cc95560e01b815233600482015290851660248201529192509063485cc95590604401600060405180830381600087803b15801561030e57600080fd5b505af1158015610322573d6000803e3d6000fd5b50505050816001600160a01b0316336001600160a01b0316826001600160a01b03167f04a46e9cae0c40d9ae352d24cfadb8402bc8cc28cf7945ba03b9a889acb6436260015460405161037791815260200190565b60405180910390a461038c6001805481019055565b506103976001600055565b50565b6002600054036103ec5760405162461bcd60e51b815260206004820152601f60248201527f5265656e7472616e637947756172643a207265656e7472616e742063616c6c0060448201526064016101ce565b6002600055565b6000763d602d80600a3d3981f3363d3d373d3d3d363d730000008260601b60e81c176000526e5af43d82803e903d91602b57fd5bf38260781b17602052603760096000f090506001600160a01b0381166104885760405162461bcd60e51b8152602060048201526016602482015275115490cc4c4d8dce8818dc99585d194819985a5b195960521b60448201526064016101ce565b919050565b60006020828403121561049f57600080fd5b5035919050565b80356001600160a01b038116811461048857600080fd5b6000806000606084860312156104d257600080fd5b6104db846104a6565b92506104e9602085016104a6565b9150604084013590509250925092565b60006020828403121561050b57600080fd5b610514826104a6565b939250505056fea2646970667358221220f1a0e551ac22936bdaedf54dafc56ac2d09084749b302290d2f8cae5d5c3962664736f6c63430008120033608060405234801561001057600080fd5b5060016000556119a8806100256000396000f3fe60806040526004361061014f5760003560e01c806372841a69116100b6578063d4cadf681161006f578063d4cadf68146103eb578063dc34b2d514610400578063de8ee99714610420578063e0c5a27714610440578063e2c41dbc146101a3578063fcd802b11461045557600080fd5b806372841a691461032d5780637dfe59cc14610340578063880c904a146103605780639473102c14610380578063b2bdfa7b14610393578063b6e41afc146103cb57600080fd5b806327b1a8e91161010857806327b1a8e91461025857806329b80017146102915780633072cf60146102a757806343d32e9c146102d8578063485cc955146102ed5780634b0b3dc71461030d57600080fd5b8063018a25e81461015b5780630a72298e1461018357806314dca602146101a5578063150b7a02146101ba578063155dd5ee146102185780631da644021461023857600080fd5b3661015657005b600080fd5b34801561016757600080fd5b506101706104c0565b6040519081526020015b60405180910390f35b34801561018f57600080fd5b506101a361019e366004611554565b610521565b005b3480156101b157600080fd5b50610170610601565b3480156101c657600080fd5b506101ff6101d53660046115e5565b7f150b7a023d4804d13e8c85fb27262cb750cf6ba9f9dd3bb30d90f482ceeb4b1f95945050505050565b6040516001600160e01b0319909116815260200161017a565b34801561022457600080fd5b506101a3610233366004611680565b610673565b34801561024457600080fd5b506101a36102533660046116b9565b6106bb565b34801561026457600080fd5b5060075461027c90600160a01b900463ffffffff1681565b60405163ffffffff909116815260200161017a565b34801561029d57600080fd5b5061017060045481565b3480156102b357600080fd5b506007546102c890600160c01b900460ff1681565b604051901515815260200161017a565b3480156102e457600080fd5b50610170610741565b3480156102f957600080fd5b506101a3610308366004611714565b610767565b34801561031957600080fd5b506101a3610328366004611554565b610801565b6101a361033b366004611747565b61085f565b34801561034c57600080fd5b506101a361035b366004611554565b6109d2565b34801561036c57600080fd5b5061017061037b366004611769565b610d6d565b6101a361038e366004611554565b610dd8565b34801561039f57600080fd5b506005546103b3906001600160a01b031681565b6040516001600160a01b03909116815260200161017a565b3480156103d757600080fd5b506007546103b3906001600160a01b031681565b3480156103f757600080fd5b5061017061106f565b34801561040c57600080fd5b506101a361041b366004611680565b61109a565b34801561042c57600080fd5b506006546103b3906001600160a01b031681565b34801561044c57600080fd5b50610170611112565b34801561046157600080fd5b5060015460025460035461048f92919061ffff8082169162010000810490911690600160201b900460ff1685565b60408051958652602086019490945261ffff928316938501939093521660608301521515608082015260a00161017a565b60045460015460025460035460009384936104e9939192909190600160201b900460ff1661122c565b6003549091506103e8906105079062010000900461ffff16836117af565b61051191906117dc565b61051b90826117fe565b91505090565b6005546001600160a01b031633146105545760405162461bcd60e51b815260040161054b90611811565b60405180910390fd5b60005b818110156105fc576007546006546001600160a01b03918216916346197c9a91163386868681811061058b5761058b61183a565b905060200201356040518463ffffffff1660e01b81526004016105b093929190611850565b6020604051808303816000875af11580156105cf573d6000803e3d6000fd5b505050506040513d601f19601f820116820180604052508101906105f39190611874565b50600101610557565b505050565b6006546040516370a0823160e01b81523060048201526000916001600160a01b0316906370a0823190602401602060405180830381865afa15801561064a573d6000803e3d6000fd5b505050506040513d601f19601f8201168201806040525081019061066e9190611898565b905090565b6005546001600160a01b0316331461069d5760405162461bcd60e51b815260040161054b90611811565b6106a561137d565b6106ae816113d6565b6106b86001600055565b50565b6005546001600160a01b031633146106e55760405162461bcd60e51b815260040161054b90611811565b60019490945560029290925560038054931515600160201b0264ff0000ffff1961ffff94851662010000021664ffffffffff199095169490941791909216179190911790556007805463ffffffff60a01b191690556000600455565b60045460015460025460035460009361066e9390929091600160201b900460ff1661122c565b600754600160c01b900460ff16156107b75760405162461bcd60e51b8152602060048201526013602482015272105b1c9958591e481a5b9a5d1a585b1a5e9959606a1b604482015260640161054b565b600580546001600160a01b039384166001600160a01b0319918216179091556006805492909316911617905560078054600164ff0000000160a01b0319163317600160c01b179055565b6005546001600160a01b0316331461082b5760405162461bcd60e51b815260040161054b90611811565b60005b818110156105fc5761085783838381811061084b5761084b61183a565b9050602002013561109a565b60010161082e565b61086761106f565b34146108aa5760405162461bcd60e51b8152602060048201526012602482015271506f6f6c3a2077726f6e67202076616c756560701b604482015260640161054b565b600654604051635c46a7ef60e11b81523060048201523360248201526044810183905260806064820152600060848201526001600160a01b039091169063b88d4fde9060a401600060405180830381600087803b15801561090a57600080fd5b505af115801561091e573d6000803e3d6000fd5b505060075460065460405163230cbe4d60e11b81526001600160a01b0392831694506346197c9a935061095b929091169033908790600401611850565b6020604051808303816000875af115801561097a573d6000803e3d6000fd5b505050506040513d601f19601f8201168201806040525081019061099e9190611874565b506040518290829033907f77f92a1b6a1a11de8ca49515ad4c1fad45632dd3442167d74b90b304a3c7a75890600090a45050565b6109da61137d565b6007546109f5908290600160a01b900463ffffffff166118b1565b60035461ffff161015610a4a5760405162461bcd60e51b815260206004820152601960248201527f506f6f6c3a20627579206f72646572206c696d6974206d657400000000000000604482015260640161054b565b80610a8b5760405162461bcd60e51b8152602060048201526011602482015270506f6f6c3a20656d70747920617272617960781b604482015260640161054b565b6000610a98826001610d6d565b905080471015610ae35760405162461bcd60e51b8152602060048201526016602482015275506f6f6c3a206e6f7420656e6f7567682066756e647360501b604482015260640161054b565b6040805160a0810182526001548152600254602082015260035461ffff8082169383019390935262010000810490921660608201819052600160201b90920460ff1615156080820152906103e890610b3b90846117af565b610b4591906117dc565b610b4f90836117fe565b915060005b83811015610ccc576007546006546001600160a01b03918216916346197c9a911633888886818110610b8857610b8861183a565b905060200201356040518463ffffffff1660e01b8152600401610bad93929190611850565b6020604051808303816000875af1158015610bcc573d6000803e3d6000fd5b505050506040513d601f19601f82011682018060405250810190610bf09190611874565b506000610c0d60045484600001518560200151866080015161122c565b90506103e8836060015161ffff1682610c2691906117af565b610c3091906117dc565b610c3a90826117fe565b905080868684818110610c4f57610c4f61183a565b90506020020135336001600160a01b03167f5e20b821111f8ac8fbb6cdae81a09bdfe78ba4d1065e0b668d28a8f5acfadf7060405160405180910390a450600480546000190190556007805463ffffffff600160a01b808304821660019081019092160263ffffffff60a01b199092169190911790915501610b54565b50604051600090339084908381818185875af1925050503d8060008114610d0f576040519150601f19603f3d011682016040523d82523d6000602084013e610d14565b606091505b5050905080610d5c5760405162461bcd60e51b81526020600482015260146024820152732330b4b632b2103a379039b2b7321022ba3432b960611b604482015260640161054b565b505050610d696001600055565b5050565b6040805160a0810182526001548082526002546020830181905260035461ffff808216958501959095526201000081049094166060840152600160201b90930460ff16151560808301819052600454600094610dce93919288919088611465565b9150505b92915050565b610de061137d565b600154600003610e215760405162461bcd60e51b815260206004820152600c60248201526b4e6f7420666f722073616c6560a01b604482015260640161054b565b80610e625760405162461bcd60e51b8152602060048201526011602482015270139bc81d1bdad95b881cd95b1958dd1959607a1b604482015260640161054b565b6000610e6e8282610d6d565b9050803414610eae5760405162461bcd60e51b815260206004820152600c60248201526b15dc9bdb99c8185b5bdd5b9d60a21b604482015260640161054b565b6040805160a0810182526001548152600254602082015260035461ffff808216938301939093526201000081049092166060820152600160201b90910460ff161515608082015260005b83811015610d5c576006546001600160a01b031663b88d4fde3033888886818110610f2557610f2561183a565b6040516001600160e01b031960e088901b1681526001600160a01b03958616600482015294909316602485015250602090910201356044820152608060648201526000608482015260a401600060405180830381600087803b158015610f8a57600080fd5b505af1158015610f9e573d6000803e3d6000fd5b50505050610fbc60045483600001518460200151856080015161122c565b858583818110610fce57610fce61183a565b90506020020135336001600160a01b03167f5e20b821111f8ac8fbb6cdae81a09bdfe78ba4d1065e0b668d28a8f5acfadf7060405160405180910390a4600754600160a01b900463ffffffff161561105d5760078054600160a01b900463ffffffff1690601461103d836118c4565b91906101000a81548163ffffffff021916908363ffffffff160217905550505b60048054600190810190915501610ef8565b6003546001546000916103e8916110909162010000900461ffff16906117af565b61066e91906117dc565b6110a261137d565b600654604051632142170760e11b81526001600160a01b03909116906342842e0e906110d690309033908690600401611850565b600060405180830381600087803b1580156110f057600080fd5b505af1158015611104573d6000803e3d6000fd5b505050506106b86001600055565b60045460075460035460009283929091600160a01b90910463ffffffff1661ffff9091161080611146575060035461ffff16155b156111545760009250505090565b60075460035460009161117991600160a01b90910463ffffffff169061ffff166118e4565b63ffffffff16905060005b81811015611224576001546002546003546000926111ad928792600160201b900460ff1661122c565b6003549091506103e8906111cb9062010000900461ffff16836117af565b6111d591906117dc565b6111df90826117fe565b9050476111ec82876118b1565b11156111fb5750949350505050565b61120581866118b1565b945061121084611908565b9350508061121d90611925565b9050611184565b509392505050565b60008381611239876114ed565b9050600084156113395760008812156112755761125c86655af3107a40006117af565b61126e90670de0b6b3a76400006117fe565b905061129a565b61128586655af3107a40006117af565b61129790670de0b6b3a76400006118b1565b90505b811561132e57816001166001036112e7576000806112b88584611509565b91509150816112d05760001995505050505050611375565b6112e2670de0b6b3a7640000826117dc565b945050505b6000806112f48384611509565b915091508161130c5760001995505050505050611375565b61131e670de0b6b3a7640000826117dc565b9250600184901c9350505061129a565b829350505050611375565b60008812156113615761134c86836117af565b61135690846117fe565b935061137592505050565b61136b86836117af565b61135690846118b1565b949350505050565b6002600054036113cf5760405162461bcd60e51b815260206004820152601f60248201527f5265656e7472616e637947756172643a207265656e7472616e742063616c6c00604482015260640161054b565b6002600055565b604051600090339083908381818185875af1925050503d8060008114611418576040519150601f19603f3d011682016040523d82523d6000602084013e61141d565b606091505b5050905080610d695760405162461bcd60e51b81526020600482015260146024820152732330b4b632b2103a379039b2b7321022ba3432b960611b604482015260640161054b565b60008082156114aa5760005b868110156114a4576114858989888861122c565b61148f90836118b1565b915061149a8961193e565b9850600101611471565b506114e2565b60005b868110156114e0576114c18989888861122c565b6114cb90836118b1565b91506114d689611908565b98506001016114ad565b505b979650505050505050565b6000808212156115055761150082611956565b610dd2565b5090565b60008083600003611520575060019050600061154d565b83830283858281611533576115336117c6565b041461154657600080925092505061154d565b6001925090505b9250929050565b6000806020838503121561156757600080fd5b823567ffffffffffffffff8082111561157f57600080fd5b818501915085601f83011261159357600080fd5b8135818111156115a257600080fd5b8660208260051b85010111156115b757600080fd5b60209290920196919550909350505050565b80356001600160a01b03811681146115e057600080fd5b919050565b6000806000806000608086880312156115fd57600080fd5b611606866115c9565b9450611614602087016115c9565b935060408601359250606086013567ffffffffffffffff8082111561163857600080fd5b818801915088601f83011261164c57600080fd5b81358181111561165b57600080fd5b89602082850101111561166d57600080fd5b9699959850939650602001949392505050565b60006020828403121561169257600080fd5b5035919050565b803561ffff811681146115e057600080fd5b80151581146106b857600080fd5b600080600080600060a086880312156116d157600080fd5b85359450602086013593506116e860408701611699565b92506116f660608701611699565b91506080860135611706816116ab565b809150509295509295909350565b6000806040838503121561172757600080fd5b611730836115c9565b915061173e602084016115c9565b90509250929050565b6000806040838503121561175a57600080fd5b50508035926020909101359150565b6000806040838503121561177c57600080fd5b82359150602083013561178e816116ab565b809150509250929050565b634e487b7160e01b600052601160045260246000fd5b8082028115828204841417610dd257610dd2611799565b634e487b7160e01b600052601260045260246000fd5b6000826117f957634e487b7160e01b600052601260045260246000fd5b500490565b81810381811115610dd257610dd2611799565b6020808252600f908201526e2837b7b61d103737ba1037bbb732b960891b604082015260600190565b634e487b7160e01b600052603260045260246000fd5b6001600160a01b039384168152919092166020820152604081019190915260600190565b60006020828403121561188657600080fd5b8151611891816116ab565b9392505050565b6000602082840312156118aa57600080fd5b5051919050565b80820180821115610dd257610dd2611799565b600063ffffffff8216806118da576118da611799565b6000190192915050565b63ffffffff82811682821603908082111561190157611901611799565b5092915050565b6000600160ff1b820161191d5761191d611799565b506000190190565b60006001820161193757611937611799565b5060010190565b60006001600160ff1b01820161193757611937611799565b6000600160ff1b820161196b5761196b611799565b506000039056fea2646970667358221220104a67a712af19d060ec59acd2b5c7ca9d59324399431d23fc5eca90c9e88c3864736f6c63430008120033",
    "linkReferences": {}
  },
  "methodIdentifiers": {
    "_implementationPool()": "285c1321",
    "_poolCounter()": "a72d34a8",
    "createPool(address)": "9049f9d2",
    "getPoolAddress(uint256)": "00a5ae21",
    "handleTransfer(address,address,uint256)": "46197c9a",
    "s_Pool_Address_By_ID(uint256)": "027ff819",
    "s_Pool_ID_By_Address(address)": "e1fe1662"
  },
  "id": 29
}