{
  "abi": [
    {
      "inputs": [],
      "stateMutability": "nonpayable",
      "type": "constructor"
    },
    {
      "anonymous": false,
      "inputs": [
        {
          "indexed": true,
          "internalType": "uint256",
          "name": "dealId",
          "type": "uint256"
        },
        {
          "indexed": true,
          "internalType": "address",
          "name": "lender",
          "type": "address"
        }
      ],
      "name": "CollateralRedeemed",
      "type": "event"
    },
    {
      "anonymous": false,
      "inputs": [
        {
          "indexed": true,
          "internalType": "uint256",
          "name": "dealId",
          "type": "uint256"
        },
        {
          "indexed": true,
          "internalType": "address",
          "name": "lender",
          "type": "address"
        },
        {
          "indexed": true,
          "internalType": "address",
          "name": "borrower",
          "type": "address"
        }
      ],
      "name": "DealAccepted",
      "type": "event"
    },
    {
      "anonymous": false,
      "inputs": [
        {
          "indexed": true,
          "internalType": "uint256",
          "name": "dealId",
          "type": "uint256"
        },
        {
          "indexed": true,
          "internalType": "address",
          "name": "lender",
          "type": "address"
        },
        {
          "indexed": true,
          "internalType": "address",
          "name": "borrower",
          "type": "address"
        }
      ],
      "name": "DealExtended",
      "type": "event"
    },
    {
      "anonymous": false,
      "inputs": [
        {
          "indexed": true,
          "internalType": "uint256",
          "name": "dealId",
          "type": "uint256"
        },
        {
          "indexed": true,
          "internalType": "address",
          "name": "lender",
          "type": "address"
        },
        {
          "indexed": true,
          "internalType": "address",
          "name": "borrower",
          "type": "address"
        }
      ],
      "name": "DealRepaid",
      "type": "event"
    },
    {
      "anonymous": false,
      "inputs": [
        {
          "indexed": true,
          "internalType": "address",
          "name": "lender",
          "type": "address"
        },
        {
          "indexed": false,
          "internalType": "uint256",
          "name": "amount",
          "type": "uint256"
        }
      ],
      "name": "FundDeposit",
      "type": "event"
    },
    {
      "anonymous": false,
      "inputs": [
        {
          "indexed": true,
          "internalType": "address",
          "name": "lender",
          "type": "address"
        },
        {
          "indexed": false,
          "internalType": "uint256",
          "name": "amount",
          "type": "uint256"
        }
      ],
      "name": "FundWithdraw",
      "type": "event"
    },
    {
      "anonymous": false,
      "inputs": [
        {
          "indexed": true,
          "internalType": "address",
          "name": "collection",
          "type": "address"
        },
        {
          "indexed": true,
          "internalType": "address",
          "name": "lender",
          "type": "address"
        },
        {
          "indexed": false,
          "internalType": "uint256",
          "name": "amount",
          "type": "uint256"
        },
        {
          "indexed": false,
          "internalType": "uint256",
          "name": "fee",
          "type": "uint256"
        }
      ],
      "name": "OfferCreated",
      "type": "event"
    },
    {
      "anonymous": false,
      "inputs": [
        {
          "indexed": true,
          "internalType": "address",
          "name": "collection",
          "type": "address"
        },
        {
          "indexed": true,
          "internalType": "address",
          "name": "lender",
          "type": "address"
        }
      ],
      "name": "OfferDeleted",
      "type": "event"
    },
    {
      "anonymous": false,
      "inputs": [
        {
          "indexed": true,
          "internalType": "address",
          "name": "collection",
          "type": "address"
        },
        {
          "indexed": true,
          "internalType": "address",
          "name": "lender",
          "type": "address"
        },
        {
          "indexed": false,
          "internalType": "uint256",
          "name": "amount",
          "type": "uint256"
        },
        {
          "indexed": false,
          "internalType": "uint256",
          "name": "fee",
          "type": "uint256"
        }
      ],
      "name": "OfferEdited",
      "type": "event"
    },
    {
      "inputs": [
        {
          "internalType": "address",
          "name": "collection",
          "type": "address"
        },
        {
          "internalType": "uint256",
          "name": "amount",
          "type": "uint256"
        },
        {
          "internalType": "uint256",
          "name": "fee",
          "type": "uint256"
        }
      ],
      "name": "_createOffer",
      "outputs": [],
      "stateMutability": "nonpayable",
      "type": "function"
    },
    {
      "inputs": [
        {
          "internalType": "address",
          "name": "collection",
          "type": "address"
        },
        {
          "internalType": "uint256",
          "name": "amount",
          "type": "uint256"
        },
        {
          "internalType": "uint256",
          "name": "fee",
          "type": "uint256"
        }
      ],
      "name": "_editOffer",
      "outputs": [],
      "stateMutability": "nonpayable",
      "type": "function"
    },
    {
      "inputs": [
        {
          "internalType": "address",
          "name": "lender",
          "type": "address"
        },
        {
          "internalType": "address",
          "name": "collection",
          "type": "address"
        },
        {
          "internalType": "uint256",
          "name": "tokenId",
          "type": "uint256"
        }
      ],
      "name": "acceptLoan",
      "outputs": [],
      "stateMutability": "payable",
      "type": "function"
    },
    {
      "inputs": [
        {
          "internalType": "uint256",
          "name": "dealId",
          "type": "uint256"
        }
      ],
      "name": "claimCollateral",
      "outputs": [],
      "stateMutability": "nonpayable",
      "type": "function"
    },
    {
      "inputs": [
        {
          "components": [
            {
              "internalType": "address",
              "name": "collection",
              "type": "address"
            },
            {
              "internalType": "uint256",
              "name": "amount",
              "type": "uint256"
            },
            {
              "internalType": "uint256",
              "name": "fee",
              "type": "uint256"
            }
          ],
          "internalType": "struct LendingProtocol.OfferBatchObject[]",
          "name": "offers",
          "type": "tuple[]"
        }
      ],
      "name": "createOffers",
      "outputs": [],
      "stateMutability": "payable",
      "type": "function"
    },
    {
      "inputs": [],
      "name": "dealCounter",
      "outputs": [
        {
          "internalType": "uint256",
          "name": "",
          "type": "uint256"
        }
      ],
      "stateMutability": "view",
      "type": "function"
    },
    {
      "inputs": [
        {
          "internalType": "address[]",
          "name": "collections",
          "type": "address[]"
        }
      ],
      "name": "deleteOffers",
      "outputs": [],
      "stateMutability": "nonpayable",
      "type": "function"
    },
    {
      "inputs": [],
      "name": "depositFunds",
      "outputs": [],
      "stateMutability": "payable",
      "type": "function"
    },
    {
      "inputs": [
        {
          "components": [
            {
              "internalType": "address",
              "name": "collection",
              "type": "address"
            },
            {
              "internalType": "uint256",
              "name": "amount",
              "type": "uint256"
            },
            {
              "internalType": "uint256",
              "name": "fee",
              "type": "uint256"
            }
          ],
          "internalType": "struct LendingProtocol.OfferBatchObject[]",
          "name": "offers",
          "type": "tuple[]"
        }
      ],
      "name": "editOffers",
      "outputs": [],
      "stateMutability": "nonpayable",
      "type": "function"
    },
    {
      "inputs": [
        {
          "internalType": "uint256",
          "name": "dealId",
          "type": "uint256"
        }
      ],
      "name": "extendLoan",
      "outputs": [],
      "stateMutability": "payable",
      "type": "function"
    },
    {
      "inputs": [
        {
          "internalType": "address",
          "name": "lender",
          "type": "address"
        }
      ],
      "name": "getAdditionalCollaterals",
      "outputs": [
        {
          "internalType": "uint256",
          "name": "additionalCollateral",
          "type": "uint256"
        }
      ],
      "stateMutability": "view",
      "type": "function"
    },
    {
      "inputs": [
        {
          "internalType": "uint256",
          "name": "dealId",
          "type": "uint256"
        }
      ],
      "name": "getDeal",
      "outputs": [
        {
          "components": [
            {
              "internalType": "address",
              "name": "collection",
              "type": "address"
            },
            {
              "internalType": "address",
              "name": "lender",
              "type": "address"
            },
            {
              "internalType": "address",
              "name": "borrower",
              "type": "address"
            },
            {
              "internalType": "uint256",
              "name": "amount",
              "type": "uint256"
            },
            {
              "internalType": "uint256",
              "name": "fee",
              "type": "uint256"
            },
            {
              "internalType": "uint256",
              "name": "expirationDate",
              "type": "uint256"
            },
            {
              "internalType": "uint256",
              "name": "tokenId",
              "type": "uint256"
            },
            {
              "internalType": "uint256",
              "name": "additionalCollateral",
              "type": "uint256"
            },
            {
              "internalType": "bool",
              "name": "extended",
              "type": "bool"
            },
            {
              "internalType": "bool",
              "name": "repaid",
              "type": "bool"
            }
          ],
          "internalType": "struct LendingProtocol.Deal",
          "name": "deal",
          "type": "tuple"
        }
      ],
      "stateMutability": "view",
      "type": "function"
    },
    {
      "inputs": [
        {
          "internalType": "address",
          "name": "lender",
          "type": "address"
        }
      ],
      "name": "getFunds",
      "outputs": [
        {
          "internalType": "uint256",
          "name": "funds",
          "type": "uint256"
        }
      ],
      "stateMutability": "view",
      "type": "function"
    },
    {
      "inputs": [
        {
          "internalType": "address",
          "name": "lender",
          "type": "address"
        },
        {
          "internalType": "address",
          "name": "collection",
          "type": "address"
        }
      ],
      "name": "getOffer",
      "outputs": [
        {
          "components": [
            {
              "internalType": "uint256",
              "name": "amount",
              "type": "uint256"
            },
            {
              "internalType": "uint256",
              "name": "fee",
              "type": "uint256"
            }
          ],
          "internalType": "struct LendingProtocol.OfferInfo",
          "name": "offer",
          "type": "tuple"
        }
      ],
      "stateMutability": "view",
      "type": "function"
    },
    {
      "inputs": [],
      "name": "increaseCounter",
      "outputs": [],
      "stateMutability": "nonpayable",
      "type": "function"
    },
    {
      "inputs": [
        {
          "internalType": "address",
          "name": "lender",
          "type": "address"
        },
        {
          "internalType": "address",
          "name": "collection",
          "type": "address"
        }
      ],
      "name": "isOfferAvailable",
      "outputs": [
        {
          "internalType": "bool",
          "name": "",
          "type": "bool"
        }
      ],
      "stateMutability": "view",
      "type": "function"
    },
    {
      "inputs": [
        {
          "internalType": "address",
          "name": "",
          "type": "address"
        },
        {
          "internalType": "address",
          "name": "",
          "type": "address"
        },
        {
          "internalType": "uint256",
          "name": "",
          "type": "uint256"
        },
        {
          "internalType": "bytes",
          "name": "",
          "type": "bytes"
        }
      ],
      "name": "onERC721Received",
      "outputs": [
        {
          "internalType": "bytes4",
          "name": "",
          "type": "bytes4"
        }
      ],
      "stateMutability": "pure",
      "type": "function"
    },
    {
      "inputs": [],
      "name": "protocolBalance",
      "outputs": [
        {
          "internalType": "uint256",
          "name": "",
          "type": "uint256"
        }
      ],
      "stateMutability": "view",
      "type": "function"
    },
    {
      "inputs": [],
      "name": "protocolFee",
      "outputs": [
        {
          "internalType": "uint256",
          "name": "",
          "type": "uint256"
        }
      ],
      "stateMutability": "view",
      "type": "function"
    },
    {
      "inputs": [
        {
          "internalType": "uint256",
          "name": "dealId",
          "type": "uint256"
        }
      ],
      "name": "repayLoan",
      "outputs": [],
      "stateMutability": "payable",
      "type": "function"
    },
    {
      "inputs": [
        {
          "internalType": "address",
          "name": "",
          "type": "address"
        }
      ],
      "name": "s_additions",
      "outputs": [
        {
          "internalType": "uint256",
          "name": "",
          "type": "uint256"
        }
      ],
      "stateMutability": "view",
      "type": "function"
    },
    {
      "inputs": [
        {
          "internalType": "uint256",
          "name": "",
          "type": "uint256"
        }
      ],
      "name": "s_deals",
      "outputs": [
        {
          "internalType": "address",
          "name": "collection",
          "type": "address"
        },
        {
          "internalType": "address",
          "name": "lender",
          "type": "address"
        },
        {
          "internalType": "address",
          "name": "borrower",
          "type": "address"
        },
        {
          "internalType": "uint256",
          "name": "amount",
          "type": "uint256"
        },
        {
          "internalType": "uint256",
          "name": "fee",
          "type": "uint256"
        },
        {
          "internalType": "uint256",
          "name": "expirationDate",
          "type": "uint256"
        },
        {
          "internalType": "uint256",
          "name": "tokenId",
          "type": "uint256"
        },
        {
          "internalType": "uint256",
          "name": "additionalCollateral",
          "type": "uint256"
        },
        {
          "internalType": "bool",
          "name": "extended",
          "type": "bool"
        },
        {
          "internalType": "bool",
          "name": "repaid",
          "type": "bool"
        }
      ],
      "stateMutability": "view",
      "type": "function"
    },
    {
      "inputs": [
        {
          "internalType": "address",
          "name": "",
          "type": "address"
        }
      ],
      "name": "s_funds",
      "outputs": [
        {
          "internalType": "uint256",
          "name": "",
          "type": "uint256"
        }
      ],
      "stateMutability": "view",
      "type": "function"
    },
    {
      "inputs": [
        {
          "internalType": "address",
          "name": "",
          "type": "address"
        },
        {
          "internalType": "address",
          "name": "",
          "type": "address"
        }
      ],
      "name": "s_offers",
      "outputs": [
        {
          "internalType": "uint256",
          "name": "amount",
          "type": "uint256"
        },
        {
          "internalType": "uint256",
          "name": "fee",
          "type": "uint256"
        }
      ],
      "stateMutability": "view",
      "type": "function"
    },
    {
      "inputs": [],
      "name": "swimpass",
      "outputs": [
        {
          "internalType": "contract SwimpassMock",
          "name": "",
          "type": "address"
        }
      ],
      "stateMutability": "view",
      "type": "function"
    },
    {
      "inputs": [
        {
          "internalType": "uint256",
          "name": "amount",
          "type": "uint256"
        }
      ],
      "name": "withdrawFunds",
      "outputs": [],
      "stateMutability": "nonpayable",
      "type": "function"
    }
  ],
  "bytecode": {
    "object": "0x608060405234801561001057600080fd5b506001600055604051610022906100a6565b6040808252600990820152685377696d205061737360b81b60608201526080602082018190526005908201526405357494d560dc1b60a082015260c001604051809103906000f08015801561007b573d6000803e3d6000fd5b50600480546001600160a01b0319166001600160a01b0392909216919091179055600a6002556100b4565b6137fa80620022ba83390190565b6121f680620000c46000396000f3fe6080604052600436106101815760003560e01c8063859c5bf8116100d1578063b49004e91161008a578063cf58aa7b11610064578063cf58aa7b146105b0578063decebbce146105e0578063e2c41dbc14610616578063eb2690311461061e57600080fd5b8063b49004e914610549578063ba65471914610563578063c49785b41461059057600080fd5b8063859c5bf8146104785780639416ca78146104985780639466e0ba146104b8578063a4b48828146104e5578063ab7b1c8914610520578063b0e21e8a1461053357600080fd5b80635974930e1161013e57806365ec46071161011857806365ec4607146104055780637ace2ac91461041857806382fd5bac1461042b578063842ba8dd1461045857600080fd5b80635974930e146102db5780635c4117841461031157806361e98db8146103ef57600080fd5b8063150b7a0214610186578063155dd5ee146101e9578063217328b61461020b578063230104b81461022f5780632b286fcf1461024f57806348335af6146102a3575b600080fd5b34801561019257600080fd5b506101cb6101a1366004611da2565b7f150b7a023d4804d13e8c85fb27262cb750cf6ba9f9dd3bb30d90f482ceeb4b1f95945050505050565b6040516001600160e01b031990911681526020015b60405180910390f35b3480156101f557600080fd5b50610209610204366004611e3d565b610631565b005b34801561021757600080fd5b5061022160015481565b6040519081526020016101e0565b34801561023b57600080fd5b5061020961024a366004611e56565b610787565b34801561025b57600080fd5b5061028e61026a366004611e89565b60086020908152600092835260408084209091529082529020805460019091015482565b604080519283526020830191909152016101e0565b3480156102af57600080fd5b506004546102c3906001600160a01b031681565b6040516001600160a01b0390911681526020016101e0565b3480156102e757600080fd5b506102216102f6366004611ebc565b6001600160a01b031660009081526007602052604090205490565b34801561031d57600080fd5b5061039261032c366004611e3d565b60056020819052600091825260409091208054600182015460028301546003840154600485015495850154600686015460078701546008909701546001600160a01b03968716989587169796909416959294939192909160ff808216916101009004168a565b604080516001600160a01b039b8c168152998b1660208b015297909916968801969096526060870194909452608086019290925260a085015260c084015260e08301521515610100820152901515610120820152610140016101e0565b3480156103fb57600080fd5b5061022160035481565b610209610413366004611ede565b61085c565b610209610426366004611e3d565b610b05565b34801561043757600080fd5b5061044b610446366004611e3d565b610e80565b6040516101e09190611f53565b34801561046457600080fd5b50610209610473366004611e56565b610f27565b34801561048457600080fd5b5061020961049336600461200a565b610f89565b3480156104a457600080fd5b506102096104b3366004611ede565b611042565b3480156104c457600080fd5b506102216104d3366004611ebc565b60076020526000908152604090205481565b3480156104f157600080fd5b50610505610500366004611e89565b6111bc565b604080518251815260209283015192810192909252016101e0565b61020961052e366004611e3d565b61120b565b34801561053f57600080fd5b5061022160025481565b34801561055557600080fd5b506102096001805481019055565b34801561056f57600080fd5b5061022161057e366004611ebc565b60066020526000908152604090205481565b34801561059c57600080fd5b506102096105ab366004611e3d565b61150e565b3480156105bc57600080fd5b506105d06105cb366004611e89565b61178e565b60405190151581526020016101e0565b3480156105ec57600080fd5b506102216105fb366004611ebc565b6001600160a01b031660009081526006602052604090205490565b61020961180a565b61020961062c3660046120cf565b6118b5565b610639611cbb565b336000908152600660205260409020548111156106905760405162461bcd60e51b815260206004820152601060248201526f4e6f7420656e6f7567682066756e647360801b60448201526064015b60405180910390fd5b604051600090339083908381818185875af1925050503d80600081146106d2576040519150601f19603f3d011682016040523d82523d6000602084013e6106d7565b606091505b50509050806107205760405162461bcd60e51b81526020600482015260156024820152744661696c656420746f2073656e642065746865722160581b6044820152606401610687565b336000908152600660205260408120805484929061073f908490612121565b909155505060405182815233907fdcbc04a15249e560179846f4ed762c63956382a0d6e4972fa2b4939a184613ca9060200160405180910390a2506107846001600055565b50565b81158015610793575080155b156107f0573360008181526008602090815260408083206001600160a01b03881680855292528083208381556001018390555190917fc08c2e8fac10182348f806297befd43911057a2caa83ab5fc7668168c6073d5991a3505050565b3360008181526008602090815260408083206001600160a01b0388168085529083529281902086815560010185905580518681529182018590527f2bc1483a7748cac8bb414160818fdaea81fa9e8ac6b1948f33fc49286cfff71b91015b60405180910390a35b505050565b610864611cbb565b60005b81811015610ad35782828281811061088157610881612134565b9050606002016020013560066000336001600160a01b03166001600160a01b0316815260200190815260200160002054346108bc919061214a565b10156108da5760405162461bcd60e51b81526004016106879061215d565b8282828181106108ec576108ec612134565b9050606002016040013583838381811061090857610908612134565b905060600201602001351161092f5760405162461bcd60e51b81526004016106879061215d565b66038d7ea4c6800083838381811061094957610949612134565b9050606002016020013510158015610983575066038d7ea4c6800083838381811061097657610976612134565b9050606002016040013510155b61099f5760405162461bcd60e51b81526004016106879061215d565b336000908152600860205260408120908484848181106109c1576109c1612134565b6109d79260206060909202019081019150611ebc565b6001600160a01b0316815260208101919091526040016000205415610a6357610a5e838383818110610a0b57610a0b612134565b610a219260206060909202019081019150611ebc565b848484818110610a3357610a33612134565b90506060020160200135858585818110610a4f57610a4f612134565b90506060020160400135610787565b610acb565b610acb838383818110610a7857610a78612134565b610a8e9260206060909202019081019150611ebc565b848484818110610aa057610aa0612134565b90506060020160200135858585818110610abc57610abc612134565b90506060020160400135610f27565b600101610867565b503360009081526006602052604081208054349290610af390849061214a565b909155505060016000555050565b5050565b610b0d611cbb565b600081815260056020818152604080842081516101408101835281546001600160a01b039081168252600183015481168286015260028301541692810183905260038201546060820152600482015460808201528185015460a0820152600682015460c0820152600782015460e082015260089091015460ff808216151561010080850191909152909104161515610120820152938590529190523314610be55760405162461bcd60e51b815260206004820152600c60248201526b2737ba103137b93937bbb2b960a11b6044820152606401610687565b600082815260056020819052604090912001544210610c385760405162461bcd60e51b815260206004820152600f60248201526e105b1c9958591e48195e1c1a5c9959608a1b6044820152606401610687565b60008281526005602052604090206008015460ff1615610c8d5760405162461bcd60e51b815260206004820152601060248201526f105b1c9958591e48195e1d195b99195960821b6044820152606401610687565b6020808201516001600160a01b03908116600090815260088352604080822085519093168252919092528120546060830151811015610d3257808360600151610cd69190612121565b91506000836080015183610cea919061214a565b9050803414610d2c5760405162461bcd60e51b815260206004820152600e60248201526d0acc2d8eaca40dad2e6dac2e8c6d60931b6044820152606401610687565b50610d76565b82608001513414610d765760405162461bcd60e51b815260206004820152600e60248201526d0acc2d8eaca40dad2e6dac2e8c6d60931b6044820152606401610687565b6020808401516001600160a01b031660009081526007909152604081208054849290610da390849061214a565b9091555050600084815260056020819052604082206007810185905501805462093a809290610dd390849061214a565b909155505060808301516000858152600560209081526040808320600101546001600160a01b03168352600690915281208054909190610e1490849061214a565b90915550506000848152600560209081526040808320600801805460ff1916600117905590850151905133926001600160a01b03929092169187917f55c7b6fe27bc27b1d637ebd2098a739505d9347612a2b78cbf1acdbb253ce3419190a45050506107846001600055565b610e88611d14565b5060009081526005602081815260409283902083516101408101855281546001600160a01b039081168252600183015481169382019390935260028201549092169382019390935260038301546060820152600483015460808201529082015460a0820152600682015460c0820152600782015460e082015260089091015460ff80821615156101008085019190915290910416151561012082015290565b3360008181526008602090815260408083206001600160a01b0388168085529083529281902086815560010185905580518681529182018590527f1e1a944902b7d587d9352b556127d1316831a4c829cfc46cc2fcb10c8ab53822910161084e565b60005b8151811015610b01573360009081526008602052604081208351909190849084908110610fbb57610fbb612134565b6020908102919091018101516001600160a01b0316825281019190915260400160009081208181556001015581513390839083908110610ffd57610ffd612134565b60200260200101516001600160a01b03167fc08c2e8fac10182348f806297befd43911057a2caa83ab5fc7668168c6073d5960405160405180910390a3600101610f8c565b60005b818110156108575782828281811061105f5761105f612134565b905060600201602001356000148015611093575082828281811061108557611085612134565b905060600201604001356000145b61119f578282828181106110a9576110a9612134565b905060600201604001358383838181106110c5576110c5612134565b905060600201602001351161110e5760405162461bcd60e51b815260206004820152600f60248201526e4665652064697363726570616e637960881b6044820152606401610687565b66038d7ea4c6800083838381811061112857611128612134565b9050606002016020013510158015611162575066038d7ea4c6800083838381811061115557611155612134565b9050606002016040013510155b61119f5760405162461bcd60e51b815260206004820152600e60248201526d416d6f756e7420746f6f206c6f7760901b6044820152606401610687565b6111b4838383818110610a0b57610a0b612134565b600101611045565b604080518082018252600080825260209182018190526001600160a01b038581168252600883528382209085168252825282902082518084019093528054835260010154908201525b92915050565b611213611cbb565b60008181526005602081815260409283902083516101408101855281546001600160a01b0390811682526001830154811693820193909352600282015490921693820193909352600383015460608201819052600484015460808301529183015460a0820152600683015460c0820152600783015460e082015260089092015460ff808216151561010080860191909152909104161580156101208401526112ee5760405162461bcd60e51b815260206004820152600e60248201526d105b1c9958591e481c995c185a5960921b6044820152606401610687565b81604001516001600160a01b0316336001600160a01b0316146113425760405162461bcd60e51b815260206004820152600c60248201526b2737ba103137b93937bbb2b960a11b6044820152606401610687565b8160a001514211156113805760405162461bcd60e51b8152602060048201526007602482015266115e1c1a5c995960ca1b6044820152606401610687565b8034146113c55760405162461bcd60e51b81526020600482015260136024820152724e6f7420656e6f75676820746f20726570617960681b6044820152606401610687565b6000838152600560209081526040808320600801805461ff00191661010017905560e0850151858301516001600160a01b0316845260079092528220805491929091611412908490612121565b909155505060608201516020808401516001600160a01b03166000908152600690915260408120805490919061144990849061214a565b9091555050815160c0830151604051632142170760e11b815230600482015233602482015260448101919091526001600160a01b03909116906342842e0e90606401600060405180830381600087803b1580156114a557600080fd5b505af11580156114b9573d6000803e3d6000fd5b50505050336001600160a01b031682602001516001600160a01b0316847f8c67bcb9eac6b813ce2c9a97c80deb615914f75d0b488200d90c1f8193cc2b0d60405160405180910390a450506107846001600055565b611516611cbb565b60008181526005602081815260409283902083516101408101855281546001600160a01b039081168252600183015481169382018490526002830154169481019490945260038101546060850152600481015460808501529182015460a0840152600682015460c0840152600782015460e084015260089091015460ff80821615156101008086019190915290910416151561012083015233146115e95760405162461bcd60e51b815260206004820152600a6024820152692737ba103632b73232b960b11b6044820152606401610687565b8060a00151421161162a5760405162461bcd60e51b815260206004820152600b60248201526a139bdd08195e1c1a5c995960aa1b6044820152606401610687565b60e0810151336000908152600760205260408120805490919061164e908490612121565b909155505060e081015160405160009133918381818185875af1925050503d8060008114611698576040519150601f19603f3d011682016040523d82523d6000602084013e61169d565b606091505b50509050806116e65760405162461bcd60e51b81526020600482015260156024820152744661696c656420746f2073656e642065746865722160581b6044820152606401610687565b815160c0830151604051632142170760e11b815230600482015233602482015260448101919091526001600160a01b03909116906342842e0e90606401600060405180830381600087803b15801561173d57600080fd5b505af1158015611751573d6000803e3d6000fd5b50506040513392508591507fa27c52000e35876d2c7b83fcb768cd1330690b917b7ab3b94895b8dab866728a90600090a350506107846001600055565b6001600160a01b0380831660009081526008602090815260408083209385168352928152828220835180850190945280548085526001909101549184018290529192916117db9190612121565b6001600160a01b038516600090815260066020526040902054108015906118025750805115155b949350505050565b6000341161185a5760405162461bcd60e51b815260206004820152601e60248201527f56616c75652068617320746f2062652067726561746572207468616e203000006044820152606401610687565b336000908152600660205260408120805434929061187990849061214a565b909155505060405134815233907f04d1e3db499c88d526b5839da3d76fbdda6fd7310b9aa71a624f2002ef73f95f9060200160405180910390a2565b6118bd611cbb565b6001600160a01b03808416600090815260086020908152604080832093861683529281529082902082518084019093528054808452600190910154918301919091526002546103e8916119109190612187565b61191a919061219e565b341461192557600080fd5b61192f848461178e565b6119715760405162461bcd60e51b81526020600482015260136024820152724f66666572206e6f7420617661696c61626c6560681b6044820152606401610687565b61197e6001805481019055565b611986611d14565b6001600160a01b03808516825233604083015285166020808301919091528251606083015282015160808201526119c04262093a8061214a565b60a0820190815260c08201848152600180546000908152600560208181526040808420885181546001600160a01b03199081166001600160a01b03928316178355848b015197830180548216988316989098179097559189015160028201805490971692169190911790945560608701516003850155608087015160048501559451908301559151600682015560e08401516007820155610100808501516008909201805461012087015161ffff1990911693151561ff00191693909317921515909102919091179055908301518351611a9a9190612121565b604051909150600090339083908381818185875af1925050503d8060008114611adf576040519150601f19603f3d011682016040523d82523d6000602084013e611ae4565b606091505b5050905080611b2c5760405162461bcd60e51b81526020600482015260146024820152732330b4b632b2103a379039b2b7321032ba3432b960611b6044820152606401610687565b6004546040516001600160a01b03909116903490600081818185875af1925050503d8060008114611b79576040519150601f19603f3d011682016040523d82523d6000602084013e611b7e565b606091505b50508091505080611bc85760405162461bcd60e51b81526020600482015260146024820152732330b4b632b2103a379039b2b7321032ba3432b960611b6044820152606401610687565b6001600160a01b03871660009081526006602052604081208054849290611bf0908490612121565b925050819055503460036000828254611c09919061214a565b9091555050604051632142170760e11b8152336004820152306024820152604481018690526001600160a01b038716906342842e0e90606401600060405180830381600087803b158015611c5c57600080fd5b505af1158015611c70573d6000803e3d6000fd5b50506001546040513393506001600160a01b038b1692507fc396021e8ed80b78876c14f5696c767ff229eb9689369af47444c8f10525fbca90600090a4505050506108576001600055565b600260005403611d0d5760405162461bcd60e51b815260206004820152601f60248201527f5265656e7472616e637947756172643a207265656e7472616e742063616c6c006044820152606401610687565b6002600055565b60405180610140016040528060006001600160a01b0316815260200160006001600160a01b0316815260200160006001600160a01b0316815260200160008152602001600081526020016000815260200160008152602001600081526020016000151581526020016000151581525090565b80356001600160a01b0381168114611d9d57600080fd5b919050565b600080600080600060808688031215611dba57600080fd5b611dc386611d86565b9450611dd160208701611d86565b935060408601359250606086013567ffffffffffffffff80821115611df557600080fd5b818801915088601f830112611e0957600080fd5b813581811115611e1857600080fd5b896020828501011115611e2a57600080fd5b9699959850939650602001949392505050565b600060208284031215611e4f57600080fd5b5035919050565b600080600060608486031215611e6b57600080fd5b611e7484611d86565b95602085013595506040909401359392505050565b60008060408385031215611e9c57600080fd5b611ea583611d86565b9150611eb360208401611d86565b90509250929050565b600060208284031215611ece57600080fd5b611ed782611d86565b9392505050565b60008060208385031215611ef157600080fd5b823567ffffffffffffffff80821115611f0957600080fd5b818501915085601f830112611f1d57600080fd5b813581811115611f2c57600080fd5b866020606083028501011115611f4157600080fd5b60209290920196919550909350505050565b81516001600160a01b0316815261014081016020830151611f7f60208401826001600160a01b03169052565b506040830151611f9a60408401826001600160a01b03169052565b50606083015160608301526080830151608083015260a083015160a083015260c083015160c083015260e083015160e083015261010080840151611fe18285018215159052565b5050610120928301511515919092015290565b634e487b7160e01b600052604160045260246000fd5b6000602080838503121561201d57600080fd5b823567ffffffffffffffff8082111561203557600080fd5b818501915085601f83011261204957600080fd5b81358181111561205b5761205b611ff4565b8060051b604051601f19603f8301168101818110858211171561208057612080611ff4565b60405291825284820192508381018501918883111561209e57600080fd5b938501935b828510156120c3576120b485611d86565b845293850193928501926120a3565b98975050505050505050565b6000806000606084860312156120e457600080fd5b6120ed84611d86565b92506120fb60208501611d86565b9150604084013590509250925092565b634e487b7160e01b600052601160045260246000fd5b818103818111156112055761120561210b565b634e487b7160e01b600052603260045260246000fd5b808201808211156112055761120561210b565b60208082526010908201526f1a5b98dbdc9c9958dd08185b5bdd5b9d60821b604082015260600190565b80820281158282048414176112055761120561210b565b6000826121bb57634e487b7160e01b600052601260045260246000fd5b50049056fea264697066735822122066359d5159b7df19d7db131a89e83ec6d93c1431f946392f66c89078171e197964736f6c6343000812003360c06040523480156200001157600080fd5b50604051620037fa380380620037fa833981016040819052620000349162000b19565b60016000819055829082906200004b838262000c11565b5060026200005a828262000c11565b5050600c80546001600160a01b03191632179055506103e8608052678ac7230489e8000060a05260005b6064811015620000bb57600c54620000b2906001600160a01b0316620000ac83600162000cf3565b620000c4565b60010162000084565b50505062000dfd565b60805160095410620001285760405162461bcd60e51b815260206004820152602260248201527f5377696d6368696d70733a204d6178696d756d20737570706c79207265616368604482015261195960f21b60648201526084015b60405180910390fd5b6200014f8282604051806020016040528060008152506200015360201b620014081760201c565b5050565b6200015f8383620001cb565b6200016e60008484846200036c565b620001c65760405162461bcd60e51b81526020600482015260326024820152600080516020620037da83398151915260448201527131b2b4bb32b91034b6b83632b6b2b73a32b960711b60648201526084016200011f565b505050565b6001600160a01b038216620002235760405162461bcd60e51b815260206004820181905260248201527f4552433732313a206d696e7420746f20746865207a65726f206164647265737360448201526064016200011f565b6000818152600360205260409020546001600160a01b0316156200028a5760405162461bcd60e51b815260206004820152601c60248201527f4552433732313a20746f6b656e20616c7265616479206d696e7465640000000060448201526064016200011f565b6200029a600083836001620004c8565b6000818152600360205260409020546001600160a01b031615620003015760405162461bcd60e51b815260206004820152601c60248201527f4552433732313a20746f6b656e20616c7265616479206d696e7465640000000060448201526064016200011f565b6001600160a01b038216600081815260046020908152604080832080546001019055848352600390915280822080546001600160a01b0319168417905551839291907fddf252ad1be2c89b69c2b068fc378daa952ba7f163c4a11628f55a4df523b3ef908290a45050565b60006200038d846001600160a01b0316620004fe60201b6200143b1760201c565b15620004bc57604051630a85bd0160e11b81526001600160a01b0385169063150b7a0290620003c790339089908890889060040162000d0f565b6020604051808303816000875af192505050801562000405575060408051601f3d908101601f19168201909252620004029181019062000d65565b60015b620004a1573d80801562000436576040519150601f19603f3d011682016040523d82523d6000602084013e6200043b565b606091505b508051600003620004995760405162461bcd60e51b81526020600482015260326024820152600080516020620037da83398151915260448201527131b2b4bb32b91034b6b83632b6b2b73a32b960711b60648201526084016200011f565b805181602001fd5b6001600160e01b031916630a85bd0160e11b149050620004c0565b5060015b949350505050565b620004e1848484846200050d60201b6200144a1760201c565b600e5460ff16620004f857620004f8828562000671565b50505050565b6001600160a01b03163b151590565b62000526848484846200074260201b6200158a1760201c565b60018111156200059f5760405162461bcd60e51b815260206004820152603560248201527f455243373231456e756d657261626c653a20636f6e736563757469766520747260448201527f616e7366657273206e6f7420737570706f72746564000000000000000000000060648201526084016200011f565b816001600160a01b038516620005fe57620005f881600980546000838152600a60205260408120829055600182018355919091527f6e1540171b6c0c960b71a7020d9f60077f6af931a8bbf590da0223dacf75c7af0155565b62000624565b836001600160a01b0316856001600160a01b0316146200062457620006248582620007d1565b6001600160a01b03841662000644576200063e816200087e565b6200066a565b846001600160a01b0316846001600160a01b0316146200066a576200066a848262000938565b5050505050565b60006200067e8362000989565b905080156200070e576000826001600160a01b03168260405160006040518083038185875af1925050503d8060008114620006d6576040519150601f19603f3d011682016040523d82523d6000602084013e620006db565b606091505b5050905080156200070c576000848152600f6020526040812080548492906200070690849062000cf3565b90915550505b505b6040518390829033907f475114ff2b14a1d7e3fc6dcf3e5b7505db1574cf812eaca6022fc8f951bd812690600090a4505050565b6001811115620004f8576001600160a01b038416156200078c576001600160a01b038416600090815260046020526040812080548392906200078690849062000d98565b90915550505b6001600160a01b03831615620004f8576001600160a01b03831660009081526004602052604081208054839290620007c690849062000cf3565b909155505050505050565b60006001620007eb84620009c460201b620010631760201c565b620007f7919062000d98565b6000838152600860205260409020549091508082146200084b576001600160a01b03841660009081526007602090815260408083208584528252808320548484528184208190558352600890915290208190555b5060009182526008602090815260408084208490556001600160a01b039094168352600781528383209183525290812055565b600954600090620008929060019062000d98565b6000838152600a602052604081205460098054939450909284908110620008bd57620008bd62000dae565b906000526020600020015490508060098381548110620008e157620008e162000dae565b6000918252602080832090910192909255828152600a909152604080822084905585825281205560098054806200091c576200091c62000dc4565b6001900381819060005260206000200160009055905550505050565b60006200095083620009c460201b620010631760201c565b6001600160a01b039093166000908152600760209081526040808320868452825280832085905593825260089052919091209190915550565b6000806200099660095490565b600b54620009a5919062000dda565b6000848152600f602052604081205491925090620004c0908362000d98565b60006001600160a01b03821662000a305760405162461bcd60e51b815260206004820152602960248201527f4552433732313a2061646472657373207a65726f206973206e6f7420612076616044820152683634b21037bbb732b960b91b60648201526084016200011f565b506001600160a01b031660009081526004602052604090205490565b634e487b7160e01b600052604160045260246000fd5b60005b8381101562000a7f57818101518382015260200162000a65565b50506000910152565b600082601f83011262000a9a57600080fd5b81516001600160401b038082111562000ab75762000ab762000a4c565b604051601f8301601f19908116603f0116810190828211818310171562000ae25762000ae262000a4c565b8160405283815286602085880101111562000afc57600080fd5b62000b0f84602083016020890162000a62565b9695505050505050565b6000806040838503121562000b2d57600080fd5b82516001600160401b038082111562000b4557600080fd5b62000b538683870162000a88565b9350602085015191508082111562000b6a57600080fd5b5062000b798582860162000a88565b9150509250929050565b600181811c9082168062000b9857607f821691505b60208210810362000bb957634e487b7160e01b600052602260045260246000fd5b50919050565b601f821115620001c657600081815260208120601f850160051c8101602086101562000be85750805b601f850160051c820191505b8181101562000c095782815560010162000bf4565b505050505050565b81516001600160401b0381111562000c2d5762000c2d62000a4c565b62000c458162000c3e845462000b83565b8462000bbf565b602080601f83116001811462000c7d576000841562000c645750858301515b600019600386901b1c1916600185901b17855562000c09565b600085815260208120601f198616915b8281101562000cae5788860151825594840194600190910190840162000c8d565b508582101562000ccd5787850151600019600388901b60f8161c191681555b5050505050600190811b01905550565b634e487b7160e01b600052601160045260246000fd5b8082018082111562000d095762000d0962000cdd565b92915050565b600060018060a01b03808716835280861660208401525083604083015260806060830152825180608084015262000d4e8160a085016020870162000a62565b601f01601f19169190910160a00195945050505050565b60006020828403121562000d7857600080fd5b81516001600160e01b03198116811462000d9157600080fd5b9392505050565b8181038181111562000d095762000d0962000cdd565b634e487b7160e01b600052603260045260246000fd5b634e487b7160e01b600052603160045260246000fd5b60008262000df857634e487b7160e01b600052601260045260246000fd5b500490565b60805160a05161299462000e466000396000818161045f015261088e0152600081816105ce015281816108ee01528181610a2001528181610a67015261178d01526129946000f3fe6080604052600436106101fd5760003560e01c80636352211e1161010d578063a501a511116100a0578063c87b56dd1161006f578063c87b56dd1461059c578063d5abeb01146105bc578063dbdbe9e2146105f0578063e0d5790614610610578063e985e9c51461063d57600080fd5b8063a501a51114610526578063a63ba54814610546578063b88d4fde14610566578063bf2d9e0b1461058657600080fd5b80637a424959116100dc5780637a424959146104b757806391cca3db146104d157806395d89b41146104f1578063a22cb4651461050657600080fd5b80636352211e1461042d5780636817c76c1461044d57806370a0823114610481578063717a002b146104a157600080fd5b80632f745c59116101905780634bf365df1161015f5780634bf365df146103a35780634e2bafa4146103b85780634e71d92d146103d85780634f6ccce7146103ed57806359744c0a1461040d57600080fd5b80632f745c5914610339578063309d52b6146103595780633dbdaa0f1461036e57806342842e0e1461038357600080fd5b80631249c58b116101cc5780631249c58b146102d257806318160ddd146102da57806318916818146102f957806323b872dd1461031957600080fd5b806301ffc9a71461022157806306fdde0314610256578063081812fc14610278578063095ea7b3146102b057600080fd5b3661021c5734600b600082825461021491906121fa565b925050819055005b600080fd5b34801561022d57600080fd5b5061024161023c366004612223565b610686565b60405190151581526020015b60405180910390f35b34801561026257600080fd5b5061026b6106b1565b60405161024d9190612297565b34801561028457600080fd5b506102986102933660046122aa565b610743565b6040516001600160a01b03909116815260200161024d565b3480156102bc57600080fd5b506102d06102cb3660046122df565b61076a565b005b6102d0610884565b3480156102e657600080fd5b506009545b60405190815260200161024d565b34801561030557600080fd5b506102d06103143660046122df565b610a65565b34801561032557600080fd5b506102d0610334366004612309565b610ab0565b34801561034557600080fd5b506102eb6103543660046122df565b610ae1565b34801561036557600080fd5b506102d0610b77565b34801561037a57600080fd5b506102d0610bcb565b34801561038f57600080fd5b506102d061039e366004612309565b610c74565b3480156103af57600080fd5b50610241610c8f565b3480156103c457600080fd5b506102eb6103d3366004612345565b610cac565b3480156103e457600080fd5b506102d0610cfd565b3480156103f957600080fd5b506102eb6104083660046122aa565b610ea7565b34801561041957600080fd5b506102d0610428366004612360565b610f3a565b34801561043957600080fd5b506102986104483660046122aa565b611003565b34801561045957600080fd5b506102eb7f000000000000000000000000000000000000000000000000000000000000000081565b34801561048d57600080fd5b506102eb61049c366004612345565b611063565b3480156104ad57600080fd5b506102eb600d5481565b3480156104c357600080fd5b50600e546102419060ff1681565b3480156104dd57600080fd5b50600c54610298906001600160a01b031681565b3480156104fd57600080fd5b5061026b6110e9565b34801561051257600080fd5b506102d061052136600461238c565b6110f8565b34801561053257600080fd5b506102d06105413660046123c8565b611103565b34801561055257600080fd5b506102eb6105613660046122aa565b611329565b34801561057257600080fd5b506102d0610581366004612400565b611367565b34801561059257600080fd5b506102eb600b5481565b3480156105a857600080fd5b5061026b6105b73660046122aa565b61139f565b3480156105c857600080fd5b506102eb7f000000000000000000000000000000000000000000000000000000000000000081565b3480156105fc57600080fd5b506102eb61060b3660046122aa565b6113fd565b34801561061c57600080fd5b506102eb61062b3660046122aa565b600f6020526000908152604090205481565b34801561064957600080fd5b506102416106583660046124dc565b6001600160a01b03918216600090815260066020908152604080832093909416825291909152205460ff1690565b60006001600160e01b0319821663780e9d6360e01b14806106ab57506106ab82611612565b92915050565b6060600180546106c090612506565b80601f01602080910402602001604051908101604052809291908181526020018280546106ec90612506565b80156107395780601f1061070e57610100808354040283529160200191610739565b820191906000526020600020905b81548152906001019060200180831161071c57829003601f168201915b5050505050905090565b600061074e82611662565b506000908152600560205260409020546001600160a01b031690565b600061077582611003565b9050806001600160a01b0316836001600160a01b0316036107e75760405162461bcd60e51b815260206004820152602160248201527f4552433732313a20617070726f76616c20746f2063757272656e74206f776e656044820152603960f91b60648201526084015b60405180910390fd5b336001600160a01b038216148061080357506108038133610658565b6108755760405162461bcd60e51b815260206004820152603d60248201527f4552433732313a20617070726f76652063616c6c6572206973206e6f7420746f60448201527f6b656e206f776e6572206f7220617070726f76656420666f7220616c6c00000060648201526084016107de565b61087f83836116c4565b505050565b61088c611732565b7f000000000000000000000000000000000000000000000000000000000000000034146108ec5760405162461bcd60e51b815260206004820152600e60248201526d125b9d985b1a5908105b5bdd5b9d60921b60448201526064016107de565b7f000000000000000000000000000000000000000000000000000000000000000061091660095490565b1061094d5760405162461bcd60e51b815260206004820152600760248201526610d85c081b595d60ca1b60448201526064016107de565b610955610c8f565b61098e5760405162461bcd60e51b815260206004820152600a602482015269135a5b9d08195b99195960b21b60448201526064016107de565b600c546040516000916001600160a01b03169034908381818185875af1925050503d80600081146109db576040519150601f19603f3d011682016040523d82523d6000602084013e6109e0565b606091505b5050905080610a015760405162461bcd60e51b81526004016107de90612540565b610a1e33610a0e60095490565b610a199060016121fa565b61178b565b7f0000000000000000000000000000000000000000000000000000000000000000610a4860095490565b03610a5857600e805460ff191690555b50610a636001600055565b565b7f0000000000000000000000000000000000000000000000000000000000000000610a8f60095490565b10610aac5760405162461bcd60e51b81526004016107de9061256e565b5050565b610aba33826117ec565b610ad65760405162461bcd60e51b81526004016107de906125b0565b61087f83838361186a565b6000610aec83611063565b8210610b4e5760405162461bcd60e51b815260206004820152602b60248201527f455243373231456e756d657261626c653a206f776e657220696e646578206f7560448201526a74206f6620626f756e647360a81b60648201526084016107de565b506001600160a01b03919091166000908152600760209081526040808320938352929052205490565b600c546001600160a01b03163314610bbf5760405162461bcd60e51b815260206004820152600b60248201526a139bdd08185b1b1bddd95960aa1b60448201526064016107de565b600e805460ff19169055565b600c546001600160a01b03163314610c135760405162461bcd60e51b815260206004820152600b60248201526a139bdd08185b1b1bddd95960aa1b60448201526064016107de565b600d5415610c555760405162461bcd60e51b815260206004820152600f60248201526e105b1c9958591e481cdd185c9d1959608a1b60448201526064016107de565b610c6242620697806121fa565b600d55600e805460ff19166001179055565b61087f83838360405180602001604052806000815250611367565b600e5460009060ff1615610ca65750600d54421090565b50600090565b60008060005b610cbb84611063565b811015610cf6576000610cce8583610ae1565b90506000610cdb82611329565b9050610ce781856121fa565b93508260010192505050610cb2565b5092915050565b610d05611732565b600e5460ff1615610d4a5760405162461bcd60e51b815260206004820152600f60248201526e10d85b89dd0818db185a5b481e595d608a1b60448201526064016107de565b6000610d5533611063565b11610d945760405162461bcd60e51b815260206004820152600f60248201526e139bc81d1bdad95b9cc81bdddb9959608a1b60448201526064016107de565b6000805b610da133611063565b811015610e05576000610db43383610ae1565b90506000610dc182611329565b9050610dcd81856121fa565b935080600f60008481526020019081526020016000206000828254610df291906121fa565b909155505060019092019150610d989050565b50604051600090339083908381818185875af1925050503d8060008114610e48576040519150601f19603f3d011682016040523d82523d6000602084013e610e4d565b606091505b5050905080610e6e5760405162461bcd60e51b81526004016107de90612540565b604051829033907fd8138f8a3f377c5259ca548e70e4c2de94f129f5a11036a15b69513cba2b426a90600090a35050610a636001600055565b6000610eb260095490565b8210610f155760405162461bcd60e51b815260206004820152602c60248201527f455243373231456e756d657261626c653a20676c6f62616c20696e646578206f60448201526b7574206f6620626f756e647360a01b60648201526084016107de565b60098281548110610f2857610f286125fd565b90600052602060002001549050919050565b6000610f4583611329565b90508015610fcf576000826001600160a01b03168260405160006040518083038185875af1925050503d8060008114610f9a576040519150601f19603f3d011682016040523d82523d6000602084013e610f9f565b606091505b505090508015610fcd576000848152600f602052604081208054849290610fc79084906121fa565b90915550505b505b6040518390829033907f475114ff2b14a1d7e3fc6dcf3e5b7505db1574cf812eaca6022fc8f951bd812690600090a4505050565b6000818152600360205260408120546001600160a01b0316806106ab5760405162461bcd60e51b8152602060048201526018602482015277115490cdcc8c4e881a5b9d985b1a59081d1bdad95b88125160421b60448201526064016107de565b60006001600160a01b0382166110cd5760405162461bcd60e51b815260206004820152602960248201527f4552433732313a2061646472657373207a65726f206973206e6f7420612076616044820152683634b21037bbb732b960b91b60648201526084016107de565b506001600160a01b031660009081526004602052604090205490565b6060600280546106c090612506565b610aac3383836119db565b61110b611732565b600e5460ff16156111505760405162461bcd60e51b815260206004820152600f60248201526e10d85b89dd0818db185a5b481e595d608a1b60448201526064016107de565b600061115b33611063565b1161119a5760405162461bcd60e51b815260206004820152600f60248201526e139bc81d1bdad95b9cc81bdddb9959608a1b60448201526064016107de565b808211156111e25760405162461bcd60e51b815260206004820152601560248201527424b93932b3bab630b91034b739ba393ab1ba34b7b760591b60448201526064016107de565b60006111ef8260016121fa565b6111f833611063565b101561121657600161120933611063565b6112139190612613565b91505b825b6112238360016121fa565b8110156112875760006112363383610ae1565b9050600061124382611329565b905061124f81856121fa565b935080600f6000848152602001908152602001600020600082825461127491906121fa565b9091555050600190920191506112189050565b50604051600090339083908381818185875af1925050503d80600081146112ca576040519150601f19603f3d011682016040523d82523d6000602084013e6112cf565b606091505b50509050806112f05760405162461bcd60e51b81526004016107de90612540565b604051829033907fd8138f8a3f377c5259ca548e70e4c2de94f129f5a11036a15b69513cba2b426a90600090a35050610aac6001600055565b60008061133560095490565b600b546113429190612626565b6000848152600f60205260408120549192509061135f9083612613565b949350505050565b61137133836117ec565b61138d5760405162461bcd60e51b81526004016107de906125b0565b61139984848484611aa9565b50505050565b606060006113ac83611adc565b6040516020016113bc9190612648565b60405160208183030381529060405290506113d681611b6f565b6040516020016113e691906127bb565b604051602081830303815290604052915050919050565b60006106ab82611329565b6114128383611cc2565b61141f6000848484611e5b565b61087f5760405162461bcd60e51b81526004016107de90612800565b6001600160a01b03163b151590565b6114568484848461158a565b60018111156114c55760405162461bcd60e51b815260206004820152603560248201527f455243373231456e756d657261626c653a20636f6e7365637574697665207472604482015274185b9cd9995c9cc81b9bdd081cdd5c1c1bdc9d1959605a1b60648201526084016107de565b816001600160a01b0385166115215761151c81600980546000838152600a60205260408120829055600182018355919091527f6e1540171b6c0c960b71a7020d9f60077f6af931a8bbf590da0223dacf75c7af0155565b611544565b836001600160a01b0316856001600160a01b031614611544576115448582611f5c565b6001600160a01b0384166115605761155b81611ff9565b611583565b846001600160a01b0316846001600160a01b0316146115835761158384826120a8565b5050505050565b6001811115611399576001600160a01b038416156115d0576001600160a01b038416600090815260046020526040812080548392906115ca908490612613565b90915550505b6001600160a01b03831615611399576001600160a01b038316600090815260046020526040812080548392906116079084906121fa565b909155505050505050565b60006001600160e01b031982166380ac58cd60e01b148061164357506001600160e01b03198216635b5e139f60e01b145b806106ab57506301ffc9a760e01b6001600160e01b03198316146106ab565b6000818152600360205260409020546001600160a01b03166116c15760405162461bcd60e51b8152602060048201526018602482015277115490cdcc8c4e881a5b9d985b1a59081d1bdad95b88125160421b60448201526064016107de565b50565b600081815260056020526040902080546001600160a01b0319166001600160a01b03841690811790915581906116f982611003565b6001600160a01b03167f8c5be1e5ebec7d5bd14f71427d1e84f3dd0314c0f7b2291e5b200ac8c7c3b92560405160405180910390a45050565b6002600054036117845760405162461bcd60e51b815260206004820152601f60248201527f5265656e7472616e637947756172643a207265656e7472616e742063616c6c0060448201526064016107de565b6002600055565b7f00000000000000000000000000000000000000000000000000000000000000006117b560095490565b106117d25760405162461bcd60e51b81526004016107de9061256e565b610aac828260405180602001604052806000815250611408565b6000806117f883611003565b9050806001600160a01b0316846001600160a01b0316148061183f57506001600160a01b0380821660009081526006602090815260408083209388168352929052205460ff165b8061135f5750836001600160a01b031661185884610743565b6001600160a01b031614949350505050565b826001600160a01b031661187d82611003565b6001600160a01b0316146118a35760405162461bcd60e51b81526004016107de90612852565b6001600160a01b0382166119055760405162461bcd60e51b8152602060048201526024808201527f4552433732313a207472616e7366657220746f20746865207a65726f206164646044820152637265737360e01b60648201526084016107de565b61191283838360016120ec565b826001600160a01b031661192582611003565b6001600160a01b03161461194b5760405162461bcd60e51b81526004016107de90612852565b600081815260056020908152604080832080546001600160a01b03199081169091556001600160a01b0387811680865260048552838620805460001901905590871680865283862080546001019055868652600390945282852080549092168417909155905184937fddf252ad1be2c89b69c2b068fc378daa952ba7f163c4a11628f55a4df523b3ef91a4505050565b816001600160a01b0316836001600160a01b031603611a3c5760405162461bcd60e51b815260206004820152601960248201527f4552433732313a20617070726f766520746f2063616c6c65720000000000000060448201526064016107de565b6001600160a01b03838116600081815260066020908152604080832094871680845294825291829020805460ff191686151590811790915591519182527f17307eab39ab6107e8899845ad3d59bd9653f200f220920489ca2b5937696c31910160405180910390a3505050565b611ab484848461186a565b611ac084848484611e5b565b6113995760405162461bcd60e51b81526004016107de90612800565b60606000611ae98361210c565b600101905060008167ffffffffffffffff811115611b0957611b096123ea565b6040519080825280601f01601f191660200182016040528015611b33576020820181803683370190505b5090508181016020015b600019016f181899199a1a9b1b9c1cb0b131b232b360811b600a86061a8153600a8504945084611b3d57509392505050565b60608151600003611b8e57505060408051602081019091526000815290565b600060405180606001604052806040815260200161291f6040913990506000600384516002611bbd91906121fa565b611bc79190612626565b611bd2906004612897565b67ffffffffffffffff811115611bea57611bea6123ea565b6040519080825280601f01601f191660200182016040528015611c14576020820181803683370190505b509050600182016020820185865187015b80821015611c80576003820191508151603f8160121c168501518453600184019350603f81600c1c168501518453600184019350603f8160061c168501518453600184019350603f8116850151845350600183019250611c25565b5050600386510660018114611c9c5760028114611caf57611cb7565b603d6001830353603d6002830353611cb7565b603d60018303535b509195945050505050565b6001600160a01b038216611d185760405162461bcd60e51b815260206004820181905260248201527f4552433732313a206d696e7420746f20746865207a65726f206164647265737360448201526064016107de565b6000818152600360205260409020546001600160a01b031615611d7d5760405162461bcd60e51b815260206004820152601c60248201527f4552433732313a20746f6b656e20616c7265616479206d696e7465640000000060448201526064016107de565b611d8b6000838360016120ec565b6000818152600360205260409020546001600160a01b031615611df05760405162461bcd60e51b815260206004820152601c60248201527f4552433732313a20746f6b656e20616c7265616479206d696e7465640000000060448201526064016107de565b6001600160a01b038216600081815260046020908152604080832080546001019055848352600390915280822080546001600160a01b0319168417905551839291907fddf252ad1be2c89b69c2b068fc378daa952ba7f163c4a11628f55a4df523b3ef908290a45050565b60006001600160a01b0384163b15611f5157604051630a85bd0160e11b81526001600160a01b0385169063150b7a0290611e9f9033908990889088906004016128ae565b6020604051808303816000875af1925050508015611eda575060408051601f3d908101601f19168201909252611ed7918101906128eb565b60015b611f37573d808015611f08576040519150601f19603f3d011682016040523d82523d6000602084013e611f0d565b606091505b508051600003611f2f5760405162461bcd60e51b81526004016107de90612800565b805181602001fd5b6001600160e01b031916630a85bd0160e11b14905061135f565b506001949350505050565b60006001611f6984611063565b611f739190612613565b600083815260086020526040902054909150808214611fc6576001600160a01b03841660009081526007602090815260408083208584528252808320548484528184208190558352600890915290208190555b5060009182526008602090815260408084208490556001600160a01b039094168352600781528383209183525290812055565b60095460009061200b90600190612613565b6000838152600a602052604081205460098054939450909284908110612033576120336125fd565b906000526020600020015490508060098381548110612054576120546125fd565b6000918252602080832090910192909255828152600a9091526040808220849055858252812055600980548061208c5761208c612908565b6001900381819060005260206000200160009055905550505050565b60006120b383611063565b6001600160a01b039093166000908152600760209081526040808320868452825280832085905593825260089052919091209190915550565b6120f88484848461144a565b600e5460ff16611399576113998285610f3a565b60008072184f03e93ff9f4daa797ed6e38ed64bf6a1f0160401b831061214b5772184f03e93ff9f4daa797ed6e38ed64bf6a1f0160401b830492506040015b6d04ee2d6d415b85acef81000000008310612177576d04ee2d6d415b85acef8100000000830492506020015b662386f26fc10000831061219557662386f26fc10000830492506010015b6305f5e10083106121ad576305f5e100830492506008015b61271083106121c157612710830492506004015b606483106121d3576064830492506002015b600a83106106ab5760010192915050565b634e487b7160e01b600052601160045260246000fd5b808201808211156106ab576106ab6121e4565b6001600160e01b0319811681146116c157600080fd5b60006020828403121561223557600080fd5b81356122408161220d565b9392505050565b60005b8381101561226257818101518382015260200161224a565b50506000910152565b60008151808452612283816020860160208601612247565b601f01601f19169290920160200192915050565b602081526000612240602083018461226b565b6000602082840312156122bc57600080fd5b5035919050565b80356001600160a01b03811681146122da57600080fd5b919050565b600080604083850312156122f257600080fd5b6122fb836122c3565b946020939093013593505050565b60008060006060848603121561231e57600080fd5b612327846122c3565b9250612335602085016122c3565b9150604084013590509250925092565b60006020828403121561235757600080fd5b612240826122c3565b6000806040838503121561237357600080fd5b82359150612383602084016122c3565b90509250929050565b6000806040838503121561239f57600080fd5b6123a8836122c3565b9150602083013580151581146123bd57600080fd5b809150509250929050565b600080604083850312156123db57600080fd5b50508035926020909101359150565b634e487b7160e01b600052604160045260246000fd5b6000806000806080858703121561241657600080fd5b61241f856122c3565b935061242d602086016122c3565b925060408501359150606085013567ffffffffffffffff8082111561245157600080fd5b818701915087601f83011261246557600080fd5b813581811115612477576124776123ea565b604051601f8201601f19908116603f0116810190838211818310171561249f5761249f6123ea565b816040528281528a60208487010111156124b857600080fd5b82602086016020830137600060208483010152809550505050505092959194509250565b600080604083850312156124ef57600080fd5b6124f8836122c3565b9150612383602084016122c3565b600181811c9082168061251a57607f821691505b60208210810361253a57634e487b7160e01b600052602260045260246000fd5b50919050565b6020808252601490820152732330b4b632b2103a379039b2b7321032ba3432b960611b604082015260600190565b60208082526022908201527f5377696d6368696d70733a204d6178696d756d20737570706c79207265616368604082015261195960f21b606082015260800190565b6020808252602d908201527f4552433732313a2063616c6c6572206973206e6f7420746f6b656e206f776e6560408201526c1c881bdc88185c1c1c9bdd9959609a1b606082015260800190565b634e487b7160e01b600052603260045260246000fd5b818103818111156106ab576106ab6121e4565b60008261264357634e487b7160e01b600052601260045260246000fd5b500490565b607b60f81b815273226e616d65223a20225377696d2050617373202360601b60018201528151600090612682816015850160208701612247565b61088b60f21b6015918401918201527f22696d616765223a2022697066733a2f2f6261666b726569626573626b37617560178201527f62726e34616f73356a6c78673276707966776b72786e707a706d63716c35783260378201526d189c58d99d9c590dde9e9958488b60921b60578201527f22696d6167655f75726c223a2022697066733a2f2f6261666b7265696265736260658201527f6b37617562726e34616f73356a6c78673276707966776b72786e707a706d63716085820152711b0d5e0c989c58d99d9c590dde9e9958488b60721b60a58201527f226465736372697074696f6e223a2022506c756720796f75722070617373206160b78201527f742068747470733a2f2f7377696d706f6f6c2e6c6f616e20212200000000000060d782015261135f60f18201607d60f81b815260010190565b7f646174613a6170706c69636174696f6e2f6a736f6e3b6261736536342c0000008152600082516127f381601d850160208701612247565b91909101601d0192915050565b60208082526032908201527f4552433732313a207472616e7366657220746f206e6f6e20455243373231526560408201527131b2b4bb32b91034b6b83632b6b2b73a32b960711b606082015260800190565b60208082526025908201527f4552433732313a207472616e736665722066726f6d20696e636f72726563742060408201526437bbb732b960d91b606082015260800190565b80820281158282048414176106ab576106ab6121e4565b6001600160a01b03858116825284166020820152604081018390526080606082018190526000906128e19083018461226b565b9695505050505050565b6000602082840312156128fd57600080fd5b81516122408161220d565b634e487b7160e01b600052603160045260246000fdfe4142434445464748494a4b4c4d4e4f505152535455565758595a6162636465666768696a6b6c6d6e6f707172737475767778797a303132333435363738392b2fa26469706673582212201e4ca1246fa07a0d74bdfbcf98c1081e6733a85b389cfce3a0883b920de5108264736f6c634300081200334552433732313a207472616e7366657220746f206e6f6e204552433732315265",
    "linkReferences": {}
  },
  "methodIdentifiers": {
    "_createOffer(address,uint256,uint256)": "842ba8dd",
    "_editOffer(address,uint256,uint256)": "230104b8",
    "acceptLoan(address,address,uint256)": "eb269031",
    "claimCollateral(uint256)": "c49785b4",
    "createOffers((address,uint256,uint256)[])": "65ec4607",
    "dealCounter()": "217328b6",
    "deleteOffers(address[])": "859c5bf8",
    "depositFunds()": "e2c41dbc",
    "editOffers((address,uint256,uint256)[])": "9416ca78",
    "extendLoan(uint256)": "7ace2ac9",
    "getAdditionalCollaterals(address)": "5974930e",
    "getDeal(uint256)": "82fd5bac",
    "getFunds(address)": "decebbce",
    "getOffer(address,address)": "a4b48828",
    "increaseCounter()": "b49004e9",
    "isOfferAvailable(address,address)": "cf58aa7b",
    "onERC721Received(address,address,uint256,bytes)": "150b7a02",
    "protocolBalance()": "61e98db8",
    "protocolFee()": "b0e21e8a",
    "repayLoan(uint256)": "ab7b1c89",
    "s_additions(address)": "9466e0ba",
    "s_deals(uint256)": "5c411784",
    "s_funds(address)": "ba654719",
    "s_offers(address,address)": "2b286fcf",
    "swimpass()": "48335af6",
    "withdrawFunds(uint256)": "155dd5ee"
  },
  "id": 32
}