{
  "abi": [
    {
      "inputs": [],
      "stateMutability": "nonpayable",
      "type": "constructor"
    },
    {
      "inputs": [
        {
          "internalType": "address",
          "name": "router",
          "type": "address"
        },
        {
          "internalType": "address",
          "name": "pool1",
          "type": "address"
        },
        {
          "internalType": "address",
          "name": "pool2",
          "type": "address"
        },
        {
          "internalType": "uint256",
          "name": "amount1_maxIn",
          "type": "uint256"
        },
        {
          "internalType": "uint256",
          "name": "amount1_out",
          "type": "uint256"
        },
        {
          "internalType": "uint256",
          "name": "amount2_maxIn",
          "type": "uint256"
        },
        {
          "internalType": "uint256",
          "name": "amount2_out",
          "type": "uint256"
        }
      ],
      "name": "encodeUserData",
      "outputs": [
        {
          "internalType": "bytes",
          "name": "",
          "type": "bytes"
        }
      ],
      "stateMutability": "pure",
      "type": "function"
    },
    {
      "inputs": [
        {
          "internalType": "contract IERC20[]",
          "name": "tokens",
          "type": "address[]"
        },
        {
          "internalType": "uint256[]",
          "name": "amounts",
          "type": "uint256[]"
        },
        {
          "internalType": "bytes",
          "name": "userData",
          "type": "bytes"
        }
      ],
      "name": "makeFlashLoan",
      "outputs": [],
      "stateMutability": "nonpayable",
      "type": "function"
    },
    {
      "inputs": [],
      "name": "poolFee",
      "outputs": [
        {
          "internalType": "uint24",
          "name": "",
          "type": "uint24"
        }
      ],
      "stateMutability": "view",
      "type": "function"
    },
    {
      "inputs": [],
      "name": "quickRouter",
      "outputs": [
        {
          "internalType": "contract ISwapRouter",
          "name": "",
          "type": "address"
        }
      ],
      "stateMutability": "view",
      "type": "function"
    },
    {
      "inputs": [
        {
          "internalType": "contract IERC20[]",
          "name": "tokens",
          "type": "address[]"
        },
        {
          "internalType": "uint256[]",
          "name": "amounts",
          "type": "uint256[]"
        },
        {
          "internalType": "uint256[]",
          "name": "feeAmounts",
          "type": "uint256[]"
        },
        {
          "internalType": "bytes",
          "name": "userData",
          "type": "bytes"
        }
      ],
      "name": "receiveFlashLoan",
      "outputs": [],
      "stateMutability": "nonpayable",
      "type": "function"
    },
    {
      "inputs": [
        {
          "internalType": "address",
          "name": "tokenIn",
          "type": "address"
        },
        {
          "internalType": "address",
          "name": "tokenOut",
          "type": "address"
        },
        {
          "internalType": "uint256",
          "name": "amountIn",
          "type": "uint256"
        },
        {
          "internalType": "address",
          "name": "router",
          "type": "address"
        }
      ],
      "name": "swapExactInputSingle",
      "outputs": [
        {
          "internalType": "uint256",
          "name": "amountOut",
          "type": "uint256"
        }
      ],
      "stateMutability": "nonpayable",
      "type": "function"
    },
    {
      "inputs": [
        {
          "internalType": "address",
          "name": "tokenIn",
          "type": "address"
        },
        {
          "internalType": "address",
          "name": "tokenOut",
          "type": "address"
        },
        {
          "internalType": "uint256",
          "name": "amountOut",
          "type": "uint256"
        },
        {
          "internalType": "uint256",
          "name": "amountInMaximum",
          "type": "uint256"
        },
        {
          "internalType": "address",
          "name": "router",
          "type": "address"
        }
      ],
      "name": "swapExactOutputSingle",
      "outputs": [
        {
          "internalType": "uint256",
          "name": "amountIn",
          "type": "uint256"
        }
      ],
      "stateMutability": "nonpayable",
      "type": "function"
    },
    {
      "inputs": [],
      "name": "uniRouter",
      "outputs": [
        {
          "internalType": "contract ISwapRouter",
          "name": "",
          "type": "address"
        }
      ],
      "stateMutability": "view",
      "type": "function"
    }
  ],
  "bytecode": {
    "object": "0x6080604052600180546001600160a01b031990811673f5b509bb0909a69b1c207e495f687a596c168e12179091556002805490911673e592427a0aece92de3edee1f18e0157c0586156417905534801561005857600080fd5b50600080546001600160a01b03191673ba12222222228d8ba445958a75a0704d566bf2c8179055610eea8061008e6000396000f3fe608060405234801561001057600080fd5b50600436106100885760003560e01c8063a0e47bf61161005b578063a0e47bf61461016a578063ae0ef2c71461017d578063c9a6956214610190578063f04f2707146101a557600080fd5b8063089fe6aa1461008d578063312114f0146100af5780636f2560d11461011e5780638d252c621461013f575b600080fd5b610096610bb881565b60405162ffffff90911681526020015b60405180910390f35b6101116100bd3660046107ff565b604080516001600160a01b03988916602082015296881687820152949096166060860152608085019290925260a084015260c083015260e08083019390935280518083039093018352610100909101905290565b6040516100a691906108bd565b61013161012c3660046108d7565b6101b8565b6040519081526020016100a6565b600154610152906001600160a01b031681565b6040516001600160a01b0390911681526020016100a6565b600254610152906001600160a01b031681565b61013161018b36600461092a565b61027f565b6101a361019e366004610b33565b610347565b005b6101a36101b3366004610bbb565b6103b4565b60006101c58583856105a1565b60408051610100810182526001600160a01b0380881682528681166020830152610bb88284015230606083015242608083015260a08201869052600060c0830181905260e0830152915163414bf38960e01b8152909184169063414bf38990610232908490600401610c68565b6020604051808303816000875af1158015610251573d6000803e3d6000fd5b505050506040513d601f19601f820116820180604052508101906102759190610cd8565b9695505050505050565b600061028c8683856105a1565b60408051610100810182526001600160a01b0380891682528781166020830152610bb88284015230606083015242608083015260a0820187905260c08201869052600060e08301529151631b67c43360e31b8152909184169063db3e2198906102f9908490600401610c68565b6020604051808303816000875af1158015610318573d6000803e3d6000fd5b505050506040513d601f19601f8201168201806040525081019061033c9190610cd8565b979650505050505050565b600054604051632e1c224f60e11b81526001600160a01b0390911690635c38449e9061037d903090879087908790600401610cf1565b600060405180830381600087803b15801561039757600080fd5b505af11580156103ab573d6000803e3d6000fd5b50505050505050565b6000546001600160a01b031633146103cb57600080fd5b60008060008060008060006103df886106a5565b96509650965096509650965096506000866001600160a01b0316630dfe16816040518163ffffffff1660e01b8152600401602060405180830381865afa15801561042d573d6000803e3d6000fd5b505050506040513d601f19601f820116820180604052508101906104519190610d8d565b90506000876001600160a01b031663d21220a76040518163ffffffff1660e01b8152600401602060405180830381865afa158015610493573d6000803e3d6000fd5b505050506040513d601f19601f820116820180604052508101906104b79190610d8d565b90506000876001600160a01b0316630dfe16816040518163ffffffff1660e01b8152600401602060405180830381865afa1580156104f9573d6000803e3d6000fd5b505050506040513d601f19601f8201168201806040525081019061051d9190610d8d565b90506000886001600160a01b031663d21220a76040518163ffffffff1660e01b8152600401602060405180830381865afa15801561055f573d6000803e3d6000fd5b505050506040513d601f19601f820116820180604052508101906105839190610d8d565b90506105908f8f8f6106db565b505050505050505050505050505050565b604080516001600160a01b038481166024830152604480830185905283518084039091018152606490920183526020820180516001600160e01b031663095ea7b360e01b17905291516000928392908716916105fd9190610daa565b6000604051808303816000865af19150503d806000811461063a576040519150601f19603f3d011682016040523d82523d6000602084013e61063f565b606091505b50915091508180156106695750805115806106695750808060200190518101906106699190610dc6565b61069e5760405162461bcd60e51b8152602060048201526002602482015261534160f01b604482015260640160405180910390fd5b5050505050565b6000806000806000806000878060200190518101906106c49190610de8565b959e949d50929b5090995097509550909350915050565b60005b83518110156107e1578381815181106106f9576106f9610e5c565b60200260200101516001600160a01b031663a9059cbb60008054906101000a90046001600160a01b031684848151811061073557610735610e5c565b602002602001015186858151811061074f5761074f610e5c565b60200260200101516107619190610e88565b6040516001600160e01b031960e085901b1681526001600160a01b03909216600483015260248201526044016020604051808303816000875af11580156107ac573d6000803e3d6000fd5b505050506040513d601f19601f820116820180604052508101906107d09190610dc6565b506107da81610e9b565b90506106de565b50505050565b6001600160a01b03811681146107fc57600080fd5b50565b600080600080600080600060e0888a03121561081a57600080fd5b8735610825816107e7565b96506020880135610835816107e7565b95506040880135610845816107e7565b969995985095966060810135965060808101359560a0820135955060c0909101359350915050565b60005b83811015610888578181015183820152602001610870565b50506000910152565b600081518084526108a981602086016020860161086d565b601f01601f19169290920160200192915050565b6020815260006108d06020830184610891565b9392505050565b600080600080608085870312156108ed57600080fd5b84356108f8816107e7565b93506020850135610908816107e7565b925060408501359150606085013561091f816107e7565b939692955090935050565b600080600080600060a0868803121561094257600080fd5b853561094d816107e7565b9450602086013561095d816107e7565b93506040860135925060608601359150608086013561097b816107e7565b809150509295509295909350565b634e487b7160e01b600052604160045260246000fd5b604051601f8201601f1916810167ffffffffffffffff811182821017156109c8576109c8610989565b604052919050565b600067ffffffffffffffff8211156109ea576109ea610989565b5060051b60200190565b600082601f830112610a0557600080fd5b81356020610a1a610a15836109d0565b61099f565b82815260059290921b84018101918181019086841115610a3957600080fd5b8286015b84811015610a5d578035610a50816107e7565b8352918301918301610a3d565b509695505050505050565b600082601f830112610a7957600080fd5b81356020610a89610a15836109d0565b82815260059290921b84018101918181019086841115610aa857600080fd5b8286015b84811015610a5d5780358352918301918301610aac565b600082601f830112610ad457600080fd5b813567ffffffffffffffff811115610aee57610aee610989565b610b01601f8201601f191660200161099f565b818152846020838601011115610b1657600080fd5b816020850160208301376000918101602001919091529392505050565b600080600060608486031215610b4857600080fd5b833567ffffffffffffffff80821115610b6057600080fd5b610b6c878388016109f4565b94506020860135915080821115610b8257600080fd5b610b8e87838801610a68565b93506040860135915080821115610ba457600080fd5b50610bb186828701610ac3565b9150509250925092565b60008060008060808587031215610bd157600080fd5b843567ffffffffffffffff80821115610be957600080fd5b610bf5888389016109f4565b95506020870135915080821115610c0b57600080fd5b610c1788838901610a68565b94506040870135915080821115610c2d57600080fd5b610c3988838901610a68565b93506060870135915080821115610c4f57600080fd5b50610c5c87828801610ac3565b91505092959194509250565b6101008101610cd2828480516001600160a01b03908116835260208083015182169084015260408083015162ffffff16908401526060808301518216908401526080808301519084015260a0828101519084015260c0808301519084015260e09182015116910152565b92915050565b600060208284031215610cea57600080fd5b5051919050565b6001600160a01b0385811682526080602080840182905286519184018290526000928782019290919060a0860190855b81811015610d3f578551851683529483019491830191600101610d21565b5050858103604087015287518082529082019350915080870160005b83811015610d7757815185529382019390820190600101610d5b565b50505050828103606084015261033c8185610891565b600060208284031215610d9f57600080fd5b81516108d0816107e7565b60008251610dbc81846020870161086d565b9190910192915050565b600060208284031215610dd857600080fd5b815180151581146108d057600080fd5b600080600080600080600060e0888a031215610e0357600080fd5b8751610e0e816107e7565b6020890151909750610e1f816107e7565b6040890151909650610e30816107e7565b80955050606088015193506080880151925060a0880151915060c0880151905092959891949750929550565b634e487b7160e01b600052603260045260246000fd5b634e487b7160e01b600052601160045260246000fd5b80820180821115610cd257610cd2610e72565b600060018201610ead57610ead610e72565b506001019056fea2646970667358221220ed81fe0db0193867d7a3ac7b3b2fd692ab4029acb2aff0a21c3faef4e28215fc64736f6c63430008150033",
    "linkReferences": {}
  },
  "methodIdentifiers": {
    "encodeUserData(address,address,address,uint256,uint256,uint256,uint256)": "312114f0",
    "makeFlashLoan(address[],uint256[],bytes)": "c9a69562",
    "poolFee()": "089fe6aa",
    "quickRouter()": "8d252c62",
    "receiveFlashLoan(address[],uint256[],uint256[],bytes)": "f04f2707",
    "swapExactInputSingle(address,address,uint256,address)": "6f2560d1",
    "swapExactOutputSingle(address,address,uint256,uint256,address)": "ae0ef2c7",
    "uniRouter()": "a0e47bf6"
  },
  "id": 29
}