{
  "abi": [
    {
      "inputs": [
        {
          "internalType": "string",
          "name": "name",
          "type": "string"
        },
        {
          "internalType": "string",
          "name": "symbol",
          "type": "string"
        }
      ],
      "stateMutability": "nonpayable",
      "type": "constructor"
    },
    {
      "anonymous": false,
      "inputs": [
        {
          "indexed": true,
          "internalType": "address",
          "name": "owner",
          "type": "address"
        },
        {
          "indexed": true,
          "internalType": "address",
          "name": "approved",
          "type": "address"
        },
        {
          "indexed": true,
          "internalType": "uint256",
          "name": "tokenId",
          "type": "uint256"
        }
      ],
      "name": "Approval",
      "type": "event"
    },
    {
      "anonymous": false,
      "inputs": [
        {
          "indexed": true,
          "internalType": "address",
          "name": "owner",
          "type": "address"
        },
        {
          "indexed": true,
          "internalType": "address",
          "name": "operator",
          "type": "address"
        },
        {
          "indexed": false,
          "internalType": "bool",
          "name": "approved",
          "type": "bool"
        }
      ],
      "name": "ApprovalForAll",
      "type": "event"
    },
    {
      "anonymous": false,
      "inputs": [
        {
          "indexed": true,
          "internalType": "address",
          "name": "holder",
          "type": "address"
        },
        {
          "indexed": true,
          "internalType": "uint256",
          "name": "amountClaimed",
          "type": "uint256"
        },
        {
          "indexed": true,
          "internalType": "uint256",
          "name": "tokenId",
          "type": "uint256"
        }
      ],
      "name": "AutoClaimOnTransfer",
      "type": "event"
    },
    {
      "anonymous": false,
      "inputs": [
        {
          "indexed": true,
          "internalType": "address",
          "name": "holder",
          "type": "address"
        },
        {
          "indexed": true,
          "internalType": "uint256",
          "name": "amountClaimed",
          "type": "uint256"
        }
      ],
      "name": "Claimed",
      "type": "event"
    },
    {
      "anonymous": false,
      "inputs": [
        {
          "indexed": true,
          "internalType": "address",
          "name": "from",
          "type": "address"
        },
        {
          "indexed": true,
          "internalType": "address",
          "name": "to",
          "type": "address"
        },
        {
          "indexed": true,
          "internalType": "uint256",
          "name": "tokenId",
          "type": "uint256"
        }
      ],
      "name": "Transfer",
      "type": "event"
    },
    {
      "inputs": [
        {
          "internalType": "address",
          "name": "to",
          "type": "address"
        },
        {
          "internalType": "uint256",
          "name": "tokenId",
          "type": "uint256"
        }
      ],
      "name": "approve",
      "outputs": [],
      "stateMutability": "nonpayable",
      "type": "function"
    },
    {
      "inputs": [
        {
          "internalType": "address",
          "name": "owner",
          "type": "address"
        }
      ],
      "name": "balanceOf",
      "outputs": [
        {
          "internalType": "uint256",
          "name": "",
          "type": "uint256"
        }
      ],
      "stateMutability": "view",
      "type": "function"
    },
    {
      "inputs": [],
      "name": "claim",
      "outputs": [],
      "stateMutability": "nonpayable",
      "type": "function"
    },
    {
      "inputs": [
        {
          "internalType": "uint256",
          "name": "startingIndex",
          "type": "uint256"
        },
        {
          "internalType": "uint256",
          "name": "endingIndex",
          "type": "uint256"
        }
      ],
      "name": "claimInARange",
      "outputs": [],
      "stateMutability": "nonpayable",
      "type": "function"
    },
    {
      "inputs": [],
      "name": "dev",
      "outputs": [
        {
          "internalType": "address",
          "name": "",
          "type": "address"
        }
      ],
      "stateMutability": "view",
      "type": "function"
    },
    {
      "inputs": [],
      "name": "endMintPeriod",
      "outputs": [],
      "stateMutability": "nonpayable",
      "type": "function"
    },
    {
      "inputs": [
        {
          "internalType": "uint256",
          "name": "tokenId",
          "type": "uint256"
        }
      ],
      "name": "getApproved",
      "outputs": [
        {
          "internalType": "address",
          "name": "",
          "type": "address"
        }
      ],
      "stateMutability": "view",
      "type": "function"
    },
    {
      "inputs": [
        {
          "internalType": "address",
          "name": "holder",
          "type": "address"
        }
      ],
      "name": "getRevenueAvailablePerUser",
      "outputs": [
        {
          "internalType": "uint256",
          "name": "",
          "type": "uint256"
        }
      ],
      "stateMutability": "view",
      "type": "function"
    },
    {
      "inputs": [
        {
          "internalType": "uint256",
          "name": "tokenId",
          "type": "uint256"
        }
      ],
      "name": "getRevenueAvalaiblePerToken",
      "outputs": [
        {
          "internalType": "uint256",
          "name": "",
          "type": "uint256"
        }
      ],
      "stateMutability": "view",
      "type": "function"
    },
    {
      "inputs": [
        {
          "internalType": "address",
          "name": "owner",
          "type": "address"
        },
        {
          "internalType": "address",
          "name": "operator",
          "type": "address"
        }
      ],
      "name": "isApprovedForAll",
      "outputs": [
        {
          "internalType": "bool",
          "name": "",
          "type": "bool"
        }
      ],
      "stateMutability": "view",
      "type": "function"
    },
    {
      "inputs": [],
      "name": "maxSupply",
      "outputs": [
        {
          "internalType": "uint256",
          "name": "",
          "type": "uint256"
        }
      ],
      "stateMutability": "view",
      "type": "function"
    },
    {
      "inputs": [],
      "name": "mint",
      "outputs": [],
      "stateMutability": "payable",
      "type": "function"
    },
    {
      "inputs": [],
      "name": "mintEndTime",
      "outputs": [
        {
          "internalType": "uint256",
          "name": "",
          "type": "uint256"
        }
      ],
      "stateMutability": "view",
      "type": "function"
    },
    {
      "inputs": [],
      "name": "mintOngoing",
      "outputs": [
        {
          "internalType": "bool",
          "name": "",
          "type": "bool"
        }
      ],
      "stateMutability": "view",
      "type": "function"
    },
    {
      "inputs": [],
      "name": "mintPrice",
      "outputs": [
        {
          "internalType": "uint256",
          "name": "",
          "type": "uint256"
        }
      ],
      "stateMutability": "view",
      "type": "function"
    },
    {
      "inputs": [],
      "name": "name",
      "outputs": [
        {
          "internalType": "string",
          "name": "",
          "type": "string"
        }
      ],
      "stateMutability": "view",
      "type": "function"
    },
    {
      "inputs": [
        {
          "internalType": "uint256",
          "name": "tokenId",
          "type": "uint256"
        }
      ],
      "name": "ownerOf",
      "outputs": [
        {
          "internalType": "address",
          "name": "",
          "type": "address"
        }
      ],
      "stateMutability": "view",
      "type": "function"
    },
    {
      "inputs": [
        {
          "internalType": "address",
          "name": "from",
          "type": "address"
        },
        {
          "internalType": "address",
          "name": "to",
          "type": "address"
        },
        {
          "internalType": "uint256",
          "name": "tokenId",
          "type": "uint256"
        }
      ],
      "name": "safeTransferFrom",
      "outputs": [],
      "stateMutability": "nonpayable",
      "type": "function"
    },
    {
      "inputs": [
        {
          "internalType": "address",
          "name": "from",
          "type": "address"
        },
        {
          "internalType": "address",
          "name": "to",
          "type": "address"
        },
        {
          "internalType": "uint256",
          "name": "tokenId",
          "type": "uint256"
        },
        {
          "internalType": "bytes",
          "name": "data",
          "type": "bytes"
        }
      ],
      "name": "safeTransferFrom",
      "outputs": [],
      "stateMutability": "nonpayable",
      "type": "function"
    },
    {
      "inputs": [
        {
          "internalType": "address",
          "name": "operator",
          "type": "address"
        },
        {
          "internalType": "bool",
          "name": "approved",
          "type": "bool"
        }
      ],
      "name": "setApprovalForAll",
      "outputs": [],
      "stateMutability": "nonpayable",
      "type": "function"
    },
    {
      "inputs": [],
      "name": "startMintWindow",
      "outputs": [],
      "stateMutability": "nonpayable",
      "type": "function"
    },
    {
      "inputs": [
        {
          "internalType": "bytes4",
          "name": "interfaceId",
          "type": "bytes4"
        }
      ],
      "name": "supportsInterface",
      "outputs": [
        {
          "internalType": "bool",
          "name": "",
          "type": "bool"
        }
      ],
      "stateMutability": "view",
      "type": "function"
    },
    {
      "inputs": [],
      "name": "symbol",
      "outputs": [
        {
          "internalType": "string",
          "name": "",
          "type": "string"
        }
      ],
      "stateMutability": "view",
      "type": "function"
    },
    {
      "inputs": [
        {
          "internalType": "uint256",
          "name": "index",
          "type": "uint256"
        }
      ],
      "name": "tokenByIndex",
      "outputs": [
        {
          "internalType": "uint256",
          "name": "",
          "type": "uint256"
        }
      ],
      "stateMutability": "view",
      "type": "function"
    },
    {
      "inputs": [
        {
          "internalType": "address",
          "name": "owner",
          "type": "address"
        },
        {
          "internalType": "uint256",
          "name": "index",
          "type": "uint256"
        }
      ],
      "name": "tokenOfOwnerByIndex",
      "outputs": [
        {
          "internalType": "uint256",
          "name": "",
          "type": "uint256"
        }
      ],
      "stateMutability": "view",
      "type": "function"
    },
    {
      "inputs": [
        {
          "internalType": "uint256",
          "name": "tokenId",
          "type": "uint256"
        }
      ],
      "name": "tokenURI",
      "outputs": [
        {
          "internalType": "string",
          "name": "",
          "type": "string"
        }
      ],
      "stateMutability": "pure",
      "type": "function"
    },
    {
      "inputs": [],
      "name": "totalRevenue",
      "outputs": [
        {
          "internalType": "uint256",
          "name": "",
          "type": "uint256"
        }
      ],
      "stateMutability": "view",
      "type": "function"
    },
    {
      "inputs": [],
      "name": "totalSupply",
      "outputs": [
        {
          "internalType": "uint256",
          "name": "",
          "type": "uint256"
        }
      ],
      "stateMutability": "view",
      "type": "function"
    },
    {
      "inputs": [
        {
          "internalType": "address",
          "name": "from",
          "type": "address"
        },
        {
          "internalType": "address",
          "name": "to",
          "type": "address"
        },
        {
          "internalType": "uint256",
          "name": "tokenId",
          "type": "uint256"
        }
      ],
      "name": "transferFrom",
      "outputs": [],
      "stateMutability": "nonpayable",
      "type": "function"
    },
    {
      "stateMutability": "payable",
      "type": "receive"
    }
  ],
  "bytecode": {
    "object": "0x60a06040523480156200001157600080fd5b506040516200359e3803806200359e833981016040819052620000349162000b07565b60016000819055829082906200004b838262000bff565b5060026200005a828262000bff565b5050600d80546001600160a01b03191632179055506103e8600b55600a60805260005b6064811015620000b457600d54620000ab906001600160a01b0316620000a583600162000ce1565b620000bd565b6001016200007d565b50505062000deb565b600b5460095410620001215760405162461bcd60e51b815260206004820152602260248201527f5377696d6368696d70733a204d6178696d756d20737570706c79207265616368604482015261195960f21b60648201526084015b60405180910390fd5b620001488282604051806020016040528060008152506200014c60201b6200111f1760201c565b5050565b620001588383620001c4565b62000167600084848462000365565b620001bf5760405162461bcd60e51b815260206004820152603260248201526000805160206200357e83398151915260448201527131b2b4bb32b91034b6b83632b6b2b73a32b960711b606482015260840162000118565b505050565b6001600160a01b0382166200021c5760405162461bcd60e51b815260206004820181905260248201527f4552433732313a206d696e7420746f20746865207a65726f2061646472657373604482015260640162000118565b6000818152600360205260409020546001600160a01b031615620002835760405162461bcd60e51b815260206004820152601c60248201527f4552433732313a20746f6b656e20616c7265616479206d696e74656400000000604482015260640162000118565b62000293600083836001620004c1565b6000818152600360205260409020546001600160a01b031615620002fa5760405162461bcd60e51b815260206004820152601c60248201527f4552433732313a20746f6b656e20616c7265616479206d696e74656400000000604482015260640162000118565b6001600160a01b038216600081815260046020908152604080832080546001019055848352600390915280822080546001600160a01b0319168417905551839291907fddf252ad1be2c89b69c2b068fc378daa952ba7f163c4a11628f55a4df523b3ef908290a45050565b600062000386846001600160a01b0316620004ec60201b620011521760201c565b15620004b557604051630a85bd0160e11b81526001600160a01b0385169063150b7a0290620003c090339089908890889060040162000cfd565b6020604051808303816000875af1925050508015620003fe575060408051601f3d908101601f19168201909252620003fb9181019062000d53565b60015b6200049a573d8080156200042f576040519150601f19603f3d011682016040523d82523d6000602084013e62000434565b606091505b508051600003620004925760405162461bcd60e51b815260206004820152603260248201526000805160206200357e83398151915260448201527131b2b4bb32b91034b6b83632b6b2b73a32b960711b606482015260840162000118565b805181602001fd5b6001600160e01b031916630a85bd0160e11b149050620004b9565b5060015b949350505050565b620004da84848484620004fb60201b620011611760201c565b620004e682856200065f565b50505050565b6001600160a01b03163b151590565b62000514848484846200073060201b620012a11760201c565b60018111156200058d5760405162461bcd60e51b815260206004820152603560248201527f455243373231456e756d657261626c653a20636f6e736563757469766520747260448201527f616e7366657273206e6f7420737570706f727465640000000000000000000000606482015260840162000118565b816001600160a01b038516620005ec57620005e681600980546000838152600a60205260408120829055600182018355919091527f6e1540171b6c0c960b71a7020d9f60077f6af931a8bbf590da0223dacf75c7af0155565b62000612565b836001600160a01b0316856001600160a01b0316146200061257620006128582620007bf565b6001600160a01b03841662000632576200062c816200086c565b62000658565b846001600160a01b0316846001600160a01b031614620006585762000658848262000926565b5050505050565b60006200066c8362000977565b90508015620006fc576000826001600160a01b03168260405160006040518083038185875af1925050503d8060008114620006c4576040519150601f19603f3d011682016040523d82523d6000602084013e620006c9565b606091505b505090508015620006fa5760008481526010602052604081208054849290620006f490849062000ce1565b90915550505b505b6040518390829033907f475114ff2b14a1d7e3fc6dcf3e5b7505db1574cf812eaca6022fc8f951bd812690600090a4505050565b6001811115620004e6576001600160a01b038416156200077a576001600160a01b038416600090815260046020526040812080548392906200077490849062000d86565b90915550505b6001600160a01b03831615620004e6576001600160a01b03831660009081526004602052604081208054839290620007b490849062000ce1565b909155505050505050565b60006001620007d984620009b260201b62000df21760201c565b620007e5919062000d86565b60008381526008602052604090205490915080821462000839576001600160a01b03841660009081526007602090815260408083208584528252808320548484528184208190558352600890915290208190555b5060009182526008602090815260408084208490556001600160a01b039094168352600781528383209183525290812055565b600954600090620008809060019062000d86565b6000838152600a602052604081205460098054939450909284908110620008ab57620008ab62000d9c565b906000526020600020015490508060098381548110620008cf57620008cf62000d9c565b6000918252602080832090910192909255828152600a909152604080822084905585825281205560098054806200090a576200090a62000db2565b6001900381819060005260206000200160009055905550505050565b60006200093e83620009b260201b62000df21760201c565b6001600160a01b039093166000908152600760209081526040808320868452825280832085905593825260089052919091209190915550565b6000806200098460095490565b600c5462000993919062000dc8565b60008481526010602052604081205491925090620004b9908362000d86565b60006001600160a01b03821662000a1e5760405162461bcd60e51b815260206004820152602960248201527f4552433732313a2061646472657373207a65726f206973206e6f7420612076616044820152683634b21037bbb732b960b91b606482015260840162000118565b506001600160a01b031660009081526004602052604090205490565b634e487b7160e01b600052604160045260246000fd5b60005b8381101562000a6d57818101518382015260200162000a53565b50506000910152565b600082601f83011262000a8857600080fd5b81516001600160401b038082111562000aa55762000aa562000a3a565b604051601f8301601f19908116603f0116810190828211818310171562000ad05762000ad062000a3a565b8160405283815286602085880101111562000aea57600080fd5b62000afd84602083016020890162000a50565b9695505050505050565b6000806040838503121562000b1b57600080fd5b82516001600160401b038082111562000b3357600080fd5b62000b418683870162000a76565b9350602085015191508082111562000b5857600080fd5b5062000b678582860162000a76565b9150509250929050565b600181811c9082168062000b8657607f821691505b60208210810362000ba757634e487b7160e01b600052602260045260246000fd5b50919050565b601f821115620001bf57600081815260208120601f850160051c8101602086101562000bd65750805b601f850160051c820191505b8181101562000bf75782815560010162000be2565b505050505050565b81516001600160401b0381111562000c1b5762000c1b62000a3a565b62000c338162000c2c845462000b71565b8462000bad565b602080601f83116001811462000c6b576000841562000c525750858301515b600019600386901b1c1916600185901b17855562000bf7565b600085815260208120601f198616915b8281101562000c9c5788860151825594840194600190910190840162000c7b565b508582101562000cbb5787850151600019600388901b60f8161c191681555b5050505050600190811b01905550565b634e487b7160e01b600052601160045260246000fd5b8082018082111562000cf75762000cf762000ccb565b92915050565b600060018060a01b03808716835280861660208401525083604083015260806060830152825180608084015262000d3c8160a085016020870162000a50565b601f01601f19169190910160a00195945050505050565b60006020828403121562000d6657600080fd5b81516001600160e01b03198116811462000d7f57600080fd5b9392505050565b8181038181111562000cf75762000cf762000ccb565b634e487b7160e01b600052603260045260246000fd5b634e487b7160e01b600052603160045260246000fd5b60008262000de657634e487b7160e01b600052601260045260246000fd5b500490565b60805161277062000e0e600039600081816103d3015261079701526127706000f3fe6080604052600436106101c65760003560e01c80636352211e116100f7578063a22cb46511610095578063c87b56dd11610064578063c87b56dd146104f0578063d5abeb0114610510578063dbdbe9e214610526578063e985e9c51461054657600080fd5b8063a22cb4651461047a578063a501a5111461049a578063b88d4fde146104ba578063bf2d9e0b146104da57600080fd5b8063717a002b116100d1578063717a002b146104155780637a4249591461042b57806391cca3db1461044557806395d89b411461046557600080fd5b80636352211e146103a15780636817c76c146103c157806370a08231146103f557600080fd5b80632f745c591161016457806342842e0e1161013e57806342842e0e1461032c5780634e2bafa41461034c5780634e71d92d1461036c5780634f6ccce71461038157600080fd5b80632f745c59146102e2578063309d52b6146103025780633dbdaa0f1461031757600080fd5b8063095ea7b3116101a0578063095ea7b3146102795780631249c58b1461029b57806318160ddd146102a357806323b872dd146102c257600080fd5b806301ffc9a7146101ea57806306fdde031461021f578063081812fc1461024157600080fd5b366101e55734600c60008282546101dd919061203b565b925050819055005b600080fd5b3480156101f657600080fd5b5061020a610205366004612064565b61058f565b60405190151581526020015b60405180910390f35b34801561022b57600080fd5b506102346105ba565b60405161021691906120d8565b34801561024d57600080fd5b5061026161025c3660046120eb565b61064c565b6040516001600160a01b039091168152602001610216565b34801561028557600080fd5b50610299610294366004612120565b610673565b005b61029961078d565b3480156102af57600080fd5b506009545b604051908152602001610216565b3480156102ce57600080fd5b506102996102dd36600461214a565b610927565b3480156102ee57600080fd5b506102b46102fd366004612120565b610958565b34801561030e57600080fd5b506102996109ee565b34801561032357600080fd5b50610299610a42565b34801561033857600080fd5b5061029961034736600461214a565b610ade565b34801561035857600080fd5b506102b4610367366004612186565b610af9565b34801561037857600080fd5b50610299610b4a565b34801561038d57600080fd5b506102b461039c3660046120eb565b610cff565b3480156103ad57600080fd5b506102616103bc3660046120eb565b610d92565b3480156103cd57600080fd5b506102b47f000000000000000000000000000000000000000000000000000000000000000081565b34801561040157600080fd5b506102b4610410366004612186565b610df2565b34801561042157600080fd5b506102b4600e5481565b34801561043757600080fd5b50600f5461020a9060ff1681565b34801561045157600080fd5b50600d54610261906001600160a01b031681565b34801561047157600080fd5b50610234610e78565b34801561048657600080fd5b506102996104953660046121a1565b610e87565b3480156104a657600080fd5b506102996104b53660046121dd565b610e96565b3480156104c657600080fd5b506102996104d5366004612215565b61107e565b3480156104e657600080fd5b506102b4600c5481565b3480156104fc57600080fd5b5061023461050b3660046120eb565b6110b6565b34801561051c57600080fd5b506102b4600b5481565b34801561053257600080fd5b506102b46105413660046120eb565b611114565b34801561055257600080fd5b5061020a6105613660046122f1565b6001600160a01b03918216600090815260066020908152604080832093909416825291909152205460ff1690565b60006001600160e01b0319821663780e9d6360e01b14806105b457506105b482611329565b92915050565b6060600180546105c990612324565b80601f01602080910402602001604051908101604052809291908181526020018280546105f590612324565b80156106425780601f1061061757610100808354040283529160200191610642565b820191906000526020600020905b81548152906001019060200180831161062557829003601f168201915b5050505050905090565b600061065782611379565b506000908152600560205260409020546001600160a01b031690565b600061067e82610d92565b9050806001600160a01b0316836001600160a01b0316036106f05760405162461bcd60e51b815260206004820152602160248201527f4552433732313a20617070726f76616c20746f2063757272656e74206f776e656044820152603960f91b60648201526084015b60405180910390fd5b336001600160a01b038216148061070c575061070c8133610561565b61077e5760405162461bcd60e51b815260206004820152603d60248201527f4552433732313a20617070726f76652063616c6c6572206973206e6f7420746f60448201527f6b656e206f776e6572206f7220617070726f76656420666f7220616c6c00000060648201526084016106e7565b61078883836113db565b505050565b610795611449565b7f000000000000000000000000000000000000000000000000000000000000000034146107f55760405162461bcd60e51b815260206004820152600e60248201526d125b9d985b1a5908105b5bdd5b9d60921b60448201526064016106e7565b600b5460095411156108335760405162461bcd60e51b815260206004820152600760248201526610d85c081b595d60ca1b60448201526064016106e7565b61083b6114a2565b6108745760405162461bcd60e51b815260206004820152600a602482015269135a5b9d08195b99195960b21b60448201526064016106e7565b600d546040516000916001600160a01b03169034908381818185875af1925050503d80600081146108c1576040519150601f19603f3d011682016040523d82523d6000602084013e6108c6565b606091505b50509050806108e75760405162461bcd60e51b81526004016106e79061235e565b610904336108f460095490565b6108ff90600161203b565b6114bf565b600b546009540361091a57600f805460ff191690555b506109256001600055565b565b6109313382611537565b61094d5760405162461bcd60e51b81526004016106e79061238c565b6107888383836115b6565b600061096383610df2565b82106109c55760405162461bcd60e51b815260206004820152602b60248201527f455243373231456e756d657261626c653a206f776e657220696e646578206f7560448201526a74206f6620626f756e647360a81b60648201526084016106e7565b506001600160a01b03919091166000908152600760209081526040808320938352929052205490565b600d546001600160a01b03163314610a365760405162461bcd60e51b815260206004820152600b60248201526a139bdd08185b1b1bddd95960aa1b60448201526064016106e7565b600f805460ff19169055565b600d546001600160a01b03163314610a8a5760405162461bcd60e51b815260206004820152600b60248201526a139bdd08185b1b1bddd95960aa1b60448201526064016106e7565b600e5415610acc5760405162461bcd60e51b815260206004820152600f60248201526e105b1c9958591e481cdd185c9d1959608a1b60448201526064016106e7565b610ad9426206978061203b565b600e55565b6107888383836040518060200160405280600081525061107e565b60008060005b610b0884610df2565b811015610b43576000610b1b8583610958565b90506000610b2882611727565b9050610b34818561203b565b93508260010192505050610aff565b5092915050565b610b52611449565b600f5460ff1615610b975760405162461bcd60e51b815260206004820152600f60248201526e10d85b89dd0818db185a5b481e595d608a1b60448201526064016106e7565b6000610ba233610df2565b11610be15760405162461bcd60e51b815260206004820152600f60248201526e139bc81d1bdad95b9cc81bdddb9959608a1b60448201526064016106e7565b6000805b610bee33610df2565b811015610c52576000610c013383610958565b90506000610c0e82611727565b9050610c1a818561203b565b935080601060008481526020019081526020016000206000828254610c3f919061203b565b909155505060019092019150610be59050565b50600d546040516000916001600160a01b03169083908381818185875af1925050503d8060008114610ca0576040519150601f19603f3d011682016040523d82523d6000602084013e610ca5565b606091505b5050905080610cc65760405162461bcd60e51b81526004016106e79061235e565b604051829033907fd8138f8a3f377c5259ca548e70e4c2de94f129f5a11036a15b69513cba2b426a90600090a350506109256001600055565b6000610d0a60095490565b8210610d6d5760405162461bcd60e51b815260206004820152602c60248201527f455243373231456e756d657261626c653a20676c6f62616c20696e646578206f60448201526b7574206f6620626f756e647360a01b60648201526084016106e7565b60098281548110610d8057610d806123d9565b90600052602060002001549050919050565b6000818152600360205260408120546001600160a01b0316806105b45760405162461bcd60e51b8152602060048201526018602482015277115490cdcc8c4e881a5b9d985b1a59081d1bdad95b88125160421b60448201526064016106e7565b60006001600160a01b038216610e5c5760405162461bcd60e51b815260206004820152602960248201527f4552433732313a2061646472657373207a65726f206973206e6f7420612076616044820152683634b21037bbb732b960b91b60648201526084016106e7565b506001600160a01b031660009081526004602052604090205490565b6060600280546105c990612324565b610e9233838361175d565b5050565b610e9e611449565b600f5460ff1615610ee35760405162461bcd60e51b815260206004820152600f60248201526e10d85b89dd0818db185a5b481e595d608a1b60448201526064016106e7565b6000610eee33610df2565b11610f2d5760405162461bcd60e51b815260206004820152600f60248201526e139bc81d1bdad95b9cc81bdddb9959608a1b60448201526064016106e7565b6000610f3a82600161203b565b610f4333610df2565b1015610f6057610f5233610df2565b610f5d90600161203b565b91505b825b610f6d83600161203b565b811015610fd1576000610f803383610958565b90506000610f8d82611727565b9050610f99818561203b565b935080601060008481526020019081526020016000206000828254610fbe919061203b565b909155505060019092019150610f629050565b50600d546040516000916001600160a01b03169083908381818185875af1925050503d806000811461101f576040519150601f19603f3d011682016040523d82523d6000602084013e611024565b606091505b50509050806110455760405162461bcd60e51b81526004016106e79061235e565b604051829033907fd8138f8a3f377c5259ca548e70e4c2de94f129f5a11036a15b69513cba2b426a90600090a35050610e926001600055565b6110883383611537565b6110a45760405162461bcd60e51b81526004016106e79061238c565b6110b08484848461182b565b50505050565b606060006110c38361185e565b6040516020016110d391906123ef565b60405160208183030381529060405290506110ed816118f1565b6040516020016110fd9190612562565b604051602081830303815290604052915050919050565b60006105b482611727565b6111298383611a44565b6111366000848484611bdd565b6107885760405162461bcd60e51b81526004016106e7906125a7565b6001600160a01b03163b151590565b61116d848484846112a1565b60018111156111dc5760405162461bcd60e51b815260206004820152603560248201527f455243373231456e756d657261626c653a20636f6e7365637574697665207472604482015274185b9cd9995c9cc81b9bdd081cdd5c1c1bdc9d1959605a1b60648201526084016106e7565b816001600160a01b0385166112385761123381600980546000838152600a60205260408120829055600182018355919091527f6e1540171b6c0c960b71a7020d9f60077f6af931a8bbf590da0223dacf75c7af0155565b61125b565b836001600160a01b0316856001600160a01b03161461125b5761125b8582611cde565b6001600160a01b0384166112775761127281611d7b565b61129a565b846001600160a01b0316846001600160a01b03161461129a5761129a8482611e2a565b5050505050565b60018111156110b0576001600160a01b038416156112e7576001600160a01b038416600090815260046020526040812080548392906112e19084906125f9565b90915550505b6001600160a01b038316156110b0576001600160a01b0383166000908152600460205260408120805483929061131e90849061203b565b909155505050505050565b60006001600160e01b031982166380ac58cd60e01b148061135a57506001600160e01b03198216635b5e139f60e01b145b806105b457506301ffc9a760e01b6001600160e01b03198316146105b4565b6000818152600360205260409020546001600160a01b03166113d85760405162461bcd60e51b8152602060048201526018602482015277115490cdcc8c4e881a5b9d985b1a59081d1bdad95b88125160421b60448201526064016106e7565b50565b600081815260056020526040902080546001600160a01b0319166001600160a01b038416908117909155819061141082610d92565b6001600160a01b03167f8c5be1e5ebec7d5bd14f71427d1e84f3dd0314c0f7b2291e5b200ac8c7c3b92560405160405180910390a45050565b60026000540361149b5760405162461bcd60e51b815260206004820152601f60248201527f5265656e7472616e637947756172643a207265656e7472616e742063616c6c0060448201526064016106e7565b6002600055565b600f5460009060ff16156114b95750600e54421090565b50600090565b600b546009541061151d5760405162461bcd60e51b815260206004820152602260248201527f5377696d6368696d70733a204d6178696d756d20737570706c79207265616368604482015261195960f21b60648201526084016106e7565b610e9282826040518060200160405280600081525061111f565b60008061154383610d92565b9050806001600160a01b0316846001600160a01b0316148061158a57506001600160a01b0380821660009081526006602090815260408083209388168352929052205460ff165b806115ae5750836001600160a01b03166115a38461064c565b6001600160a01b0316145b949350505050565b826001600160a01b03166115c982610d92565b6001600160a01b0316146115ef5760405162461bcd60e51b81526004016106e79061260c565b6001600160a01b0382166116515760405162461bcd60e51b8152602060048201526024808201527f4552433732313a207472616e7366657220746f20746865207a65726f206164646044820152637265737360e01b60648201526084016106e7565b61165e8383836001611e6e565b826001600160a01b031661167182610d92565b6001600160a01b0316146116975760405162461bcd60e51b81526004016106e79061260c565b600081815260056020908152604080832080546001600160a01b03199081169091556001600160a01b0387811680865260048552838620805460001901905590871680865283862080546001019055868652600390945282852080549092168417909155905184937fddf252ad1be2c89b69c2b068fc378daa952ba7f163c4a11628f55a4df523b3ef91a4505050565b60008061173360095490565b600c546117409190612651565b600084815260106020526040812054919250906115ae90836125f9565b816001600160a01b0316836001600160a01b0316036117be5760405162461bcd60e51b815260206004820152601960248201527f4552433732313a20617070726f766520746f2063616c6c65720000000000000060448201526064016106e7565b6001600160a01b03838116600081815260066020908152604080832094871680845294825291829020805460ff191686151590811790915591519182527f17307eab39ab6107e8899845ad3d59bd9653f200f220920489ca2b5937696c31910160405180910390a3505050565b6118368484846115b6565b61184284848484611bdd565b6110b05760405162461bcd60e51b81526004016106e7906125a7565b6060600061186b83611e84565b600101905060008167ffffffffffffffff81111561188b5761188b6121ff565b6040519080825280601f01601f1916602001820160405280156118b5576020820181803683370190505b5090508181016020015b600019016f181899199a1a9b1b9c1cb0b131b232b360811b600a86061a8153600a85049450846118bf57509392505050565b6060815160000361191057505060408051602081019091526000815290565b60006040518060600160405280604081526020016126fb604091399050600060038451600261193f919061203b565b6119499190612651565b611954906004612673565b67ffffffffffffffff81111561196c5761196c6121ff565b6040519080825280601f01601f191660200182016040528015611996576020820181803683370190505b509050600182016020820185865187015b80821015611a02576003820191508151603f8160121c168501518453600184019350603f81600c1c168501518453600184019350603f8160061c168501518453600184019350603f81168501518453506001830192506119a7565b5050600386510660018114611a1e5760028114611a3157611a39565b603d6001830353603d6002830353611a39565b603d60018303535b509195945050505050565b6001600160a01b038216611a9a5760405162461bcd60e51b815260206004820181905260248201527f4552433732313a206d696e7420746f20746865207a65726f206164647265737360448201526064016106e7565b6000818152600360205260409020546001600160a01b031615611aff5760405162461bcd60e51b815260206004820152601c60248201527f4552433732313a20746f6b656e20616c7265616479206d696e7465640000000060448201526064016106e7565b611b0d600083836001611e6e565b6000818152600360205260409020546001600160a01b031615611b725760405162461bcd60e51b815260206004820152601c60248201527f4552433732313a20746f6b656e20616c7265616479206d696e7465640000000060448201526064016106e7565b6001600160a01b038216600081815260046020908152604080832080546001019055848352600390915280822080546001600160a01b0319168417905551839291907fddf252ad1be2c89b69c2b068fc378daa952ba7f163c4a11628f55a4df523b3ef908290a45050565b60006001600160a01b0384163b15611cd357604051630a85bd0160e11b81526001600160a01b0385169063150b7a0290611c2190339089908890889060040161268a565b6020604051808303816000875af1925050508015611c5c575060408051601f3d908101601f19168201909252611c59918101906126c7565b60015b611cb9573d808015611c8a576040519150601f19603f3d011682016040523d82523d6000602084013e611c8f565b606091505b508051600003611cb15760405162461bcd60e51b81526004016106e7906125a7565b805181602001fd5b6001600160e01b031916630a85bd0160e11b1490506115ae565b506001949350505050565b60006001611ceb84610df2565b611cf591906125f9565b600083815260086020526040902054909150808214611d48576001600160a01b03841660009081526007602090815260408083208584528252808320548484528184208190558352600890915290208190555b5060009182526008602090815260408084208490556001600160a01b039094168352600781528383209183525290812055565b600954600090611d8d906001906125f9565b6000838152600a602052604081205460098054939450909284908110611db557611db56123d9565b906000526020600020015490508060098381548110611dd657611dd66123d9565b6000918252602080832090910192909255828152600a90915260408082208490558582528120556009805480611e0e57611e0e6126e4565b6001900381819060005260206000200160009055905550505050565b6000611e3583610df2565b6001600160a01b039093166000908152600760209081526040808320868452825280832085905593825260089052919091209190915550565b611e7a84848484611161565b6110b08285611f5c565b60008072184f03e93ff9f4daa797ed6e38ed64bf6a1f0160401b8310611ec35772184f03e93ff9f4daa797ed6e38ed64bf6a1f0160401b830492506040015b6d04ee2d6d415b85acef81000000008310611eef576d04ee2d6d415b85acef8100000000830492506020015b662386f26fc100008310611f0d57662386f26fc10000830492506010015b6305f5e1008310611f25576305f5e100830492506008015b6127108310611f3957612710830492506004015b60648310611f4b576064830492506002015b600a83106105b45760010192915050565b6000611f6783611727565b90508015611ff1576000826001600160a01b03168260405160006040518083038185875af1925050503d8060008114611fbc576040519150601f19603f3d011682016040523d82523d6000602084013e611fc1565b606091505b505090508015611fef5760008481526010602052604081208054849290611fe990849061203b565b90915550505b505b6040518390829033907f475114ff2b14a1d7e3fc6dcf3e5b7505db1574cf812eaca6022fc8f951bd812690600090a4505050565b634e487b7160e01b600052601160045260246000fd5b808201808211156105b4576105b4612025565b6001600160e01b0319811681146113d857600080fd5b60006020828403121561207657600080fd5b81356120818161204e565b9392505050565b60005b838110156120a357818101518382015260200161208b565b50506000910152565b600081518084526120c4816020860160208601612088565b601f01601f19169290920160200192915050565b60208152600061208160208301846120ac565b6000602082840312156120fd57600080fd5b5035919050565b80356001600160a01b038116811461211b57600080fd5b919050565b6000806040838503121561213357600080fd5b61213c83612104565b946020939093013593505050565b60008060006060848603121561215f57600080fd5b61216884612104565b925061217660208501612104565b9150604084013590509250925092565b60006020828403121561219857600080fd5b61208182612104565b600080604083850312156121b457600080fd5b6121bd83612104565b9150602083013580151581146121d257600080fd5b809150509250929050565b600080604083850312156121f057600080fd5b50508035926020909101359150565b634e487b7160e01b600052604160045260246000fd5b6000806000806080858703121561222b57600080fd5b61223485612104565b935061224260208601612104565b925060408501359150606085013567ffffffffffffffff8082111561226657600080fd5b818701915087601f83011261227a57600080fd5b81358181111561228c5761228c6121ff565b604051601f8201601f19908116603f011681019083821181831017156122b4576122b46121ff565b816040528281528a60208487010111156122cd57600080fd5b82602086016020830137600060208483010152809550505050505092959194509250565b6000806040838503121561230457600080fd5b61230d83612104565b915061231b60208401612104565b90509250929050565b600181811c9082168061233857607f821691505b60208210810361235857634e487b7160e01b600052602260045260246000fd5b50919050565b6020808252601490820152732330b4b632b2103a379039b2b7321032ba3432b960611b604082015260600190565b6020808252602d908201527f4552433732313a2063616c6c6572206973206e6f7420746f6b656e206f776e6560408201526c1c881bdc88185c1c1c9bdd9959609a1b606082015260800190565b634e487b7160e01b600052603260045260246000fd5b607b60f81b815273226e616d65223a20225377696d2050617373202360601b60018201528151600090612429816015850160208701612088565b61088b60f21b6015918401918201527f22696d616765223a2022697066733a2f2f6261666b726569626573626b37617560178201527f62726e34616f73356a6c78673276707966776b72786e707a706d63716c35783260378201526d189c58d99d9c590dde9e9958488b60921b60578201527f22696d6167655f75726c223a2022697066733a2f2f6261666b7265696265736260658201527f6b37617562726e34616f73356a6c78673276707966776b72786e707a706d63716085820152711b0d5e0c989c58d99d9c590dde9e9958488b60721b60a58201527f226465736372697074696f6e223a2022506c756720796f75722070617373206160b78201527f742068747470733a2f2f7377696d706f6f6c2e6c6f616e20212200000000000060d78201526115ae60f18201607d60f81b815260010190565b7f646174613a6170706c69636174696f6e2f6a736f6e3b6261736536342c00000081526000825161259a81601d850160208701612088565b91909101601d0192915050565b60208082526032908201527f4552433732313a207472616e7366657220746f206e6f6e20455243373231526560408201527131b2b4bb32b91034b6b83632b6b2b73a32b960711b606082015260800190565b818103818111156105b4576105b4612025565b60208082526025908201527f4552433732313a207472616e736665722066726f6d20696e636f72726563742060408201526437bbb732b960d91b606082015260800190565b60008261266e57634e487b7160e01b600052601260045260246000fd5b500490565b80820281158282048414176105b4576105b4612025565b6001600160a01b03858116825284166020820152604081018390526080606082018190526000906126bd908301846120ac565b9695505050505050565b6000602082840312156126d957600080fd5b81516120818161204e565b634e487b7160e01b600052603160045260246000fdfe4142434445464748494a4b4c4d4e4f505152535455565758595a6162636465666768696a6b6c6d6e6f707172737475767778797a303132333435363738392b2fa2646970667358221220dd35a95b7bcaeda7f281d820655bdce8c74bf18511fe51bc8263e976244fdaee64736f6c634300081200334552433732313a207472616e7366657220746f206e6f6e204552433732315265",
    "linkReferences": {}
  },
  "methodIdentifiers": {
    "approve(address,uint256)": "095ea7b3",
    "balanceOf(address)": "70a08231",
    "claim()": "4e71d92d",
    "claimInARange(uint256,uint256)": "a501a511",
    "dev()": "91cca3db",
    "endMintPeriod()": "309d52b6",
    "getApproved(uint256)": "081812fc",
    "getRevenueAvailablePerUser(address)": "4e2bafa4",
    "getRevenueAvalaiblePerToken(uint256)": "dbdbe9e2",
    "isApprovedForAll(address,address)": "e985e9c5",
    "maxSupply()": "d5abeb01",
    "mint()": "1249c58b",
    "mintEndTime()": "717a002b",
    "mintOngoing()": "7a424959",
    "mintPrice()": "6817c76c",
    "name()": "06fdde03",
    "ownerOf(uint256)": "6352211e",
    "safeTransferFrom(address,address,uint256)": "42842e0e",
    "safeTransferFrom(address,address,uint256,bytes)": "b88d4fde",
    "setApprovalForAll(address,bool)": "a22cb465",
    "startMintWindow()": "3dbdaa0f",
    "supportsInterface(bytes4)": "01ffc9a7",
    "symbol()": "95d89b41",
    "tokenByIndex(uint256)": "4f6ccce7",
    "tokenOfOwnerByIndex(address,uint256)": "2f745c59",
    "tokenURI(uint256)": "c87b56dd",
    "totalRevenue()": "bf2d9e0b",
    "totalSupply()": "18160ddd",
    "transferFrom(address,address,uint256)": "23b872dd"
  },
  "id": 33
}