{
  "abi": [
    {
      "inputs": [],
      "name": "_buyCount",
      "outputs": [
        {
          "internalType": "uint32",
          "name": "",
          "type": "uint32"
        }
      ],
      "stateMutability": "view",
      "type": "function"
    },
    {
      "inputs": [],
      "name": "_collection",
      "outputs": [
        {
          "internalType": "contract IERC721",
          "name": "",
          "type": "address"
        }
      ],
      "stateMutability": "view",
      "type": "function"
    },
    {
      "inputs": [],
      "name": "_initialized",
      "outputs": [
        {
          "internalType": "bool",
          "name": "",
          "type": "bool"
        }
      ],
      "stateMutability": "view",
      "type": "function"
    },
    {
      "inputs": [],
      "name": "_owner",
      "outputs": [
        {
          "internalType": "address",
          "name": "",
          "type": "address"
        }
      ],
      "stateMutability": "view",
      "type": "function"
    },
    {
      "inputs": [],
      "name": "_parent",
      "outputs": [
        {
          "internalType": "contract YakiSwap",
          "name": "",
          "type": "address"
        }
      ],
      "stateMutability": "view",
      "type": "function"
    },
    {
      "inputs": [],
      "name": "_signedCurrentOrder",
      "outputs": [
        {
          "internalType": "int256",
          "name": "",
          "type": "int256"
        }
      ],
      "stateMutability": "view",
      "type": "function"
    },
    {
      "inputs": [
        {
          "internalType": "uint256[]",
          "name": "tokenId",
          "type": "uint256[]"
        }
      ],
      "name": "batchBuyNFT",
      "outputs": [],
      "stateMutability": "nonpayable",
      "type": "function"
    },
    {
      "inputs": [
        {
          "internalType": "uint256[]",
          "name": "tokenId",
          "type": "uint256[]"
        }
      ],
      "name": "batchSellNFT",
      "outputs": [],
      "stateMutability": "payable",
      "type": "function"
    },
    {
      "inputs": [
        {
          "internalType": "uint256",
          "name": "iterations",
          "type": "uint256"
        },
        {
          "internalType": "bool",
          "name": "isSelling",
          "type": "bool"
        }
      ],
      "name": "calculateTotalPrice",
      "outputs": [
        {
          "internalType": "uint256",
          "name": "",
          "type": "uint256"
        }
      ],
      "stateMutability": "view",
      "type": "function"
    },
    {
      "inputs": [
        {
          "internalType": "uint256[]",
          "name": "tokenId",
          "type": "uint256[]"
        }
      ],
      "name": "deposit",
      "outputs": [],
      "stateMutability": "payable",
      "type": "function"
    },
    {
      "inputs": [],
      "name": "getBuyOrders",
      "outputs": [
        {
          "internalType": "uint256",
          "name": "",
          "type": "uint256"
        }
      ],
      "stateMutability": "view",
      "type": "function"
    },
    {
      "inputs": [],
      "name": "getBuyPrice",
      "outputs": [
        {
          "internalType": "uint256",
          "name": "",
          "type": "uint256"
        }
      ],
      "stateMutability": "view",
      "type": "function"
    },
    {
      "inputs": [],
      "name": "getSellOrders",
      "outputs": [
        {
          "internalType": "uint256",
          "name": "",
          "type": "uint256"
        }
      ],
      "stateMutability": "view",
      "type": "function"
    },
    {
      "inputs": [],
      "name": "getSellPrice",
      "outputs": [
        {
          "internalType": "uint256",
          "name": "",
          "type": "uint256"
        }
      ],
      "stateMutability": "view",
      "type": "function"
    },
    {
      "inputs": [],
      "name": "getSwapFee",
      "outputs": [
        {
          "internalType": "uint256",
          "name": "",
          "type": "uint256"
        }
      ],
      "stateMutability": "view",
      "type": "function"
    },
    {
      "inputs": [
        {
          "internalType": "address",
          "name": "owner",
          "type": "address"
        },
        {
          "internalType": "address",
          "name": "collection",
          "type": "address"
        }
      ],
      "name": "initialize",
      "outputs": [],
      "stateMutability": "nonpayable",
      "type": "function"
    },
    {
      "inputs": [
        {
          "internalType": "address",
          "name": "",
          "type": "address"
        },
        {
          "internalType": "address",
          "name": "",
          "type": "address"
        },
        {
          "internalType": "uint256",
          "name": "",
          "type": "uint256"
        },
        {
          "internalType": "bytes",
          "name": "",
          "type": "bytes"
        }
      ],
      "name": "onERC721Received",
      "outputs": [
        {
          "internalType": "bytes4",
          "name": "",
          "type": "bytes4"
        }
      ],
      "stateMutability": "pure",
      "type": "function"
    },
    {
      "inputs": [],
      "name": "properties",
      "outputs": [
        {
          "internalType": "uint256",
          "name": "spotPrice",
          "type": "uint256"
        },
        {
          "internalType": "uint256",
          "name": "delta",
          "type": "uint256"
        },
        {
          "internalType": "uint16",
          "name": "maxBuyOrders",
          "type": "uint16"
        },
        {
          "internalType": "uint16",
          "name": "fee",
          "type": "uint16"
        },
        {
          "internalType": "bool",
          "name": "isExponential",
          "type": "bool"
        }
      ],
      "stateMutability": "view",
      "type": "function"
    },
    {
      "inputs": [
        {
          "internalType": "uint256",
          "name": "spotPrice",
          "type": "uint256"
        },
        {
          "internalType": "uint256",
          "name": "delta",
          "type": "uint256"
        },
        {
          "internalType": "uint16",
          "name": "maxBuyOrders",
          "type": "uint16"
        },
        {
          "internalType": "uint16",
          "name": "fee",
          "type": "uint16"
        },
        {
          "internalType": "bool",
          "name": "isExponential",
          "type": "bool"
        }
      ],
      "name": "setPoolProperties",
      "outputs": [],
      "stateMutability": "nonpayable",
      "type": "function"
    },
    {
      "inputs": [
        {
          "internalType": "uint256",
          "name": "tokenIn",
          "type": "uint256"
        },
        {
          "internalType": "uint256",
          "name": "tokenOut",
          "type": "uint256"
        }
      ],
      "name": "swapNFT",
      "outputs": [],
      "stateMutability": "payable",
      "type": "function"
    },
    {
      "inputs": [
        {
          "internalType": "uint256[]",
          "name": "tokenId",
          "type": "uint256[]"
        },
        {
          "internalType": "uint256",
          "name": "amount",
          "type": "uint256"
        }
      ],
      "name": "withdraw",
      "outputs": [],
      "stateMutability": "nonpayable",
      "type": "function"
    },
    {
      "stateMutability": "payable",
      "type": "receive"
    }
  ],
  "bytecode": {
    "object": "0x608060405234801561001057600080fd5b506001600055611b66806100256000396000f3fe60806040526004361061012e5760003560e01c806372841a69116100ab578063b6e41afc1161006f578063b6e41afc14610338578063d4cadf6814610358578063de8ee9971461036d578063e0c5a2771461038d578063fc898928146103a2578063fcd802b1146103c257600080fd5b806372841a691461029a5780637dfe59cc146102ad578063880c904a146102cd5780639473102c146102ed578063b2bdfa7b1461030057600080fd5b806329b80017116100f257806329b800171461020b5780633072cf601461022157806343d32e9c14610252578063485cc95514610267578063598b8e711461028757600080fd5b8063018a25e81461013a57806314dca60214610162578063150b7a02146101775780631da64402146101b057806327b1a8e9146101d257600080fd5b3661013557005b600080fd5b34801561014657600080fd5b5061014f61042e565b6040519081526020015b60405180910390f35b34801561016e57600080fd5b5061014f610490565b34801561018357600080fd5b5061019761019236600461160a565b610502565b6040516001600160e01b03199091168152602001610159565b3480156101bc57600080fd5b506101d06101cb3660046116c8565b61052d565b005b3480156101de57600080fd5b506007546101f690600160a01b900463ffffffff1681565b60405163ffffffff9091168152602001610159565b34801561021757600080fd5b5061014f60045481565b34801561022d57600080fd5b5060075461024290600160c01b900460ff1681565b6040519015158152602001610159565b34801561025e57600080fd5b5061014f610654565b34801561027357600080fd5b506101d0610282366004611723565b61067b565b6101d061029536600461179b565b610715565b6101d06102a83660046117dd565b61086e565b3480156102b957600080fd5b506101d06102c836600461179b565b610a42565b3480156102d957600080fd5b5061014f6102e83660046117ff565b610d6e565b6101d06102fb36600461179b565b610dda565b34801561030c57600080fd5b50600554610320906001600160a01b031681565b6040516001600160a01b039091168152602001610159565b34801561034457600080fd5b50600754610320906001600160a01b031681565b34801561036457600080fd5b5061014f61103a565b34801561037957600080fd5b50600654610320906001600160a01b031681565b34801561039957600080fd5b5061014f611065565b3480156103ae57600080fd5b506101d06103bd36600461182f565b611180565b3480156103ce57600080fd5b506001546002546003546103fd92919061ffff8082169162010000810490911690640100000000900460ff1685565b60408051958652602086019490945261ffff928316938501939093521660608301521515608082015260a001610159565b6004546001546002546003546000938493610458939192909190640100000000900460ff16611353565b6003549091506103e8906104769062010000900461ffff1683611891565b61048091906118be565b61048a90826118e0565b91505090565b6006546040516370a0823160e01b81523060048201526000916001600160a01b0316906370a0823190602401602060405180830381865afa1580156104d9573d6000803e3d6000fd5b505050506040513d601f19601f820116820180604052508101906104fd91906118f3565b905090565b7f150b7a023d4804d13e8c85fb27262cb750cf6ba9f9dd3bb30d90f482ceeb4b1f5b95945050505050565b6005546001600160a01b031633148061055057506007546001600160a01b031633145b6105755760405162461bcd60e51b815260040161056c9061190c565b60405180910390fd5b600185905560028490556003805461ffff85811664ffffffffff199092166201000091861691820264ff0000ffff1916178217640100000000851515908102919091179093556007805463ffffffff60a01b198116909155600060049081556040516394d8b6cd60e01b81529081018a9052602481018990526044810193909352606483019190915260848201929092526001600160a01b03909116906394d8b6cd9060a401600060405180830381600087803b15801561063557600080fd5b505af1158015610649573d6000803e3d6000fd5b505050505050505050565b6004546001546002546003546000936104fd9390929091640100000000900460ff16611353565b600754600160c01b900460ff16156106cb5760405162461bcd60e51b8152602060048201526013602482015272105b1c9958591e481a5b9a5d1a585b1a5e9959606a1b604482015260640161056c565b600580546001600160a01b039384166001600160a01b0319918216179091556006805492909316911617905560078054600164ff0000000160a01b0319163317600160c01b179055565b6005546001600160a01b031633148061073857506007546001600160a01b031633145b6107545760405162461bcd60e51b815260040161056c9061190c565b60005b81811015610801576007546006546005546001600160a01b03928316926346197c9a928116911686868681811061079057610790611935565b905060200201356040518463ffffffff1660e01b81526004016107b59392919061194b565b6020604051808303816000875af11580156107d4573d6000803e3d6000fd5b505050506040513d601f19601f820116820180604052508101906107f8919061196f565b50600101610757565b50600760009054906101000a90046001600160a01b03166001600160a01b0316635600231a6040518163ffffffff1660e01b8152600401600060405180830381600087803b15801561085257600080fd5b505af1158015610866573d6000803e3d6000fd5b505050505050565b61087661103a565b34146108b95760405162461bcd60e51b8152602060048201526012602482015271506f6f6c3a2077726f6e67202076616c756560701b604482015260640161056c565b600654604051635c46a7ef60e11b81523060048201523360248201526044810183905260806064820152600060848201526001600160a01b039091169063b88d4fde9060a401600060405180830381600087803b15801561091957600080fd5b505af115801561092d573d6000803e3d6000fd5b505060075460065460405163230cbe4d60e11b81526001600160a01b0392831694506346197c9a935061096a92909116903390879060040161194b565b6020604051808303816000875af1158015610989573d6000803e3d6000fd5b505050506040513d601f19601f820116820180604052508101906109ad919061196f565b506040805160028082526060820183526000926020830190803683375050600754919250506001600160a01b03166365c0bf19336109e961103a565b8460026040518563ffffffff1660e01b8152600401610a0b94939291906119b5565b600060405180830381600087803b158015610a2557600080fd5b505af1158015610a39573d6000803e3d6000fd5b50505050505050565b610a4a6114a4565b600754610a65908290600160a01b900463ffffffff16611a19565b60035461ffff161015610aba5760405162461bcd60e51b815260206004820152601960248201527f506f6f6c3a20627579206f72646572206c696d6974206d657400000000000000604482015260640161056c565b80610afb5760405162461bcd60e51b8152602060048201526011602482015270506f6f6c3a20656d70747920617272617960781b604482015260640161056c565b6000610b08826001610d6e565b905080471015610b535760405162461bcd60e51b8152602060048201526016602482015275506f6f6c3a206e6f7420656e6f7567682066756e647360501b604482015260640161056c565b6003546103e890610b6e9062010000900461ffff1683611891565b610b7891906118be565b610b8290826118e0565b905060005b82811015610c63576007546006546001600160a01b03918216916346197c9a911633878786818110610bbb57610bbb611935565b905060200201356040518463ffffffff1660e01b8152600401610be09392919061194b565b6020604051808303816000875af1158015610bff573d6000803e3d6000fd5b505050506040513d601f19601f82011682018060405250810190610c23919061196f565b50600480546000190190556007805463ffffffff600160a01b808304821660019081019092160263ffffffff60a01b199092169190911790915501610b87565b506007546040516365c0bf1960e01b81526001600160a01b03909116906365c0bf1990610c9d903390859088908890600090600401611a2c565b600060405180830381600087803b158015610cb757600080fd5b505af1158015610ccb573d6000803e3d6000fd5b50506040516000925033915083908381818185875af1925050503d8060008114610d11576040519150601f19603f3d011682016040523d82523d6000602084013e610d16565b606091505b5050905080610d5e5760405162461bcd60e51b81526020600482015260146024820152732330b4b632b2103a379039b2b7321022ba3432b960611b604482015260640161056c565b5050610d6a6001600055565b5050565b6040805160a0810182526001548082526002546020830181905260035461ffff80821695850195909552620100008104909416606084015264010000000090930460ff16151560808301819052600454600094610dd0939192889190886114fd565b9150505b92915050565b610de26114a4565b600154600003610e235760405162461bcd60e51b815260206004820152600c60248201526b4e6f7420666f722073616c6560a01b604482015260640161056c565b80610e645760405162461bcd60e51b8152602060048201526011602482015270139bc81d1bdad95b881cd95b1958dd1959607a1b604482015260640161056c565b6000610e708282610d6e565b9050803414610eb05760405162461bcd60e51b815260206004820152600c60248201526b15dc9bdb99c8185b5bdd5b9d60a21b604482015260640161056c565b60005b82811015610fc3576006546001600160a01b031663b88d4fde3033878786818110610ee057610ee0611935565b6040516001600160e01b031960e088901b1681526001600160a01b03958616600482015294909316602485015250602090910201356044820152608060648201526000608482015260a401600060405180830381600087803b158015610f4557600080fd5b505af1158015610f59573d6000803e3d6000fd5b5050600754600160a01b900463ffffffff16159150610fb190505760078054600160a01b900463ffffffff16906014610f9183611a82565b91906101000a81548163ffffffff021916908363ffffffff160217905550505b60048054600190810190915501610eb3565b506007546040516365c0bf1960e01b81526001600160a01b03909116906365c0bf1990610ffd903390349088908890600190600401611a2c565b600060405180830381600087803b15801561101757600080fd5b505af115801561102b573d6000803e3d6000fd5b5050505050610d6a6001600055565b6003546001546000916103e89161105b9162010000900461ffff1690611891565b6104fd91906118be565b60045460075460035460009283929091600160a01b90910463ffffffff1661ffff9091161080611099575060035461ffff16155b156110a75760009250505090565b6007546003546000916110cc91600160a01b90910463ffffffff169061ffff16611aa2565b63ffffffff16905060005b8181101561117857600154600254600354600092611101928792640100000000900460ff16611353565b6003549091506103e89061111f9062010000900461ffff1683611891565b61112991906118be565b61113390826118e0565b9050476111408287611a19565b111561114f5750949350505050565b6111598186611a19565b945061116484611ac6565b9350508061117190611ae3565b90506110d7565b509392505050565b6005546001600160a01b031633146111aa5760405162461bcd60e51b815260040161056c9061190c565b6111b26114a4565b60005b82811015611244576006546001600160a01b03166342842e0e30338787868181106111e2576111e2611935565b905060200201356040518463ffffffff1660e01b81526004016112079392919061194b565b600060405180830381600087803b15801561122157600080fd5b505af1158015611235573d6000803e3d6000fd5b505050508060010190506111b5565b5080156112dc57604051600090339083908381818185875af1925050503d806000811461128d576040519150601f19603f3d011682016040523d82523d6000602084013e611292565b606091505b50509050806112da5760405162461bcd60e51b81526020600482015260146024820152732330b4b632b2103a379039b2b7321022ba3432b960611b604482015260640161056c565b505b600760009054906101000a90046001600160a01b03166001600160a01b0316635600231a6040518163ffffffff1660e01b8152600401600060405180830381600087803b15801561132c57600080fd5b505af1158015611340573d6000803e3d6000fd5b5050505061134e6001600055565b505050565b6000838161136087611587565b90506000841561146057600088121561139c5761138386655af3107a4000611891565b61139590670de0b6b3a76400006118e0565b90506113c1565b6113ac86655af3107a4000611891565b6113be90670de0b6b3a7640000611a19565b90505b8115611455578160011660010361140e576000806113df85846115a3565b91509150816113f7576000199550505050505061149c565b611409670de0b6b3a7640000826118be565b945050505b60008061141b83846115a3565b9150915081611433576000199550505050505061149c565b611445670de0b6b3a7640000826118be565b9250600184901c935050506113c1565b82935050505061149c565b6000881215611488576114738683611891565b61147d90846118e0565b935061149c92505050565b6114928683611891565b61147d9084611a19565b949350505050565b6002600054036114f65760405162461bcd60e51b815260206004820152601f60248201527f5265656e7472616e637947756172643a207265656e7472616e742063616c6c00604482015260640161056c565b6002600055565b60008082156115425760005b8681101561153c5761151d89898888611353565b6115279083611a19565b915061153289611afc565b9850600101611509565b5061157a565b60005b868110156115785761155989898888611353565b6115639083611a19565b915061156e89611ac6565b9850600101611545565b505b90505b9695505050505050565b60008082121561159f5761159a82611b14565b610dd4565b5090565b600080836000036115ba57506001905060006115e7565b838302838582816115cd576115cd6118a8565b04146115e05760008092509250506115e7565b6001925090505b9250929050565b80356001600160a01b038116811461160557600080fd5b919050565b60008060008060006080868803121561162257600080fd5b61162b866115ee565b9450611639602087016115ee565b935060408601359250606086013567ffffffffffffffff8082111561165d57600080fd5b818801915088601f83011261167157600080fd5b81358181111561168057600080fd5b89602082850101111561169257600080fd5b9699959850939650602001949392505050565b803561ffff8116811461160557600080fd5b80151581146116c557600080fd5b50565b600080600080600060a086880312156116e057600080fd5b85359450602086013593506116f7604087016116a5565b9250611705606087016116a5565b91506080860135611715816116b7565b809150509295509295909350565b6000806040838503121561173657600080fd5b61173f836115ee565b915061174d602084016115ee565b90509250929050565b60008083601f84011261176857600080fd5b50813567ffffffffffffffff81111561178057600080fd5b6020830191508360208260051b85010111156115e757600080fd5b600080602083850312156117ae57600080fd5b823567ffffffffffffffff8111156117c557600080fd5b6117d185828601611756565b90969095509350505050565b600080604083850312156117f057600080fd5b50508035926020909101359150565b6000806040838503121561181257600080fd5b823591506020830135611824816116b7565b809150509250929050565b60008060006040848603121561184457600080fd5b833567ffffffffffffffff81111561185b57600080fd5b61186786828701611756565b909790965060209590950135949350505050565b634e487b7160e01b600052601160045260246000fd5b8082028115828204841417610dd457610dd461187b565b634e487b7160e01b600052601260045260246000fd5b6000826118db57634e487b7160e01b600052601260045260246000fd5b500490565b81810381811115610dd457610dd461187b565b60006020828403121561190557600080fd5b5051919050565b6020808252600f908201526e2837b7b61d103737ba1037bbb732b960891b604082015260600190565b634e487b7160e01b600052603260045260246000fd5b6001600160a01b039384168152919092166020820152604081019190915260600190565b60006020828403121561198157600080fd5b815161198c816116b7565b9392505050565b600381106119b157634e487b7160e01b600052602160045260246000fd5b9052565b6001600160a01b0385168152602080820185905260806040830181905284519083018190526000918581019160a0850190845b81811015611a04578451835293830193918301916001016119e8565b50508093505050506105246060830184611993565b80820180821115610dd457610dd461187b565b6001600160a01b038616815260208101859052608060408201819052810183905260006001600160fb1b03841115611a6357600080fd5b8360051b808660a0850137820160a001905061157d6060830184611993565b600063ffffffff821680611a9857611a9861187b565b6000190192915050565b63ffffffff828116828216039080821115611abf57611abf61187b565b5092915050565b6000600160ff1b8201611adb57611adb61187b565b506000190190565b600060018201611af557611af561187b565b5060010190565b60006001600160ff1b018201611af557611af561187b565b6000600160ff1b8201611b2957611b2961187b565b506000039056fea26469706673582212205adad6bb680e1a46eb2a1e0d71b8355bcdfa8dc856b39c81a58d40e2976253da64736f6c63430008120033",
    "linkReferences": {}
  },
  "methodIdentifiers": {
    "_buyCount()": "27b1a8e9",
    "_collection()": "de8ee997",
    "_initialized()": "3072cf60",
    "_owner()": "b2bdfa7b",
    "_parent()": "b6e41afc",
    "_signedCurrentOrder()": "29b80017",
    "batchBuyNFT(uint256[])": "7dfe59cc",
    "batchSellNFT(uint256[])": "9473102c",
    "calculateTotalPrice(uint256,bool)": "880c904a",
    "deposit(uint256[])": "598b8e71",
    "getBuyOrders()": "e0c5a277",
    "getBuyPrice()": "018a25e8",
    "getSellOrders()": "14dca602",
    "getSellPrice()": "43d32e9c",
    "getSwapFee()": "d4cadf68",
    "initialize(address,address)": "485cc955",
    "onERC721Received(address,address,uint256,bytes)": "150b7a02",
    "properties()": "fcd802b1",
    "setPoolProperties(uint256,uint256,uint16,uint16,bool)": "1da64402",
    "swapNFT(uint256,uint256)": "72841a69",
    "withdraw(uint256[],uint256)": "fc898928"
  },
  "id": 29
}