{
  "abi": [
    {
      "inputs": [],
      "stateMutability": "nonpayable",
      "type": "constructor"
    },
    {
      "inputs": [],
      "name": "WMATIC",
      "outputs": [
        {
          "internalType": "address",
          "name": "",
          "type": "address"
        }
      ],
      "stateMutability": "view",
      "type": "function"
    },
    {
      "inputs": [
        {
          "internalType": "contract IERC20[]",
          "name": "tokens",
          "type": "address[]"
        },
        {
          "internalType": "uint256[]",
          "name": "amounts",
          "type": "uint256[]"
        },
        {
          "internalType": "bytes",
          "name": "userData",
          "type": "bytes"
        }
      ],
      "name": "makeFlashLoan",
      "outputs": [],
      "stateMutability": "nonpayable",
      "type": "function"
    },
    {
      "inputs": [],
      "name": "poolFee",
      "outputs": [
        {
          "internalType": "uint24",
          "name": "",
          "type": "uint24"
        }
      ],
      "stateMutability": "view",
      "type": "function"
    },
    {
      "inputs": [],
      "name": "quickRouter",
      "outputs": [
        {
          "internalType": "contract ISwapRouter",
          "name": "",
          "type": "address"
        }
      ],
      "stateMutability": "view",
      "type": "function"
    },
    {
      "inputs": [
        {
          "internalType": "contract IERC20[]",
          "name": "tokens",
          "type": "address[]"
        },
        {
          "internalType": "uint256[]",
          "name": "amounts",
          "type": "uint256[]"
        },
        {
          "internalType": "uint256[]",
          "name": "feeAmounts",
          "type": "uint256[]"
        },
        {
          "internalType": "bytes",
          "name": "userData",
          "type": "bytes"
        }
      ],
      "name": "receiveFlashLoan",
      "outputs": [],
      "stateMutability": "nonpayable",
      "type": "function"
    },
    {
      "inputs": [
        {
          "internalType": "address",
          "name": "tokenIn",
          "type": "address"
        },
        {
          "internalType": "address",
          "name": "tokenOut",
          "type": "address"
        },
        {
          "internalType": "uint256",
          "name": "amountIn",
          "type": "uint256"
        },
        {
          "internalType": "address",
          "name": "router",
          "type": "address"
        }
      ],
      "name": "swapExactInputSingle",
      "outputs": [
        {
          "internalType": "uint256",
          "name": "amountOut",
          "type": "uint256"
        }
      ],
      "stateMutability": "nonpayable",
      "type": "function"
    },
    {
      "inputs": [
        {
          "internalType": "address",
          "name": "tokenIn",
          "type": "address"
        },
        {
          "internalType": "address",
          "name": "tokenOut",
          "type": "address"
        },
        {
          "internalType": "uint256",
          "name": "amountOut",
          "type": "uint256"
        },
        {
          "internalType": "uint256",
          "name": "amountInMaximum",
          "type": "uint256"
        },
        {
          "internalType": "address",
          "name": "router",
          "type": "address"
        }
      ],
      "name": "swapExactOutputSingle",
      "outputs": [
        {
          "internalType": "uint256",
          "name": "amountIn",
          "type": "uint256"
        }
      ],
      "stateMutability": "nonpayable",
      "type": "function"
    },
    {
      "inputs": [],
      "name": "uniRouter",
      "outputs": [
        {
          "internalType": "contract ISwapRouter",
          "name": "",
          "type": "address"
        }
      ],
      "stateMutability": "view",
      "type": "function"
    }
  ],
  "bytecode": {
    "object": "0x6080604052600180546001600160a01b0319908116730d500b1d8e8ef31e21c99d1db9a6444d3adf12701790915560028054821673f5b509bb0909a69b1c207e495f687a596c168e121790556003805490911673e592427a0aece92de3edee1f18e0157c0586156417905534801561007657600080fd5b50600080546001600160a01b03191673ba12222222228d8ba445958a75a0704d566bf2c8179055610af4806100ac6000396000f3fe608060405234801561001057600080fd5b50600436106100885760003560e01c8063a0e47bf61161005b578063a0e47bf61461010e578063ae0ef2c714610121578063c9a6956214610134578063f04f27071461014957600080fd5b8063089fe6aa1461008d5780634d95cad9146100af5780636f2560d1146100da5780638d252c62146100fb575b600080fd5b610096610bb881565b60405162ffffff90911681526020015b60405180910390f35b6001546100c2906001600160a01b031681565b6040516001600160a01b0390911681526020016100a6565b6100ed6100e8366004610573565b61015c565b6040519081526020016100a6565b6002546100c2906001600160a01b031681565b6003546100c2906001600160a01b031681565b6100ed61012f3660046105c6565b610223565b6101476101423660046107cf565b6102eb565b005b610147610157366004610857565b610358565b600061016985838561045e565b60408051610100810182526001600160a01b0380881682528681166020830152610bb88284015230606083015242608083015260a08201869052600060c0830181905260e0830152915163414bf38960e01b8152909184169063414bf389906101d6908490600401610904565b6020604051808303816000875af11580156101f5573d6000803e3d6000fd5b505050506040513d601f19601f820116820180604052508101906102199190610974565b9695505050505050565b600061023086838561045e565b60408051610100810182526001600160a01b0380891682528781166020830152610bb88284015230606083015242608083015260a0820187905260c08201869052600060e08301529151631b67c43360e31b8152909184169063db3e21989061029d908490600401610904565b6020604051808303816000875af11580156102bc573d6000803e3d6000fd5b505050506040513d601f19601f820116820180604052508101906102e09190610974565b979650505050505050565b600054604051632e1c224f60e11b81526001600160a01b0390911690635c38449e906103219030908790879087906004016109dd565b600060405180830381600087803b15801561033b57600080fd5b505af115801561034f573d6000803e3d6000fd5b50505050505050565b6000546001600160a01b0316331461036f57600080fd5b6001546000546040516370a0823160e01b81523060048201526001600160a01b039283169263a9059cbb92169083906370a0823190602401602060405180830381865afa1580156103c4573d6000803e3d6000fd5b505050506040513d601f19601f820116820180604052508101906103e89190610974565b6040516001600160e01b031960e085901b1681526001600160a01b03909216600483015260248201526044016020604051808303816000875af1158015610433573d6000803e3d6000fd5b505050506040513d601f19601f820116820180604052508101906104579190610a79565b5050505050565b604080516001600160a01b038481166024830152604480830185905283518084039091018152606490920183526020820180516001600160e01b031663095ea7b360e01b17905291516000928392908716916104ba9190610aa2565b6000604051808303816000865af19150503d80600081146104f7576040519150601f19603f3d011682016040523d82523d6000602084013e6104fc565b606091505b50915091508180156105265750805115806105265750808060200190518101906105269190610a79565b6104575760405162461bcd60e51b8152602060048201526002602482015261534160f01b604482015260640160405180910390fd5b6001600160a01b038116811461057057600080fd5b50565b6000806000806080858703121561058957600080fd5b84356105948161055b565b935060208501356105a48161055b565b92506040850135915060608501356105bb8161055b565b939692955090935050565b600080600080600060a086880312156105de57600080fd5b85356105e98161055b565b945060208601356105f98161055b565b9350604086013592506060860135915060808601356106178161055b565b809150509295509295909350565b634e487b7160e01b600052604160045260246000fd5b604051601f8201601f1916810167ffffffffffffffff8111828210171561066457610664610625565b604052919050565b600067ffffffffffffffff82111561068657610686610625565b5060051b60200190565b600082601f8301126106a157600080fd5b813560206106b66106b18361066c565b61063b565b82815260059290921b840181019181810190868411156106d557600080fd5b8286015b848110156106f95780356106ec8161055b565b83529183019183016106d9565b509695505050505050565b600082601f83011261071557600080fd5b813560206107256106b18361066c565b82815260059290921b8401810191818101908684111561074457600080fd5b8286015b848110156106f95780358352918301918301610748565b600082601f83011261077057600080fd5b813567ffffffffffffffff81111561078a5761078a610625565b61079d601f8201601f191660200161063b565b8181528460208386010111156107b257600080fd5b816020850160208301376000918101602001919091529392505050565b6000806000606084860312156107e457600080fd5b833567ffffffffffffffff808211156107fc57600080fd5b61080887838801610690565b9450602086013591508082111561081e57600080fd5b61082a87838801610704565b9350604086013591508082111561084057600080fd5b5061084d8682870161075f565b9150509250925092565b6000806000806080858703121561086d57600080fd5b843567ffffffffffffffff8082111561088557600080fd5b61089188838901610690565b955060208701359150808211156108a757600080fd5b6108b388838901610704565b945060408701359150808211156108c957600080fd5b6108d588838901610704565b935060608701359150808211156108eb57600080fd5b506108f88782880161075f565b91505092959194509250565b610100810161096e828480516001600160a01b03908116835260208083015182169084015260408083015162ffffff16908401526060808301518216908401526080808301519084015260a0828101519084015260c0808301519084015260e09182015116910152565b92915050565b60006020828403121561098657600080fd5b5051919050565b60005b838110156109a8578181015183820152602001610990565b50506000910152565b600081518084526109c981602086016020860161098d565b601f01601f19169290920160200192915050565b6001600160a01b0385811682526080602080840182905286519184018290526000928782019290919060a0860190855b81811015610a2b578551851683529483019491830191600101610a0d565b5050858103604087015287518082529082019350915080870160005b83811015610a6357815185529382019390820190600101610a47565b5050505082810360608401526102e081856109b1565b600060208284031215610a8b57600080fd5b81518015158114610a9b57600080fd5b9392505050565b60008251610ab481846020870161098d565b919091019291505056fea26469706673582212202378616c38e7f19c51a415676f8c1f92a890310135e6e5a9ab0ef4d60bab388864736f6c63430008150033",
    "linkReferences": {}
  },
  "methodIdentifiers": {
    "WMATIC()": "4d95cad9",
    "makeFlashLoan(address[],uint256[],bytes)": "c9a69562",
    "poolFee()": "089fe6aa",
    "quickRouter()": "8d252c62",
    "receiveFlashLoan(address[],uint256[],uint256[],bytes)": "f04f2707",
    "swapExactInputSingle(address,address,uint256,address)": "6f2560d1",
    "swapExactOutputSingle(address,address,uint256,uint256,address)": "ae0ef2c7",
    "uniRouter()": "a0e47bf6"
  },
  "id": 28
}