{
  "abi": [
    {
      "inputs": [],
      "stateMutability": "nonpayable",
      "type": "constructor"
    },
    {
      "inputs": [],
      "name": "USDC",
      "outputs": [
        {
          "internalType": "address",
          "name": "",
          "type": "address"
        }
      ],
      "stateMutability": "view",
      "type": "function"
    },
    {
      "inputs": [],
      "name": "amountLoaned",
      "outputs": [
        {
          "internalType": "uint256",
          "name": "",
          "type": "uint256"
        }
      ],
      "stateMutability": "view",
      "type": "function"
    },
    {
      "inputs": [
        {
          "internalType": "contract IERC20[]",
          "name": "tokens",
          "type": "address[]"
        },
        {
          "internalType": "uint256[]",
          "name": "amounts",
          "type": "uint256[]"
        },
        {
          "internalType": "bytes",
          "name": "userData",
          "type": "bytes"
        }
      ],
      "name": "makeFlashLoan",
      "outputs": [],
      "stateMutability": "nonpayable",
      "type": "function"
    },
    {
      "inputs": [
        {
          "internalType": "contract IERC20[]",
          "name": "tokens",
          "type": "address[]"
        },
        {
          "internalType": "uint256[]",
          "name": "amounts",
          "type": "uint256[]"
        },
        {
          "internalType": "uint256[]",
          "name": "feeAmounts",
          "type": "uint256[]"
        },
        {
          "internalType": "bytes",
          "name": "userData",
          "type": "bytes"
        }
      ],
      "name": "receiveFlashLoan",
      "outputs": [],
      "stateMutability": "nonpayable",
      "type": "function"
    }
  ],
  "bytecode": {
    "object": "0x6080604052600180546001600160a01b031916738f3cf7ad23cd3cadbd9735aff958023239c6a06317905534801561003657600080fd5b50600080546001600160a01b03191673ba12222222228d8ba445958a75a0704d566bf2c81790556106f38061006c6000396000f3fe608060405234801561001057600080fd5b506004361061004c5760003560e01c806389a3027114610051578063afefcefe14610081578063c9a6956214610098578063f04f2707146100ad575b600080fd5b600154610064906001600160a01b031681565b6040516001600160a01b0390911681526020015b60405180910390f35b61008a60025481565b604051908152602001610078565b6100ab6100a6366004610459565b6100c0565b005b6100ab6100bb3660046104e1565b61012d565b600054604051632e1c224f60e11b81526001600160a01b0390911690635c38449e906100f69030908790879087906004016105d4565b600060405180830381600087803b15801561011057600080fd5b505af1158015610124573d6000803e3d6000fd5b50505050505050565b6000546001600160a01b0316331461014457600080fd5b6001546040516370a0823160e01b81523060048201526001600160a01b03909116906370a0823190602401602060405180830381865afa15801561018c573d6000803e3d6000fd5b505050506040513d601f19601f820116820180604052508101906101b0919061067b565b6002556001546000546040516370a0823160e01b81523060048201526001600160a01b039283169263a9059cbb92169083906370a0823190602401602060405180830381865afa158015610208573d6000803e3d6000fd5b505050506040513d601f19601f8201168201806040525081019061022c919061067b565b6040516001600160e01b031960e085901b1681526001600160a01b03909216600483015260248201526044016020604051808303816000875af1158015610277573d6000803e3d6000fd5b505050506040513d601f19601f8201168201806040525081019061029b9190610694565b5050505050565b634e487b7160e01b600052604160045260246000fd5b604051601f8201601f1916810167ffffffffffffffff811182821017156102e1576102e16102a2565b604052919050565b600067ffffffffffffffff821115610303576103036102a2565b5060051b60200190565b600082601f83011261031e57600080fd5b8135602061033361032e836102e9565b6102b8565b82815260059290921b8401810191818101908684111561035257600080fd5b8286015b848110156103835780356001600160a01b03811681146103765760008081fd5b8352918301918301610356565b509695505050505050565b600082601f83011261039f57600080fd5b813560206103af61032e836102e9565b82815260059290921b840181019181810190868411156103ce57600080fd5b8286015b8481101561038357803583529183019183016103d2565b600082601f8301126103fa57600080fd5b813567ffffffffffffffff811115610414576104146102a2565b610427601f8201601f19166020016102b8565b81815284602083860101111561043c57600080fd5b816020850160208301376000918101602001919091529392505050565b60008060006060848603121561046e57600080fd5b833567ffffffffffffffff8082111561048657600080fd5b6104928783880161030d565b945060208601359150808211156104a857600080fd5b6104b48783880161038e565b935060408601359150808211156104ca57600080fd5b506104d7868287016103e9565b9150509250925092565b600080600080608085870312156104f757600080fd5b843567ffffffffffffffff8082111561050f57600080fd5b61051b8883890161030d565b9550602087013591508082111561053157600080fd5b61053d8883890161038e565b9450604087013591508082111561055357600080fd5b61055f8883890161038e565b9350606087013591508082111561057557600080fd5b50610582878288016103e9565b91505092959194509250565b6000815180845260005b818110156105b457602081850181015186830182015201610598565b506000602082860101526020601f19601f83011685010191505092915050565b6001600160a01b0385811682526080602080840182905286519184018290526000928782019290919060a0860190855b81811015610622578551851683529483019491830191600101610604565b5050858103604087015287518082529082019350915080870160005b8381101561065a5781518552938201939082019060010161063e565b505050508281036060840152610670818561058e565b979650505050505050565b60006020828403121561068d57600080fd5b5051919050565b6000602082840312156106a657600080fd5b815180151581146106b657600080fd5b939250505056fea2646970667358221220735ad380b10373d67b894625be11c422a304137b3ef5ae9907bbabf3a3f0a5c364736f6c63430008150033",
    "linkReferences": {}
  },
  "methodIdentifiers": {
    "USDC()": "89a30271",
    "amountLoaned()": "afefcefe",
    "makeFlashLoan(address[],uint256[],bytes)": "c9a69562",
    "receiveFlashLoan(address[],uint256[],uint256[],bytes)": "f04f2707"
  },
  "id": 25
}